:100000000C942A000C9447000C9447000C94470071
:100010000C9447000C94C1030C9439030C944700D2
:100020000C9447000C94AA030C94F9030C942F042D
:100030000C9447000C9447000C9447000C94470024
:100040000C9447000C9447000C9447000C94470014
:100050000C94470011241FBECFE5D8E0DEBFCDBF12
:1000600010E0A0E6B0E0E0E7FAE002C005900D92F3
:10007000A037B107D9F710E0A0E7B0E001C01D92AA
:10008000A738B107E1F70E9475040C9436050C946B
:1000900000004130B1F5813099F0813030F082308C
:1000A000D1F0833009F067C021C02AB381E090E02D
:1000B00002C0880F991F6A95E2F7282B2ABB089582
:1000C00027B381E090E002C0880F991F6A95E2F79C
:1000D000282B27BB089524B381E090E002C0880F4D
:1000E000991F6A95E2F7282B24BB089521B381E07C
:1000F00090E002C0880F991F6A95E2F7282B21BB78
:1001000008954423C1F5813099F0813028F0823080
:10011000D9F0833081F524C02AB381E090E002C099
:10012000880F991F6A95E2F7809582238ABB08950C
:1001300027B381E090E002C0880F991F6A95E2F72B
:100140008095822387BB089524B381E090E002C0AC
:10015000880F991F6A95E2F78095822384BB0895E2
:1001600021B381E090E002C0880F991F6A95E2F701
:100170008095822381BB08954130B1F5813099F09B
:10018000813030F08230D1F0833009F067C021C077
:100190002BB381E090E002C0880F991F6A95E2F7C7
:1001A000282B2BBB089528B381E090E002C0880F74
:1001B000991F6A95E2F7282B28BB089525B381E0A3
:1001C00090E002C0880F991F6A95E2F7282B25BBA3
:1001D000089522B381E090E002C0880F991F6A95CC
:1001E000E2F7282B22BB08954423C1F5813099F012
:1001F000813028F08230D9F0833081F524C02BB3D0
:1002000081E090E002C0880F991F6A95E2F780951F
:1002100082238BBB089528B381E090E002C0880F51
:10022000991F6A95E2F78095822388BB089525B3CC
:1002300081E090E002C0880F991F6A95E2F78095EF
:10024000822385BB089522B381E090E002C0880F2D
:10025000991F6A95E2F78095822382BB08958130C9
:1002600051F0813030F0823041F0833079F080E01D
:10027000089589B303C086B301C083B390E002C080
:10028000959587956A95E2F78170089580B390E01F
:1002900002C0959587956A95E2F78170089561305F
:1002A000A9F4813051F0813028F0823049F0833058
:1002B000F9F409C08FEF8ABB08958FEF87BB0895CB
:1002C0008FEF84BB08958FEF81BB0895662381F47F
:1002D000813049F0813028F0823039F0833041F4A8
:1002E00006C01ABA089517BA089514BA089511BA33
:1002F0000895813049F0813028F0823039F0833020
:1003000041F406C06BBB089568BB089565BB0895B2
:1003100062BB0895813091F0813028F08230C9F0BD
:10032000833061F521C02BB381E090E002C0880FDB
:10033000991F6A95E2F728272BBB089528B381E01F
:1003400090E002C0880F991F6A95E2F7282728BB22
:10035000089525B381E090E002C0880F991F6A9547
:10036000E2F7282725BB089522B381E090E002C080
:10037000880F991F6A95E2F7282722BB08958130DC
:1003800051F0813030F0823041F0833041F080E034
:10039000089589B3089586B3089583B3089580B30B
:1003A00008951F93182F83E060E040E00E94BC0096
:1003B00083E061E040E00E94BC0082E0612F0E9487
:1003C000790183E062E041E00E94BC0080ED97E0AB
:1003D0000197F1F783E062E040E00E94BC00113039
:1003E00021F480EA9FE00197F1F71F91089582E0E0
:1003F0000E94D101089588E10E94D10108958CE105
:100400000E94D101089581E00E94D10108958823BE
:1004100029F4862F80580E94D1010895813021F45B
:10042000862F80540E94D1010895FF920F931F934D
:10043000F82E83E060E041E00E94BC0083E061E0D0
:1004400040E00E94BC0000ED17E0C8010197F1F701
:1004500082E06F2D0E947901C8010197F1F783E0D6
:1004600062E041E00E94BC00C8010197F1F783E01F
:1004700062E040E00E94BC00C8010197F1F71F91C3
:100480000F91FF900895EF92FF920F931F93DF93C8
:10049000CF9300D000D00F92CDB7DEB7182F8823AE
:1004A00019F480E30E941502AE014F5F5F4FFA011D
:1004B00009C0812F6AE00E9408059193812F0E9454
:1004C0000805182F2E2F241B112399F72150822F56
:1004D000992787FD90952F5F8E010F5F1F4F080FA3
:1004E000191F7801E21AF10834C0F80180818430C4
:1004F00009F1853048F48130B9F0813098F08230CC
:10050000A9F0833021F514C08730D1F0883028F469
:10051000853091F08630D9F411C0883099F0893057
:10052000B1F412C080E311C081E30FC082E30DC0BB
:1005300083E30BC084E309C085E307C086E305C0FD
:1005400087E303C088E301C089E30E9415020150DC
:1005500010400E151F0549F60F900F900F900F9049
:100560000F90CF91DF911F910F91FF90EF90089521
:100570001F93CF93DF93EC0110E003C00E9415029C
:100580001F5FFE01E10FF11D80818823B9F7DF9124
:10059000CF911F9108950F931F9383E060E041E096
:1005A0000E94490083E061E041E00E94490083E04D
:1005B00062E041E00E94490080E991E028EC30E0EF
:1005C000F9013197F1F70197D9F782E061E00E94D4
:1005D0004F0188E30E94D10100ED17E0C8010197A7
:1005E000F1F78FE00E94D101C8010197F1F781E096
:1005F0000E94D10180EA9FE00197F1F786E00E9416
:10060000D101C8010197F1F71F910F9108958EB59F
:100610009FB59E7F9FBD8EBD8EB59FB59D7F9FBDB3
:100620008EBD8EB59FB5877F9FBD8EBD8EB59FB5A4
:100630008F7E9FBD8EBD89B7846089BF8EB59FB503
:100640008E7F9FBD8EBD8EB59FB582609FBD8EBDD6
:100650008EB59FB58B7F9FBD8EBD8FB780688FBFD6
:1006600008958CED90E09DBD8CBD08959BBD8ABD25
:1006700008951F920F920FB60F9211242F933F935C
:100680004F935F938F939F93AF93BF93809172002B
:10069000882389F486B597B590937A008093790082
:1006A00010927100109270008EB59FB58F7B9FBD28
:1006B0008EBD81E040C0813011F526B537B58091FF
:1006C000700090917100A0E0B0E0DC0199278827CC
:1006D00040E050E0820F931FA41FB51F80937B0062
:1006E00090937C00A0937D00B0937E0082E0809385
:1006F00072008EB59FB580649FBD8EBD1EC08230D6
:10070000E1F486B597B5209170003091710040E01A
:1007100050E0A90133272227A0E0B0E0280F391FBD
:100720004A1F5B1F20937F0030938000409381001D
:100730005093820083E080937200BF91AF919F91AC
:100740008F915F914F913F912F910F900FBE0F901E
:100750001F9018951F920F920FB60F9211248F932E
:100760009F93809170009091710001969093710019
:10077000809370009F918F910F900FBE0F901F90EC
:1007800018951F920F920FB60F9211242F933F933B
:100790004F935F936F937F938F939F93AF93BF9389
:1007A000EF93FF9380917300909174000196909362
:1007B000740080937300853F910551F48CED84BDE6
:1007C00080E060E00E948A01109274001092730031
:1007D000FF91EF91BF91AF919F918F917F916F9119
:1007E0005F914F913F912F910F900FBE0F901F90EF
:1007F00018951F920F920FB60F9211242F933F93CB
:100800004F935F936F937F938F939F93AF93BF9318
:10081000EF93FF93809175009091760001969093ED
:100820007600809375008858934141F480E060E041
:100830000E948A011092760010927500FF91EF914C
:10084000BF91AF919F918F917F916F915F914F91E8
:100850003F912F910F900FBE0F901F9018951F92F0
:100860000F920FB60F9211242F933F934F935F93E4
:100870006F937F938F939F93AF93BF93EF93FF9368
:100880008091770090917800019690937800809302
:100890007700853F910551F48CED82BF80E060E0E8
:1008A0000E948A011092780010927700FF91EF91D8
:1008B000BF91AF919F918F917F916F915F914F9178
:1008C0003F912F910F900FBE0F901F90189583E0CE
:1008D00067E040E00E94490089B7806289BF8EB519
:1008E0009FB580649FBD8EBD0895EF92FF920F93D8
:1008F0001F93CF93DF930E9407030E9467040E9417
:10090000CB0280E690E00E94B802C8ECD0E0809173
:100910007200833009F05CC00E94030220917900CC
:1009200030917A0040E050E0E0907F00F09080004D
:100930000091810010918200E21AF30A040B150B5A
:1009400060917B0070917C0080917D0090917E0091
:10095000621B730B840B950B24E630E040E050E003
:100960000E94E904A80197010E94140530938600B3
:100970002093850060E472E48FE090E0A801970185
:100980000E941405309384002093830080E060E08F
:100990000E94070280E690E00E94B80280918500E4
:1009A0000E94430281E060E00E94070288E690E036
:1009B0000E94B802809183000E94430280E197E286
:1009C000FE013197F1F70197D9F7109272009FCF8E
:1009D000FFCF629FD001739FF001829FE00DF11D58
:1009E000649FE00DF11D929FF00D839FF00D749FA9
:1009F000F00D659FF00D9927729FB00DE11DF91F55
:100A0000639FB00DE11DF91FBD01CF0111240895B1
:100A1000991B79E004C0991F961708F0961B881F50
:100A20007A95C9F780950895A1E21A2EAA1BBB1BDF
:100A3000FD010DC0AA1FBB1FEE1FFF1FA217B307AA
:100A4000E407F50720F0A21BB30BE40BF50B661FC0
:100A5000771F881F991F1A9469F760957095809584
:100A600090959B01AC01BD01CF010895F894FFCF93
:100A700044757479203D200046726571203D200048
:00000001FF
