:100000000C942A000C943C000C943C000C943C0092
:100010000C943C000C94FD040C943C000C943C00AB
:100020000C943C000C943C000C94BC040C9478049C
:100030000C943C000C943C000C943C000C943C0050
:100040000C943C000C943C000C943C000C943C0040
:100050000C943C0011241FBECFE5D8E0DEBFCDBF1D
:1000600010E0A0E6B0E001C01D92A636B107E1F7AE
:100070000E9441050C9454050C940000DF93CF932B
:10008000CDB7DEB727970FB6F894DEBF0FBECDBF52
:1000900089836A834B838B81813009F06FC08981AA
:1000A000282F30E03F832E838E819F818130910500
:1000B00049F12E813F81223031052CF48E819F81C0
:1000C000009761F0D2C02E813F812230310571F15D
:1000D0008E819F8183309105E9F1C7C0AAE3B0E02A
:1000E000EAE3F0E08081482F8A81282F30E081E028
:1000F00090E0022E02C0880F991F0A94E2F7842B29
:100100008C93B3C0A7E3B0E0E7E3F0E08081482F31
:100110008A81282F30E081E090E0022E02C0880F13
:10012000991F0A94E2F7842B8C939FC0A4E3B0E05C
:10013000E4E3F0E08081482F8A81282F30E081E0DD
:1001400090E0022E02C0880F991F0A94E2F7842BD8
:100150008C938BC0A1E3B0E0E1E3F0E08081482F15
:100160008A81282F30E081E090E0022E02C0880FC3
:10017000991F0A94E2F7842B8C9377C08B81882394
:1001800009F073C08981282F30E03D832C838C8156
:100190009D818130910559F12C813D8122303105BD
:1001A0002CF48C819D81009769F05FC02C813D818A
:1001B0002230310589F18C819D818330910509F4CC
:1001C00040C053C0AAE3B0E0EAE3F0E08081482FEA
:1001D0008A81282F30E081E090E0022E02C0880F53
:1001E000991F0A94E2F7809584238C933EC0A7E37D
:1001F000B0E0E7E3F0E08081482F8A81282F30E0EB
:1002000081E090E0022E02C0880F991F0A94E2F765
:10021000809584238C9329C0A4E3B0E0E4E3F0E06C
:100220008081482F8A81282F30E081E090E0022EE3
:1002300002C0880F991F0A94E2F7809584238C935B
:1002400014C0A1E3B0E0E1E3F0E08081482F8A81AF
:10025000282F30E081E090E0022E02C0880F991F25
:100260000A94E2F7809584238C9327960FB6F8942E
:10027000DEBF0FBECDBFCF91DF910895DF93CF9347
:10028000CDB7DEB727970FB6F894DEBF0FBECDBF50
:1002900089836A834B838B81813009F06FC08981A8
:1002A000282F30E03F832E838E819F8181309105FE
:1002B00049F12E813F81223031052CF48E819F81BE
:1002C000009761F0D2C02E813F812230310571F15B
:1002D0008E819F8183309105E9F1C7C0ABE3B0E027
:1002E000EBE3F0E08081482F8A81282F30E081E025
:1002F00090E0022E02C0880F991F0A94E2F7842B27
:100300008C93B3C0A8E3B0E0E8E3F0E08081482F2D
:100310008A81282F30E081E090E0022E02C0880F11
:10032000991F0A94E2F7842B8C939FC0A5E3B0E059
:10033000E5E3F0E08081482F8A81282F30E081E0DA
:1003400090E0022E02C0880F991F0A94E2F7842BD6
:100350008C938BC0A2E3B0E0E2E3F0E08081482F11
:100360008A81282F30E081E090E0022E02C0880FC1
:10037000991F0A94E2F7842B8C9377C08B81882392
:1003800009F073C08981282F30E03D832C838C8154
:100390009D818130910559F12C813D8122303105BB
:1003A0002CF48C819D81009769F05FC02C813D8188
:1003B0002230310589F18C819D818330910509F4CA
:1003C00040C053C0ABE3B0E0EBE3F0E08081482FE6
:1003D0008A81282F30E081E090E0022E02C0880F51
:1003E000991F0A94E2F7809584238C933EC0A8E37A
:1003F000B0E0E8E3F0E08081482F8A81282F30E0E8
:1004000081E090E0022E02C0880F991F0A94E2F763
:10041000809584238C9329C0A5E3B0E0E5E3F0E068
:100420008081482F8A81282F30E081E090E0022EE1
:1004300002C0880F991F0A94E2F7809584238C9359
:1004400014C0A2E3B0E0E2E3F0E08081482F8A81AB
:10045000282F30E081E090E0022E02C0880F991F23
:100460000A94E2F7809584238C9327960FB6F8942C
:10047000DEBF0FBECDBFCF91DF910895DF93CF9345
:1004800000D000D00F92CDB7DEB78A836B8319827C
:100490008A81282F30E03D832C834C815D8141305F
:1004A000510541F18C819D818230910534F42C817C
:1004B0003D812115310561F052C04C815D81423092
:1004C000510551F18C819D8183309105B9F147C06F
:1004D000E9E3F0E08081282F30E08B81882F90E0E5
:1004E000A90102C0559547958A95E2F7CA01817026
:1004F000898335C0E6E3F0E08081282F30E08B81EE
:10050000882F90E0A90102C0559547958A95E2F79A
:10051000CA018170898323C0E3E3F0E08081282F42
:1005200030E08B81882F90E0A90102C05595479556
:100530008A95E2F7CA018170898311C0E0E3F0E097
:100540008081282F30E08B81882F90E0A90102C0A4
:10055000559547958A95E2F7CA018170898389810B
:100560000F900F900F900F900F90CF91DF91089503
:10057000DF93CF9300D000D000D0CDB7DEB7898312
:100580006A838A81813099F58981282F30E03E8302
:100590002D838D819E8181309105D1F02D813E8109
:1005A000223031052CF48D819E81009761F050C07E
:1005B0002D813E812230310581F08D819E818330F5
:1005C000910581F045C0EAE3F0E08FEF808340C001
:1005D000E7E3F0E08FEF80833BC0E4E3F0E08FEFF0
:1005E000808336C0E1E3F0E08FEF808331C08A8101
:1005F000882371F58981282F30E03C832B838B8100
:100600009C8181309105C9F02B813C8122303105DC
:100610002CF48B819C81009761F01AC02B813C8166
:100620002230310571F08B819C818330910569F016
:100630000FC0EAE3F0E010820BC0E7E3F0E01082C5
:1006400007C0E4E3F0E0108203C0E1E3F0E01082D1
:1006500026960FB6F894DEBF0FBECDBFCF91DF91C7
:100660000895DF93CF9300D000D0CDB7DEB7898354
:100670006A838981282F30E03C832B838B819C8186
:1006800081309105D1F02B813C81223031052CF451
:100690008B819C81009761F01EC02B813C812230B0
:1006A000310581F08B819C818330910581F013C0ED
:1006B000EBE3F0E08A8180830EC0E8E3F0E08A811A
:1006C000808309C0E5E3F0E08A81808304C0E2E32F
:1006D000F0E08A8180830F900F900F900F90CF9160
:1006E000DF910895DF93CF9300D000D0CDB7DEB770
:1006F00089836A838981282F30E03C832B838B8117
:100700009C818130910549F12B813C81223031055A
:100710002CF48B819C81009761F05AC02B813C8125
:100720002230310571F18B819C8183309105E9F193
:100730004FC0ABE3B0E0EBE3F0E08081482F8A816B
:10074000282F30E081E090E0022E02C0880F991F30
:100750000A94E2F784278C933BC0A8E3B0E0E8E377
:10076000F0E08081482F8A81282F30E081E090E0FE
:10077000022E02C0880F991F0A94E2F784278C93F7
:1007800027C0A5E3B0E0E5E3F0E08081482F8A814F
:10079000282F30E081E090E0022E02C0880F991FE0
:1007A0000A94E2F784278C9313C0A2E3B0E0E2E35B
:1007B000F0E08081482F8A81282F30E081E090E0AE
:1007C000022E02C0880F991F0A94E2F784278C93A7
:1007D0000F900F900F900F90CF91DF910895DF93BE
:1007E000CF9300D000D0CDB7DEB78A8319828A813B
:1007F000282F30E03C832B838B819C8181309105B5
:10080000D1F02B813C81223031052CF48B819C81ED
:10081000009761F01EC02B813C812230310581F0B0
:100820008B819C818330910581F013C0E9E3F0E076
:10083000808189830EC0E6E3F0E08081898309C06E
:10084000E3E3F0E08081898304C0E0E3F0E08081AD
:10085000898389810F900F900F900F90CF91DF9136
:100860000895DF93CF93CDB7DEB7A5E4B0E0E5E41C
:10087000F0E080818F7B8C93A5E4B0E0E5E4F0E0CC
:100880008081877F8C93A9E5B0E0E9E5F0E0808185
:1008900080648C93A5E4B0E0E5E4F0E080818E7F95
:1008A0008C93A5E4B0E0E5E4F0E0808182608C9375
:1008B000A5E4B0E0E5E4F0E0808184608C93AFE5EE
:1008C000B0E0EFE5F0E0808180688C93CF91DF911C
:1008D0000895DF93CF93CDB7DEB7E2E5F0E08CED7E
:1008E0008083E4E4F0E08CED8083CF91DF91089584
:1008F0001F920F920FB60F9211242F933F934F9395
:100900005F936F937F938F939F93AF93BF93EF9377
:10091000FF93DF93CF93CDB7DEB7809160009091C6
:100920006100019690936100809360008091600067
:1009300090916100853F910561F4E2E5F0E08CED76
:10094000808380E060E00E94720310926100109248
:100950006000CF91DF91FF91EF91BF91AF919F9197
:100960008F917F916F915F914F913F912F910F9058
:100970000FBE0F901F9018951F920F920FB60F92F7
:1009800011242F933F934F935F936F937F938F9394
:100990009F93AF93BF93EF93FF93DF93CF93CDB725
:1009A000DEB780916200909163000196909363009E
:1009B00080936200809162009091630023E1883807
:1009C000920741F480E060E00E947203109263009D
:1009D00010926200CF91DF91FF91EF91BF91AF91A3
:1009E0009F918F917F916F915F914F913F912F9147
:1009F0000F900FBE0F901F9018951F920F920FB679
:100A00000F9211242F933F934F935F936F937F9394
:100A10008F939F93AF93BF93EF93FF93DF93CF9306
:100A2000CDB7DEB7809164009091650001969093F8
:100A30006500809364008091640090916500853F1B
:100A4000910561F4E4E4F0E08CED808380E065E002
:100A50000E9472031092650010926400CF91DF91A2
:100A6000FF91EF91BF91AF919F918F917F916F9186
:100A70005F914F913F912F910F900FBE0F901F905C
:100A80001895DF93CF93CDB7DEB780E060E041E00B
:100A90000E943E0080E065E041E00E943E000E942E
:0C0AA00031040E946904FFCFF894FFCFDE
:00000001FF
