:100000000C942A000C9447000C9447000C94470071
:100010000C9447000C9447000C9447000C94470044
:100020000C9447000C9447000C9447000C94470034
:100030000C9447000C9447000C9447000C94470024
:100040000C9447000C9447000C9447000C94470014
:100050000C94470011241FBECFE5D8E0DEBFCDBF12
:1000600010E0A0E6B0E0E6E7FAE002C005900D92ED
:10007000A23BB107D9F710E0A2EBB0E001C01D929E
:10008000A43BB107E1F70E94BE040C9439050C941F
:1000900000004130B1F5813099F0813030F082308C
:1000A000D1F0833009F067C021C02AB381E090E02D
:1000B00002C0880F991F6A95E2F7282B2ABB089582
:1000C00027B381E090E002C0880F991F6A95E2F79C
:1000D000282B27BB089524B381E090E002C0880F4D
:1000E000991F6A95E2F7282B24BB089521B381E07C
:1000F00090E002C0880F991F6A95E2F7282B21BB78
:1001000008954423C1F5813099F0813028F0823080
:10011000D9F0833081F524C02AB381E090E002C099
:10012000880F991F6A95E2F7809582238ABB08950C
:1001300027B381E090E002C0880F991F6A95E2F72B
:100140008095822387BB089524B381E090E002C0AC
:10015000880F991F6A95E2F78095822384BB0895E2
:1001600021B381E090E002C0880F991F6A95E2F701
:100170008095822381BB08954130B1F5813099F09B
:10018000813030F08230D1F0833009F067C021C077
:100190002BB381E090E002C0880F991F6A95E2F7C7
:1001A000282B2BBB089528B381E090E002C0880F74
:1001B000991F6A95E2F7282B28BB089525B381E0A3
:1001C00090E002C0880F991F6A95E2F7282B25BBA3
:1001D000089522B381E090E002C0880F991F6A95CC
:1001E000E2F7282B22BB08954423C1F5813099F012
:1001F000813028F08230D9F0833081F524C02BB3D0
:1002000081E090E002C0880F991F6A95E2F780951F
:1002100082238BBB089528B381E090E002C0880F51
:10022000991F6A95E2F78095822388BB089525B3CC
:1002300081E090E002C0880F991F6A95E2F78095EF
:10024000822385BB089522B381E090E002C0880F2D
:10025000991F6A95E2F78095822382BB08958130C9
:1002600051F0813030F0823041F0833079F080E01D
:10027000089589B303C086B301C083B390E002C080
:10028000959587956A95E2F78170089580B390E01F
:1002900002C0959587956A95E2F78170089561305F
:1002A000A9F4813051F0813028F0823049F0833058
:1002B000F9F409C08FEF8ABB08958FEF87BB0895CB
:1002C0008FEF84BB08958FEF81BB0895662381F47F
:1002D000813049F0813028F0823039F0833041F4A8
:1002E00006C01ABA089517BA089514BA089511BA33
:1002F0000895813049F0813028F0823039F0833020
:1003000041F406C06BBB089568BB089565BB0895B2
:1003100062BB0895813091F0813028F08230C9F0BD
:10032000833061F521C02BB381E090E002C0880FDB
:10033000991F6A95E2F728272BBB089528B381E01F
:1003400090E002C0880F991F6A95E2F7282728BB22
:10035000089525B381E090E002C0880F991F6A9547
:10036000E2F7282725BB089522B381E090E002C080
:10037000880F991F6A95E2F7282722BB08958130DC
:1003800051F0813030F0823041F0833041F080E034
:10039000089589B3089586B3089583B3089580B30B
:1003A0000895EF92FF920F931F93CF93DF9381E015
:1003B00060E040E00E94BC0081E061E041E00E941A
:1003C000BC0081E062E041E00E94BC0081E063E0AB
:1003D00041E00E94BC00C1EBD0E000E014E030E15D
:1003E000E32E37E2F32E81E0612F0E942F01882354
:1003F00009F4088181E0612F0E942F018823D1F345
:10040000C7010197F1F71F5F2496183061F781E06B
:1004100060E041E00E94BC0081E061E040E00E94B9
:10042000BC0081E062E041E00E94BC0081E063E04A
:1004300041E00E94BC00C2EBD0E014E020E1E22EDB
:1004400027E2F22E81E0612F0E942F01882309F418
:10045000088181E0612F0E942F018823D1F3C70119
:100460000197F1F71F5F2496183061F781E060E093
:1004700041E00E94BC0081E061E041E00E94BC00DC
:1004800081E062E040E00E94BC0081E063E041E086
:100490000E94BC00C3EBD0E014E090E1E92E97E2AB
:1004A000F92E81E0612F0E942F01882309F4088131
:1004B00081E0612F0E942F018823D1F3C7010197AA
:1004C000F1F71F5F2496183061F781E060E041E0AA
:1004D0000E94BC0081E061E041E00E94BC0081E03C
:1004E00062E041E00E94BC0081E063E040E00E94E5
:1004F000BC00C4EBD0E014E080E1E82E87E2F82EE7
:1005000081E0612F0E942F01882309F4088181E096
:10051000612F0E942F018823D1F3C7010197F1F7C2
:100520001F5F2496183061F7802FDF91CF911F91C4
:100530000F91FF90EF900895AF92BF92DF92EF92EC
:10054000FF920F931F93CF93DF9381E064E041E02C
:100550000E94BC0081E065E041E00E94BC0081E0B7
:1005600066E041E00E94BC0081E067E041E00E945B
:10057000BC0073E4E72E00E010E060E2A62E6EE41B
:10058000B62ED02E81E0602F40E00E94BC00E80132
:10059000CC0FDD1FCC0FDD1FCF55DF4F44E0F42E15
:1005A00081E06F2D0E942F01882351F4E88081E0C3
:1005B0006F2D0E942F018823D1F3C5010197F1F718
:1005C000F394219688E0F81659F781E06D2D41E00B
:1005D0000E94BC000F5F1F4F0430110591F68E2D55
:1005E000DF91CF911F910F91FF90EF90DF90BF901F
:1005F000AF90089581E060E041E00E94490081E011
:1006000061E041E00E94490081E062E041E00E9437
:10061000490081E063E041E00E94490081E064E03C
:1006200040E00E94490081E065E040E00E9449000E
:1006300081E066E040E00E94490081E067E040E040
:100640000E94490081E064E041E00E94BC0081E03A
:1006500065E041E00E94BC0081E066E041E00E946C
:10066000BC0081E067E041E00E94BC0081E060E006
:1006700041E00E94BC0081E061E041E00E94BC00DA
:1006800081E062E041E00E94BC0081E063E041E083
:100690000E94BC000895EF92FF921F93182F682FBD
:1006A000607F626082E00E94790180E060E040E06B
:1006B0000E94BC0080E061E040E00E94BC0080E05D
:1006C00062E041E00E94BC0080EDE82E87E0F82E59
:1006D000C7010197F1F780E062E040E00E94BC00B2
:1006E000C7010197F1F71295107F126082E0612F28
:1006F0000E94790180E062E041E00E94BC00C701F5
:100700000197F1F780E062E040E00E94BC00C70181
:100710000197F1F71F91FF90EF90089582E00E94FA
:100720004B03089588E10E944B0308958CE10E94D9
:100730004B03089581E00E944B030895882329F418
:10074000862F80580E944B030895813021F4862F14
:1007500080540E944B030895EF92FF921F93182F2D
:10076000682F607F626082E00E94790180E060E033
:1007700040E00E94BC0080E061E040E00E94BC00DC
:1007800080E062E041E00E94BC0090EDE92E97E03D
:10079000F92EC7010197F1F780E062E040E00E9486
:1007A000BC00C7010197F1F71295107F126082E03B
:1007B000612F0E94790180E062E041E00E94BC006C
:1007C000C7010197F1F780E062E040E00E94BC00C1
:1007D000C7010197F1F71F91FF90EF900895EF92F5
:1007E000FF920F931F93DF93CF9300D000D00F920F
:1007F000CDB7DEB7182F882319F480E30E94AC032D
:10080000AE014F5F5F4FFA0109C0812F6AE00E947D
:100810002D059193812F0E942D05182F2E2F241B1B
:10082000112399F72150822F992787FD90952F5FEB
:100830008E010F5F1F4F080F191F7801E21AF10890
:1008400034C0F8018081843009F1853048F481306A
:10085000B9F0813098F08230A9F0833021F514C0CE
:100860008730D1F0883028F4853091F08630D9F483
:1008700011C0883099F08930B1F412C080E311C002
:1008800081E30FC082E30DC083E30BC084E309C0A2
:1008900085E307C086E305C087E303C088E301C0A2
:1008A00089E30E94AC03015010400E151F0549F664
:1008B0000F900F900F900F900F90CF91DF911F919D
:1008C0000F91FF90EF9008951F93CF93DF93EC016A
:1008D00010E003C00E94AC031F5FFE01E10FF11D99
:1008E00080818823B9F7DF91CF911F9108950F93ED
:1008F0001F9380E060E041E00E94490080E061E0F9
:1009000041E00E94490080E062E041E00E9449002D
:1009100088E592E028EC30E0F9013197F1F7019792
:10092000D9F782E061E00E944F0183E30E944B030C
:1009300000ED17E0C8010197F1F782E30E944B0335
:10094000C8010197F1F788E20E944B03C8010197A3
:10095000F1F78CE00E944B03C8010197F1F786E0A4
:100960000E944B03C8010197F1F781E00E944B03FD
:10097000C8010197F1F71F910F910895FF920F930E
:100980001F930E94FA020E94770480E690E00E9482
:10099000640481E090E061E070E00E949E0382E7E1
:1009A00090E00E94640481E090E064E070E00E94C6
:1009B0009E030E949C028334E1F390EDF92EF80E21
:1009C0008F2D0E94EF0388E893E128EC30E0F901D5
:1009D0003197F1F70197D9F70E949A0386E790E0E3
:1009E0000E94640480E090E064E070E00E949E0356
:1009F0000E949C028334E1F3082F0053802F0E9451
:100A0000EF0388E893E128EC30E0F9013197F1F742
:100A10000197D9F70E949A038AE790E00E94640444
:100A20000E949C02182F8334D9F30E94AC0388E8FB
:100A300093E128EC30E0F9013197F1F70197D9F70C
:100A40000E949A031B3241F484E890E00E946404FF
:100A5000802F8F0D0E94EF03FFCF991B79E004C018
:100A6000991F961708F0961B881F7A95C9F78095ED
:060A70000895F894FFCF89
:100A760053696D706C652043616C63756C61746F4E
:100A860072004F5031004F5032004F504552415482
:100A9600494F4E005468652053756D2069733A209E
:100AA600003738392F3435362A3132332D20303D50
:100AB6002B3738392F3435362A3132332D51303DE4
:020AC6002B0003
:00000001FF
