:100000000C942A000C943C000C943C000C943C0092
:100010000C943C000C941E020C943C000C943C008C
:100020000C943C000C94E4010C9456020C948C0249
:100030000C943C000C943C000C943C000C943C0050
:100040000C943C000C943C000C943C000C943C0040
:100050000C943C0011241FBECFE5D8E0DEBFCDBF1D
:1000600010E0A0E6B0E001C01D92A836B107E1F7AC
:100070000E94C4020C9428030C9400004130B1F596
:10008000813099F0813030F08230D1F0833009F046
:1000900067C021C02AB381E090E002C0880F991F99
:1000A0006A95E2F7282B2ABB089527B381E090E0F8
:1000B00002C0880F991F6A95E2F7282B27BB089585
:1000C00024B381E090E002C0880F991F6A95E2F79F
:1000D000282B24BB089521B381E090E002C0880F53
:1000E000991F6A95E2F7282B21BB08954423C1F597
:1000F000813099F0813028F08230D9F0833081F559
:1001000024C02AB381E090E002C0880F991F6A954D
:10011000E2F7809582238ABB089527B381E090E0BF
:1001200002C0880F991F6A95E2F78095822387BBEA
:10013000089524B381E090E002C0880F991F6A956A
:10014000E2F78095822384BB089521B381E090E09B
:1001500002C0880F991F6A95E2F78095822381BBC0
:1001600008954130B1F5813099F0813030F082301E
:10017000D1F0833009F067C021C02BB381E090E05B
:1001800002C0880F991F6A95E2F7282B2BBB0895B0
:1001900028B381E090E002C0880F991F6A95E2F7CA
:1001A000282B28BB089525B381E090E002C0880F7A
:1001B000991F6A95E2F7282B25BB089522B381E0A9
:1001C00090E002C0880F991F6A95E2F7282B22BBA6
:1001D00008954423C1F5813099F0813028F08230B0
:1001E000D9F0833081F524C02BB381E090E002C0C8
:1001F000880F991F6A95E2F7809582238BBB08953B
:1002000028B381E090E002C0880F991F6A95E2F759
:100210008095822388BB089525B381E090E002C0D9
:10022000880F991F6A95E2F78095822385BB089510
:1002300022B381E090E002C0880F991F6A95E2F72F
:100240008095822382BB0895813051F0813030F057
:10025000823041F0833079F080E0089589B303C0A3
:1002600086B301C083B390E002C0959587956A95E7
:10027000E2F78170089580B390E002C0959587956C
:100280006A95E2F7817008956130A9F4813051F0E8
:10029000813028F0823049F08330F9F409C08FEFC3
:1002A0008ABB08958FEF87BB08958FEF84BB0895B5
:1002B0008FEF81BB0895662381F4813049F081304E
:1002C00028F0823039F0833041F406C01ABA08951C
:1002D00017BA089514BA089511BA0895813049F0F3
:1002E000813028F0823039F0833041F406C06BBB96
:1002F000089568BB089565BB089562BB0895813079
:1003000091F0813028F08230C9F0833061F521C04E
:100310002BB381E090E002C0880F991F6A95E2F745
:1003200028272BBB089528B381E090E002C0880FF6
:10033000991F6A95E2F7282728BB089525B381E025
:1003400090E002C0880F991F6A95E2F7282725BB25
:10035000089522B381E090E002C0880F991F6A954A
:10036000E2F7282722BB0895813051F0813030F028
:10037000823041F0833041F080E0089589B30895E0
:1003800086B3089583B3089580B3089583B78064D6
:1003900083BF83B7886083BF83B7806283BF83B71F
:1003A0008F7E83BF83B78E7F83BF83B7826083BF17
:1003B00083B78B7F83BF8FB780688FBF08958CED25
:1003C00082BF08958CBF08951F920F920FB60F92AF
:1003D00011242F933F934F935F936F937F938F934A
:1003E0009F93AF93BF93EF93FF93809160009091A1
:1003F000610001969093610080936000853F9105B4
:1004000061F48CED90E09DBD8CBD80E060E00E94C9
:100410007F011092610010926000FF91EF91BF91F7
:10042000AF919F918F917F916F915F914F913F918C
:100430002F910F900FBE0F901F9018951F920F9243
:100440000FB60F9211242F933F934F935F936F93A7
:100450007F938F939F93AF93BF93EF93FF9380917D
:100460006200909163000196909363008093620014
:10047000853F910551F48CED84BD80E060E00E94E1
:100480007F011092630010926200FF91EF91BF9183
:10049000AF919F918F917F916F915F914F913F911C
:1004A0002F910F900FBE0F901F9018951F920F92D3
:1004B0000FB60F9211242F933F934F935F936F9337
:1004C0007F938F939F93AF93BF93EF93FF9380910D
:1004D000640090916500019690936500809364009C
:1004E0008858934141F480E060E00E947F011092BF
:1004F000650010926400FF91EF91BF91AF919F91C1
:100500008F917F916F915F914F913F912F910F90BC
:100510000FBE0F901F9018951F920F920FB60F925B
:1005200011242F933F934F935F936F937F938F93F8
:100530009F93AF93BF93EF93FF9380916600909149
:10054000670001969093670080936600853F910550
:1005500051F48CED82BF80E060E00E947F01109238
:10056000670010926600FF91EF91BF91AF919F914C
:100570008F917F916F915F914F913F912F910F904C
:100580000FBE0F901F901895CF93DF9381E063E02B
:1005900041E00E943E000E94C601C8ECD0E08EE11E
:1005A00090E00E94E20180E197E2FE013197F1F7CD
:1005B0000197D9F78CE390E00E94E20180E197E295
:1005C000FE013197F1F70197D9F78AE590E00E9493
:1005D000E20180E197E2FE013197F1F70197D9F747
:1005E00088E790E00E94E20180E197E2FE01319706
:1005F000F1F70197D9F780EA90E00E94E20180E1EB
:1006000097E2FE013197F1F70197D9F788EC90E076
:100610000E94E20180E197E2FE013197F1F7019734
:10062000D9F78CED90E00E94E20180E197E2FE01B3
:100630003197F1F70197D9F78FEF90E00E94E2012F
:1006400080E197E2FE013197F1F70197D9F7A7CF43
:04065000F894FFCF4C
:00000001FF
