:100000000C94A7000C94C4000C94C4000C94C4007D
:100010000C94C4000C94C4000C94C2120C94C40040
:100020000C94C4000C94A0130C94C4000C94C40051
:100030000C94C4000C94C4000C94C4000C94C40030
:100040000C94C4000C94C4000C94C4000C94C40020
:100050000C94C40000407A10F35A00A0724E1809A4
:100060000010A5D4E80000E87648170000E40B541F
:10007000020000CA9A3B000000E1F50500008096EE
:100080009800000040420F000000A0860100000020
:10009000102700000000E8030000000064000000DA
:1000A00000000A00000000000100000000002C76A3
:1000B000D888DC674F0823DFC1DFAE59E1B1B796BE
:1000C000E5E3E453C63AE651997696E8E6C284261B
:1000D000EB898C9B62ED407C6FFCEFBC9C9F40F2F7
:1000E000BAA56FA5F490055A2AF75C936B6CF96773
:1000F0006DC11BFCE0E40D47FEF520E6B500D0ED38
:10010000902E0300943577050080841E080000209F
:100110004E0A000000C80C333333330F986E12833D
:100120001141EF8D2114893BE65516CFFEE6DB1811
:10013000D1844B381BF77C1D901DA4BBE4242032D6
:1001400084725E228100C9F124ECA1E53D271124CF
:100150001FBECFE5D8E0DEBFCDBF11E0A0E6B0E026
:10016000EAEAF1E302C005900D92A038B107D9F791
:1001700011E0A0E8B1E001C01D92A339B107E1F799
:100180000E94BD130C94D3180C940000EF92FF92C0
:100190000F931F937B018C0120E030E040E05FE48F
:1001A0000E94720488238CF0C801B70120E030E07F
:1001B00040E05FE40E943E020E9430059B01AC01DA
:1001C000205030404040504806C0C801B7010E944E
:1001D00030059B01AC01B901CA011F910F91FF903D
:1001E000EF900895A0E0B0E0E8EFF0E00C942F1657
:1001F000DC012B01FA019C91923008F439C1EB012A
:100200008881823008F433C1943069F4843009F075
:100210002FC111969C9111978981981709F428C1D3
:10022000A8E7B0E025C1843009F421C18230A9F4E7
:10023000923009F01DC19A01AD0188E0EA010990F0
:10024000AE01E90109929E018150C1F7E201898165
:1002500011969C918923818308C1923009F407C1CA
:1002600012962D903C901397EB018A819B811496F6
:10027000AD90BD90CD90DC901797EC80FD800E8105
:100280001F819101281B390BB90137FF04C0662774
:100290007727621B730B603271050CF061C0121678
:1002A00013066CF537014801062E04C09694879416
:1002B000779467940A94D2F721E030E040E050E070
:1002C00004C0220F331F441F551F6A95D2F72150D7
:1002D0003040404050402E213F21402351232115E2
:1002E00031054105510521F021E030E040E050E0CA
:1002F00079018A01E628F728082919293CC0232B0F
:10030000D1F1260E371E35014601062E04C0969403
:100310008794779467940A94D2F721E030E040E024
:1003200050E004C0220F331F441F551F6A95D2F7B7
:1003300021503040404050402A213B214C215D213A
:10034000211531054105510521F021E030E040E063
:1003500050E059016A01A628B728C828D9280BC03F
:10036000821593052CF01C01AA24BB24650103C04F
:10037000EE24FF24870111969C91D20111968C9155
:10038000981709F445C0992339F0A80197012A1953
:100390003B094C095D0906C0A60195012E193F09CC
:1003A000400B510B57FD08C01182338222822483F7
:1003B0003583468357831DC081E081833382228247
:1003C00088279927DC01821B930BA40BB50B848330
:1003D0009583A683B7830DC0220F331F441F551F7B
:1003E0002483358346835783828193810197938346
:1003F00082832481358146815781DA01C9010197C1
:10040000A109B1098F5F9F4FAF4FBF4328F30BC0C6
:10041000918333822282EA0CFB1C0C1D1D1DE48299
:10042000F5820683178383E08083248135814681AA
:10043000578157FF1AC0C901AA2797FDA095BA2F67
:1004400081709070A070B07056954795379527953C
:10045000822B932BA42BB52B84839583A683B78300
:1004600082819381019693838283DF0101C0D2014F
:10047000CD01CDB7DEB7E2E10C944B16A0E2B0E0BF
:10048000E4E4F2E00C943B1669837A838B839C83CB
:100490002D833E834F835887E9E0EE2EF12CEC0E3E
:1004A000FD1ECE010196B7010E94A8068E010F5EC7
:1004B0001F4FCE010596B8010E94A8068A8991E0D7
:1004C00089278A8BC701B801AE01475E5F4F0E9442
:1004D000F2000E94D305A096E6E00C945716A0E225
:1004E000B0E0E5E7F2E00C943B1669837A838B83F6
:1004F0009C832D833E834F835887F9E0EF2EF12CA8
:10050000EC0EFD1ECE010196B7010E94A8068E01D9
:100510000F5E1F4FCE010596B8010E94A806C701C5
:10052000B801AE01475E5F4F0E94F2000E94D30502
:10053000A096E6E00C945716A0E2B0E0E2EAF2E002
:100540000C942F1669837A838B839C832D833E833F
:100550004F835887CE010196BE01675F7F4F0E948F
:10056000A806CE010596BE016F5E7F4F0E94A806C9
:100570009985923088F089898230C8F0943019F4D6
:10058000823051F404C0843029F4923081F488E739
:1005900090E0C6C0923049F420E09A858A89981389
:1005A00021E02A87CE010996BBC0823049F420E0C1
:1005B0009A858A89981321E02A8BCE014196B0C092
:1005C0002D843E844F8458886D887E888F88988CCF
:1005D000EE24FF248701AA24BB24650140E050E0FB
:1005E00060E070E0E0E0F0E0C10181709070892B84
:1005F000E9F0E60CF71C081D191D9A01AB012A0D44
:100600003B1D4C1D5D1D80E090E0A0E0B0E0E614D5
:10061000F7040805190520F481E090E0A0E0B0E0BF
:10062000BA01A901480F591F6A1F7B1FAA0CBB1CE6
:10063000CC1CDD1C97FE08C081E090E0A0E0B0E09B
:10064000A82AB92ACA2ADB2A3196E032F10549F0F4
:10065000660C771C881C991C5694479437942794F1
:10066000C3CFFA85EA892B893C898B859C85280F25
:10067000391F2E5F3F4F17C0CA0181709070892BC0
:1006800061F016950795F794E79480E090E0A0E07C
:10069000B0E8E82AF92A0A2B1B2B7695679557951F
:1006A00047952F5F3F4F77FDE7CF0CC0440F551F95
:1006B000661F771F17FD4160EE0CFF1C001F111F06
:1006C00021503040403090E0590790E0690790E4B5
:1006D000790760F32B8F3C8FDB01CA018F77907015
:1006E000A070B07080349105A105B10561F447FD9B
:1006F0000AC0E114F1040105110529F0405C5F4FC7
:100700006F4F7F4F40781A8EFE1711F081E08A8F6D
:100710004D8F5E8F6F8F78A383E0898FCE014996CE
:100720000E94D305A096E2E10C944B16A8E1B0E03C
:10073000ECE9F3E00C94371669837A838B839C830E
:100740002D833E834F835887B9E0EB2EF12CEC0EBE
:10075000FD1ECE010196B7010E94A8068E010F5E14
:100760001F4FCE010596B8010E94A80629852230A8
:1007700008F47EC03989323010F4B8017CC08A8513
:100780009A8989278A87243011F0223031F423177F
:1007900009F06EC068E770E06EC0343039F41D8631
:1007A0001E861F86188A1C861B8604C0323021F4E0
:1007B00084E08987B7015FC02B853C858B899C8944
:1007C000281B390B3C872B87ED84FE840F85188905
:1007D000AD88BE88CF88D88CEA14FB040C051D05B3
:1007E00040F4EE0CFF1C001F111F215030403C87CD
:1007F0002B8720E030E040E050E080E090E0A0E097
:10080000B0E460E070E0EA14FB040C051D0540F064
:10081000282B392B4A2B5B2BEA18FB080C091D09E6
:10082000B695A79597958795EE0CFF1C001F111F95
:100830006F5F7F4F6F31710531F7DA01C9018F7733
:100840009070A070B07080349105A105B10561F47D
:1008500027FD0AC0E114F1040105110529F0205C0F
:100860003F4F4F4F5F4F20782D873E874F87588BE4
:10087000BE01675F7F4FCB010E94D3056896EAE017
:100880000C945316A8E1B0E0E8E4F4E00C943B16B5
:1008900069837A838B839C832D833E834F83588720
:1008A00089E0E82EF12CEC0EFD1ECE010196B70179
:1008B0000E94A8068E010F5E1F4FCE010596B8015B
:1008C0000E94A8068985823040F08989823028F00C
:1008D000C701B8010E94200701C08FEF6896E6E0CB
:1008E0000C945716A8E1B0E0E8E7F4E00C943B164E
:1008F00069837A838B839C832D833E834F835887C0
:1009000089E0E82EF12CEC0EFD1ECE010196B70118
:100910000E94A8068E010F5E1F4FCE010596B801FA
:100920000E94A8068985823040F08989823028F0AB
:10093000C701B8010E94200701C08FEF6896E6E06A
:100940000C945716A8E1B0E0E8EAF4E00C943B16EA
:1009500069837A838B839C832D833E834F8358875F
:1009600089E0E82EF12CEC0EFD1ECE010196B701B8
:100970000E94A8068E010F5E1F4FCE010596B8019A
:100980000E94A8068985823040F08989823028F04B
:10099000C701B8010E94200701C081E06896E6E027
:1009A0000C945716A8E0B0E0E8EDF4E00C9438168B
:1009B0009B01AC0183E08983DA01C9018827B7FD77
:1009C00083959927AA27BB27B82E21153105410504
:1009D000510519F482E089833AC08823A9F02030B8
:1009E00080E0380780E0480780E8580729F460E095
:1009F00070E080E09FEC30C0EE24FF248701E21A13
:100A0000F30A040B150B02C079018A018EE1C82E8E
:100A1000D12CDC82CB82ED82FE820F831887C80145
:100A2000B7010E94840501971816190684F4082E50
:100A300004C0EE0CFF1C001F111F0A94D2F7ED82B8
:100A4000FE820F831887C81AD90ADC82CB82BA8249
:100A5000CE0101960E94D3052896E9E00C94541625
:100A6000ACE0B0E0E6E3F5E00C943F1669837A83EE
:100A70008B839C83CE010196BE016B5F7F4F0E94EA
:100A8000A8068D81823061F1823050F1843021F4EA
:100A90008E81882351F12EC02F81388537FD20C0EB
:100AA0006E812F3131051CF06623F9F023C08EE1F1
:100AB00090E0821B930B29853A854B855C8504C0A9
:100AC00056954795379527958A95D2F76623B1F0C5
:100AD00050954095309521953F4F4F4F5F4F0EC039
:100AE00020E030E040E050E009C02FEF3FEF4FEF53
:100AF0005FE704C020E030E040E050E8B901CA01FF
:100B00002C96E2E00C945B16EF92FF920F931F93EA
:100B10007B018C0180E0E81680E0F80681E00807A0
:100B200080E0180788F48FEFE816F104010511053D
:100B300031F028F088E090E0A0E0B0E017C080E05D
:100B400090E0A0E0B0E012C080E0E81680E0F80697
:100B500080E0080781E0180728F088E190E0A0E035
:100B6000B0E004C080E190E0A0E0B0E020E230E03E
:100B700040E050E0281B390B4A0B5B0B04C0169574
:100B80000795F794E7948A95D2F7F701E058FF4F5D
:100B90008081281B310941095109C9011F910F9119
:100BA000FF90EF900895DF92EF92FF920F931F93C3
:100BB000FC01E480F58006811781D180808182303C
:100BC00048F480E090E0A0E1B0E0E82AF92A0A2B9E
:100BD0001B2BA5C0843009F49FC0823021F4EE2481
:100BE000FF24870105C0E114F1040105110519F482
:100BF000E0E0F0E096C0628173819FEF6238790790
:100C00000CF05BC022E83FEF261B370B2A31310581
:100C10002CF020E030E040E050E02AC0B801A7010D
:100C2000022E04C076956795579547950A94D2F79A
:100C300081E090E0A0E0B0E004C0880F991FAA1FF7
:100C4000BB1F2A95D2F70197A109B1098E219F21D7
:100C5000A023B1230097A105B10521F081E090E028
:100C6000A0E0B0E09A01AB01282B392B4A2B5B2B7B
:100C7000DA01C9018F779070A070B070803491054F
:100C8000A105B10539F427FF09C0205C3F4F4F4F44
:100C90005F4F04C0215C3F4F4F4F5F4FE0E0F0E0FB
:100CA0002030A0E03A07A0E04A07A0E45A0710F07D
:100CB000E1E0F0E079018A0127C06038710564F550
:100CC000FB01E158FF4FD801C7018F779070A070EA
:100CD000B07080349105A105B10539F4E7FE0DC06F
:100CE00080E490E0A0E0B0E004C08FE390E0A0E0FA
:100CF000B0E0E80EF91E0A1F1B1F17FF05C016956E
:100D00000795F794E794319687E016950795F79441
:100D1000E7948A95D1F705C0EE24FF248701EFEF11
:100D2000F0E06E2F679566276795902F9F77D79491
:100D3000DD24D7948E2F8695492F462B582F5D2979
:100D4000B701CA011F910F91FF90EF90DF900895B6
:100D5000FC01DB01408151812281622F6F7770E0BD
:100D6000221F2227221F9381892F880F822B282F51
:100D700030E0991F9927991F11969C93119721157F
:100D80003105A9F5411551056105710511F482E0A0
:100D900037C082E89FEF13969C938E9312979A0127
:100DA000AB0167E0220F331F441F551F6A95D1F72F
:100DB00083E08C930DC0220F331F441F551F1296E2
:100DC0008D919C911397019713969C938E931297F4
:100DD000203080E0380780E0480780E4580758F367
:100DE00014962D933D934D935C93179708952F3F41
:100DF000310579F4411551056105710519F484E057
:100E00008C93089564FF03C081E08C9312C01C9200
:100E100010C02F57304013963C932E93129783E0C7
:100E20008C9387E0440F551F661F771F8A95D1F773
:100E3000706414964D935D936D937C93179708950A
:100E40001F93DC01FB019C91923008F447C0808124
:100E5000823008F443C0943051F411961C918430D0
:100E600099F58181682F70E0611B71093FC0843062
:100E700021F0923031F48230B9F18181882389F1F7
:100E80002DC011961C9111978230F1F081811817B5
:100E9000D9F412962D913C911397828193818217F8
:100EA000930794F028173907BCF014968D919D9103
:100EB0000D90BC91A02D2481358146815781281742
:100EC00039074A075B0718F4112341F00AC082175B
:100ED0009307A407B50740F4112319F061E070E00F
:100EE00005C06FEF7FEF02C060E070E0CB011F91A3
:100EF0000895DF93CF93CDB7DEB727970FB6F89459
:100F0000DEBF0FBECDBF89836A834B838B81813067
:100F100009F06FC08981282F30E03F832E838E81B6
:100F20009F818130910549F12E813F812230310529
:100F30002CF48E819F81009761F0D2C02E813F8179
:100F40002230310571F18E819F8183309105E9F165
:100F5000C7C0AAE3B0E0EAE3F0E08081482F8A81CD
:100F6000282F30E081E090E0022E02C0880F991F08
:100F70000A94E2F7842B8C93B3C0A7E3B0E0E7E3D5
:100F8000F0E08081482F8A81282F30E081E090E0D6
:100F9000022E02C0880F991F0A94E2F7842B8C93CB
:100FA0009FC0A4E3B0E0E4E3F0E08081482F8A81B1
:100FB000282F30E081E090E0022E02C0880F991FB8
:100FC0000A94E2F7842B8C938BC0A1E3B0E0E1E3B9
:100FD000F0E08081482F8A81282F30E081E090E086
:100FE000022E02C0880F991F0A94E2F7842B8C937B
:100FF00077C08B81882309F073C08981282F30E066
:101000003D832C838C819D818130910559F12C8108
:101010003D81223031052CF48C819D81009769F04F
:101020005FC02C813D812230310589F18C819D8109
:101030008330910509F440C053C0AAE3B0E0EAE36D
:10104000F0E08081482F8A81282F30E081E090E015
:10105000022E02C0880F991F0A94E2F7809584231C
:101060008C933EC0A7E3B0E0E7E3F0E08081482F37
:101070008A81282F30E081E090E0022E02C0880FA4
:10108000991F0A94E2F7809584238C9329C0A4E3E6
:10109000B0E0E4E3F0E08081482F8A81282F30E03F
:1010A00081E090E0022E02C0880F991F0A94E2F7B7
:1010B000809584238C9314C0A1E3B0E0E1E3F0E0D9
:1010C0008081482F8A81282F30E081E090E0022E35
:1010D00002C0880F991F0A94E2F7809584238C93AD
:1010E00027960FB6F894DEBF0FBECDBFCF91DF912C
:1010F0000895DF93CF93CDB7DEB727970FB6F89457
:10110000DEBF0FBECDBF89836A834B838B81813065
:1011100009F06FC08981282F30E03F832E838E81B4
:101120009F818130910549F12E813F812230310527
:101130002CF48E819F81009761F0D2C02E813F8177
:101140002230310571F18E819F8183309105E9F163
:10115000C7C0ABE3B0E0EBE3F0E08081482F8A81C9
:10116000282F30E081E090E0022E02C0880F991F06
:101170000A94E2F7842B8C93B3C0A8E3B0E0E8E3D1
:10118000F0E08081482F8A81282F30E081E090E0D4
:10119000022E02C0880F991F0A94E2F7842B8C93C9
:1011A0009FC0A5E3B0E0E5E3F0E08081482F8A81AD
:1011B000282F30E081E090E0022E02C0880F991FB6
:1011C0000A94E2F7842B8C938BC0A2E3B0E0E2E3B5
:1011D000F0E08081482F8A81282F30E081E090E084
:1011E000022E02C0880F991F0A94E2F7842B8C9379
:1011F00077C08B81882309F073C08981282F30E064
:101200003D832C838C819D818130910559F12C8106
:101210003D81223031052CF48C819D81009769F04D
:101220005FC02C813D812230310589F18C819D8107
:101230008330910509F440C053C0ABE3B0E0EBE369
:10124000F0E08081482F8A81282F30E081E090E013
:10125000022E02C0880F991F0A94E2F7809584231A
:101260008C933EC0A8E3B0E0E8E3F0E08081482F33
:101270008A81282F30E081E090E0022E02C0880FA2
:10128000991F0A94E2F7809584238C9329C0A5E3E3
:10129000B0E0E5E3F0E08081482F8A81282F30E03C
:1012A00081E090E0022E02C0880F991F0A94E2F7B5
:1012B000809584238C9314C0A2E3B0E0E2E3F0E0D5
:1012C0008081482F8A81282F30E081E090E0022E33
:1012D00002C0880F991F0A94E2F7809584238C93AB
:1012E00027960FB6F894DEBF0FBECDBFCF91DF912A
:1012F0000895DF93CF9300D000D00F92CDB7DEB723
:101300008A836B8319828A81282F30E03D832C8366
:101310004C815D814130510541F18C819D8182304C
:10132000910534F42C813D812115310561F052C0C5
:101330004C815D814230510551F18C819D8183301A
:101340009105B9F147C0E9E3F0E08081282F30E052
:101350008B81882F90E0A90102C0559547958A9509
:10136000E2F7CA018170898335C0E6E3F0E080814D
:10137000282F30E08B81882F90E0A90102C055957D
:1013800047958A95E2F7CA018170898323C0E3E318
:10139000F0E08081282F30E08B81882F90E0A90138
:1013A00002C0559547958A95E2F7CA0181708983F5
:1013B00011C0E0E3F0E08081282F30E08B81882F9E
:1013C00090E0A90102C0559547958A95E2F7CA01B8
:1013D0008170898389810F900F900F900F900F90EB
:1013E000CF91DF910895DF93CF9300D000D000D04C
:1013F000CDB7DEB789836A838A81813099F5898187
:10140000282F30E03E832D838D819E818130910590
:10141000D1F02D813E81223031052CF48D819E81C9
:10142000009761F050C02D813E812230310581F05E
:101430008D819E818330910581F045C0EAE3F0E023
:101440008FEF808340C0E7E3F0E08FEF80833BC005
:10145000E4E3F0E08FEF808336C0E1E3F0E08FEF6C
:10146000808331C08A81882371F58981282F30E0FB
:101470003C832B838B819C8181309105C9F02B812A
:101480003C81223031052CF48B819C81009761F0E6
:101490001AC02B813C812230310571F08B819C81F7
:1014A0008330910569F00FC0EAE3F0E010820BC0D1
:1014B000E7E3F0E0108207C0E4E3F0E0108203C04D
:1014C000E1E3F0E0108226960FB6F894DEBF0FBE7F
:1014D000CDBFCF91DF910895DF93CF9300D000D09F
:1014E000CDB7DEB789836A838981282F30E03C83BA
:1014F0002B838B819C8181309105D1F02B813C81A4
:10150000223031052CF48B819C81009761F01EC044
:101510002B813C812230310581F08B819C8183308D
:10152000910581F013C0EBE3F0E08A8180830EC067
:10153000E8E3F0E08A81808309C0E5E3F0E08A8196
:10154000808304C0E2E3F0E08A8180830F900F90F3
:101550000F900F90CF91DF910895DF93CF9300D03C
:1015600000D0CDB7DEB789836A838981282F30E028
:101570003C832B838B819C818130910549F12B81A8
:101580003C81223031052CF48B819C81009761F0E5
:101590005AC02B813C812230310571F18B819C81B5
:1015A00083309105E9F14FC0ABE3B0E0EBE3F0E04D
:1015B0008081482F8A81282F30E081E090E0022E40
:1015C00002C0880F991F0A94E2F784278C933BC0CE
:1015D000A8E3B0E0E8E3F0E08081482F8A81282F7B
:1015E00030E081E090E0022E02C0880F991F0A943B
:1015F000E2F784278C9327C0A5E3B0E0E5E3F0E0B1
:101600008081482F8A81282F30E081E090E0022EEF
:1016100002C0880F991F0A94E2F784278C9313C0A5
:10162000A2E3B0E0E2E3F0E08081482F8A81282F36
:1016300030E081E090E0022E02C0880F991F0A94EA
:10164000E2F784278C930F900F900F900F90CF911B
:10165000DF910895DF93CF9300D000D0CDB7DEB7F0
:101660008A8319828A81282F30E03C832B838B81E7
:101670009C8181309105D1F02B813C812230310554
:101680002CF48B819C81009761F01EC02B813C81E2
:101690002230310581F08B819C818330910581F06E
:1016A00013C0E9E3F0E0808189830EC0E6E3F0E057
:1016B0008081898309C0E3E3F0E08081898304C0ED
:1016C000E0E3F0E08081898389810F900F900F9093
:1016D0000F90CF91DF9108950F931F93DF93CF93D6
:1016E000CDB7DEB7C654D0400FB6F894DEBF0FBEFC
:1016F000CDBF83E060E041E00E94790783E061E0D4
:1017000041E00E94790783E062E041E00E947907AE
:10171000FE01ED5BFF4F80E090E0A0E2B2E4808349
:101720009183A283B3838E01015C1F4FFE01ED5BA9
:10173000FF4F608171818281938120E030E04AEF28
:1017400054E40E949C02DC01CB01F8018083918368
:10175000A283B383FE01FF966081718182819381B0
:1017600020E030E040E85FE30E94A20488232CF4EC
:1017700081E090E09EAF8DAF46C0FE01FF96608194
:1017800071818281938120E03FEF4FE757E40E940F
:101790004204181664F5FE01ED5BFF4F6081718114
:1017A0008281938120E030E040E251E40E949C027B
:1017B000DC01CB01BC01CD010E94C600DC01CB01E4
:1017C0009EAF8DAF0FC088EC90E09CAF8BAF8BAD20
:1017D0009CAD0197F1F79CAF8BAF8DAD9EAD01979E
:1017E0009EAF8DAF8DAD9EAD009769F716C0FE011F
:1017F000FF9660817181828193810E94C600DC0125
:10180000CB019EAF8DAF8DAD9EAD9AAF89AF89AD47
:101810009AAD0197F1F79AAF89AF82E061E00E943B
:10182000F30988E30E94E50F80E090E0A0E8BFE3C1
:101830008DAB9EABAFABB8AF6DA97EA98FA998ADAC
:1018400020E030E04AEF54E40E949C02DC01CB012E
:1018500089AB9AABABABBCAB69A97AA98BA99CA9A4
:1018600020E030E040E85FE30E94A20488232CF4EB
:1018700081E090E098AB8FA73FC069A97AA98BA9B6
:101880009CA920E03FEF4FE757E40E94420418165E
:101890004CF56DA97EA98FA998AD20E030E040E21B
:1018A00051E40E949C02DC01CB01BC01CD010E94ED
:1018B000C600DC01CB0198AB8FA70FC088EC90E08D
:1018C0009EA78DA78DA59EA50197F1F79EA78DA731
:1018D0008FA598A9019798AB8FA78FA598A9009776
:1018E00069F714C069A97AA98BA99CA90E94C600AE
:1018F000DC01CB0198AB8FA78FA598A99CA78BA7DC
:101900008BA59CA50197F1F79CA78BA78FE00E9460
:10191000E50F80E090E0A0E8BFE38FA398A7A9A718
:10192000BAA76FA178A589A59AA520E030E04AEF73
:1019300054E40E949C02DC01CB018BA39CA3ADA3C9
:10194000BEA36BA17CA18DA19EA120E030E040E868
:101950005FE30E94A20488232CF481E090E09AA324
:1019600089A33FC06BA17CA18DA19EA120E03FEF88
:101970004FE757E40E94420418164CF56FA178A572
:1019800089A59AA520E030E040E251E40E949C0243
:10199000DC01CB01BC01CD010E94C600DC01CB0102
:1019A0009AA389A30FC088EC90E098A38F8F8F8DA6
:1019B00098A10197F1F798A38F8F89A19AA1019718
:1019C0009AA389A389A19AA1009769F714C06BA172
:1019D0007CA18DA19EA10E94C600DC01CB019AA32F
:1019E00089A389A19AA19E8F8D8F8D8D9E8D019740
:1019F000F1F79E8F8D8F81E00E94E50F80E090E0EF
:101A0000A0E0B0E4898F9A8FAB8FBC8F698D7A8DFF
:101A10008B8D9C8D20E030E04AEF54E40E949C02C4
:101A2000DC01CB018D8B9E8BAF8BB88F6D897E894E
:101A30008F89988D20E030E040E85FE30E94A204A7
:101A400088232CF481E090E09C8B8B8B3FC06D89C8
:101A50007E898F89988D20E03FEF4FE757E40E9401
:101A6000420418164CF5698D7A8D8B8D9C8D20E083
:101A700030E040E251E40E949C02DC01CB01BC0159
:101A8000CD010E94C600DC01CB019C8B8B8B0FC06B
:101A900088EC90E09A8B898B89899A890197F1F774
:101AA0009A8B898B8B899C8901979C8B8B8B8B89DB
:101AB0009C89009769F714C06D897E898F89988DFC
:101AC0000E94C600DC01CB019C8B8B8B8B899C898F
:101AD000988B8F878F8598890197F1F7988B8F87DF
:101AE00086E00E94E50F80E090E0A0E8BFE38B87EE
:101AF0009C87AD87BE876B857C858D859E8520E024
:101B000030E04AEF54E40E949C02DC01CB018F8359
:101B10009887A987BA876F81788589859A8520E01B
:101B200030E040E85FE30E94A20488232CF481E0C7
:101B300090E09E838D833FC06F81788589859A85EB
:101B400020E03FEF4FE757E40E94420418164CF59F
:101B50006B857C858D859E8520E030E040E251E4F8
:101B60000E949C02DC01CB01BC01CD010E94C60099
:101B7000DC01CB019E838D830FC088EC90E09C83B9
:101B80008B838B819C810197F1F79C838B838D8163
:101B90009E8101979E838D838D819E81009769F739
:101BA00014C06F81788589859A850E94C600DC0102
:101BB000CB019E838D838D819E819A8389838981C8
:101BC0009A810197F1F79A838983CA5BDF4F0FB639
:101BD000F894DEBF0FBECDBFCF91DF911F910F9163
:101BE0000895DF93CF93CDB7DEB7E9970FB6F8949A
:101BF000DEBF0FBECDBF89AF83E060E041E00E9451
:101C0000790883E061E040E00E94790880E090E09C
:101C1000A0E8BFE38DAB9EABAFABB8AF6DA97EA91B
:101C20008FA998AD20E030E04AEF54E40E949C0276
:101C3000DC01CB0189AB9AABABABBCAB69A97AA990
:101C40008BA99CA920E030E040E85FE30E94A20459
:101C500088232CF481E090E098AB8FA73FC069A95E
:101C60007AA98BA99CA920E03FEF4FE757E40E9497
:101C7000420418164CF56DA97EA98FA998AD20E0F5
:101C800030E040E251E40E949C02DC01CB01BC0147
:101C9000CD010E94C600DC01CB0198AB8FA70FC01D
:101CA00088EC90E09EA78DA78DA59EA50197F1F7E2
:101CB0009EA78DA78FA598A9019798AB8FA78FA5F1
:101CC00098A9009769F714C069A97AA98BA99CA95A
:101CD0000E94C600DC01CB0198AB8FA78FA598A905
:101CE0009CA78BA78BA59CA50197F1F79CA78BA719
:101CF00082E069AD0E946C0A80E090E0A0E8BFE35A
:101D00008FA398A7A9A7BAA76FA178A589A59AA517
:101D100020E030E04AEF54E40E949C02DC01CB0159
:101D20008BA39CA3ADA3BEA36BA17CA18DA19EA1FF
:101D300020E030E040E85FE30E94A20488232CF416
:101D400081E090E09AA389A33FC06BA17CA18DA103
:101D50009EA120E03FEF4FE757E40E94420418168F
:101D60004CF56FA178A589A59AA520E030E040E266
:101D700051E40E949C02DC01CB01BC01CD010E9418
:101D8000C600DC01CB019AA389A30FC088EC90E0C8
:101D900098A38F8F8F8D98A10197F1F798A38F8FBC
:101DA00089A19AA101979AA389A389A19AA10097D1
:101DB00069F714C06BA17CA18DA19EA10E94C600F1
:101DC000DC01CB019AA389A389A19AA19E8F8D8F53
:101DD0008D8D9E8D0197F1F79E8F8D8F83E062E050
:101DE00041E00E94790880E090E0A0E8BFE3898F9D
:101DF0009A8FAB8FBC8F698D7A8D8B8D9C8D20E0F7
:101E000030E04AEF54E40E949C02DC01CB018D8B50
:101E10009E8BAF8BB88F6D897E898F89988D20E0DE
:101E200030E040E85FE30E94A20488232CF481E0C4
:101E300090E09C8B8B8B3FC06D897E898F89988DBC
:101E400020E03FEF4FE757E40E94420418164CF59C
:101E5000698D7A8D8B8D9C8D20E030E040E251E4DD
:101E60000E949C02DC01CB01BC01CD010E94C60096
:101E7000DC01CB019C8B8B8B0FC088EC90E09A8BA4
:101E8000898B89899A890197F1F79A8B898B8B893C
:101E90009C8901979C8B8B8B8B899C89009769F718
:101EA00014C06D897E898F89988D0E94C600DC01DF
:101EB000CB019C8B8B8B8B899C89988B8F878F8593
:101EC00098890197F1F7988B8F8783E062E040E073
:101ED0000E94790880E090E0A0E8BFE38B879C87B0
:101EE000AD87BE876B857C858D859E8520E030E043
:101EF0004AEF54E40E949C02DC01CB018F83988757
:101F0000A987BA876F81788589859A8520E030E036
:101F100040E85FE30E94A20488232CF481E090E073
:101F20009E838D833FC06F81788589859A8520E067
:101F30003FEF4FE757E40E94420418164CF56B85BB
:101F40007C858D859E8520E030E040E251E40E9452
:101F50009C02DC01CB01BC01CD010E94C600DC016A
:101F6000CB019E838D830FC088EC90E09C838B8394
:101F70008B819C810197F1F79C838B838D819E815E
:101F800001979E838D838D819E81009769F714C090
:101F90006F81788589859A850E94C600DC01CB0116
:101FA0009E838D838D819E819A83898389819A8185
:101FB0000197F1F79A838983E9960FB6F894DEBF0B
:101FC0000FBECDBFCF91DF910895DF93CF93CDB7F3
:101FD000DEB76D970FB6F894DEBF0FBECDBF8D8F05
:101FE00083E060E040E00E94790883E061E040E047
:101FF0000E94790882E06D8D0E946C0A83E062E0A5
:1020000041E00E94790880E090E0A0E8BFE3898F7A
:102010009A8FAB8FBC8F698D7A8D8B8D9C8D20E0D4
:1020200030E04AEF54E40E949C02DC01CB018D8B2E
:102030009E8BAF8BB88F6D897E898F89988D20E0BC
:1020400030E040E85FE30E94A20488232CF481E0A2
:1020500090E09C8B8B8B3FC06D897E898F89988D9A
:1020600020E03FEF4FE757E40E94420418164CF57A
:10207000698D7A8D8B8D9C8D20E030E040E251E4BB
:102080000E949C02DC01CB01BC01CD010E94C60074
:10209000DC01CB019C8B8B8B0FC088EC90E09A8B82
:1020A000898B89899A890197F1F79A8B898B8B891A
:1020B0009C8901979C8B8B8B8B899C89009769F7F6
:1020C00014C06D897E898F89988D0E94C600DC01BD
:1020D000CB019C8B8B8B8B899C89988B8F878F8571
:1020E00098890197F1F7988B8F8783E062E040E051
:1020F0000E9479088D8D813009F072C080E090E0F7
:10210000A0E0B0E48B879C87AD87BE876B857C851C
:102110008D859E8520E030E04AEF54E40E949C02C9
:10212000DC01CB018F839887A987BA876F81788577
:1021300089859A8520E030E040E85FE30E94A204B0
:1021400088232CF481E090E09E838D833FC06F81D3
:10215000788589859A8520E03FEF4FE757E40E9414
:10216000420418164CF56B857C858D859E8520E094
:1021700030E040E251E40E949C02DC01CB01BC0152
:10218000CD010E94C600DC01CB019E838D830FC070
:1021900088EC90E09C838B838B819C810197F1F785
:1021A0009C838B838D819E8101979E838D838D81FE
:1021B0009E81009769F714C06F81788589859A851B
:1021C0000E94C600DC01CB019E838D838D819E81A0
:1021D0009A83898389819A810197F1F79A83898308
:1021E0006D960FB6F894DEBF0FBECDBFCF91DF91D5
:1021F0000895DF93CF9300D00F92CDB7DEB79B83C6
:102200008A8319820EC08981282F30E08A819B81C0
:10221000FC01E20FF31F80810E94F10D89818F5F25
:1022200089838981282F30E08A819B81FC01E20F1C
:10223000F31F8081882339F70F900F900F90CF9173
:10224000DF910895DF93CF93CDB7DEB72A970FB60E
:10225000F894DEBF0FBECDBF98878F838F8198859E
:10226000009719F480E30E94F10D19821FC0898143
:10227000E82FFF27E7FDF0958F8198852AE030E071
:10228000B9010E941B16282FCE010296E80FF91FF4
:1022900020838F8198852AE030E0B9010E941B16C7
:1022A000CB0198878F8389818F5F89838F81988500
:1022B0000097E9F68981815089837EC08981282F22
:1022C000332727FD3095CE010296FC01E20FF31F64
:1022D0008081282F30E03A87298789859A85843044
:1022E000910509F44FC029853A8525303105D4F48C
:1022F00089859A8581309105C9F129853A852230F1
:1023000031052CF489859A85009761F152C02985A1
:102310003A852230310571F189859A85833091059E
:1023200069F147C029853A8527303105B9F189859A
:102330009A85883091055CF429853A8525303105E8
:1023400029F189859A858630910521F132C0298548
:102350003A852830310531F189859A858930910592
:1023600029F127C080E30E94F10D23C081E30E9480
:10237000F10D1FC082E30E94F10D1BC083E30E9498
:10238000F10D17C084E30E94F10D13C085E30E9494
:10239000F10D0FC086E30E94F10D0BC087E30E9490
:1023A000F10D07C088E30E94F10D03C089E30E948C
:1023B000F10D898181508983898188230CF07ECF3A
:1023C0002A960FB6F894DEBF0FBECDBFCF91DF9136
:1023D0000895DF93CF9300D0CDB7DEB789836A83AA
:1023E0008981882321F48A8180580E94E50F8981A0
:1023F000813021F48A8180540E94E50F0F900F9064
:10240000CF91DF910895DF93CF93CDB7DEB781E011
:102410000E94E50FCF91DF910895DF93CF93CDB761
:10242000DEB78CE10E94E50FCF91DF910895DF9335
:10243000CF93CDB7DEB788E10E94E50FCF91DF9152
:102440000895DF93CF93CDB7DEB782E00E94E50F0A
:10245000CF91DF910895DF93CF93CDB7DEB7AEE490
:10246000B0E0EEE4F0E0808191819E7F11969C9334
:102470008E93AEE4B0E0EEE4F0E0808191819D7F48
:1024800011969C938E93AEE4B0E0EEE4F0E0808190
:102490009181877F11969C938E93AEE4B0E0EEE439
:1024A000F0E0808191818F7E11969C938E93A9E5B7
:1024B000B0E0E9E5F0E0808184608C93AEE4B0E0C8
:1024C000EEE4F0E080819181816011969C938E937F
:1024D000AEE4B0E0EEE4F0E0808191818D7F119672
:1024E0009C938E93AEE4B0E0EEE4F0E080819181C5
:1024F0008B7F11969C938E93AFE5B0E0EFE5F0E013
:10250000808180688C93CF91DF910895DF93CF9382
:10251000CDB7DEB7ECE4F0E08CED90E09183808302
:10252000CF91DF910895DF93CF9300D0CDB7DEB781
:102530009A838983EAE4F0E089819A819183808398
:102540000F900F90CF91DF910895DF93CF93CDB788
:10255000DEB783E067E040E00E947907A9E5B0E0DC
:10256000E9E5F0E0808180628C93AEE4B0E0EEE4D7
:10257000F0E080819181806411969C938E93CF913D
:10258000DF9108951F920F920FB60F921124EF92D0
:10259000FF920F931F932F933F934F935F936F93EC
:1025A0007F938F939F93AF93BF93EF93FF93DF93AB
:1025B000CF93CDB7DEB780918201882309F5E6E499
:1025C000F0E080819181CC01A0E0B0E080938701B0
:1025D00090938801A0938901B0938A0110928101A0
:1025E00010928001AEE4B0E0EEE4F0E080819181F1
:1025F0008F7B11969C938E9381E08093820189C09A
:1026000080918201813009F084C0E6E4F0E08081AD
:1026100091819C0140E050E0809180019091810186
:10262000CC01A0E0B0E0DC0199278827820F931F3E
:10263000A41FB51F80938F0190939001A0939101E7
:10264000B093920120918F013091900140919101BE
:10265000509192018091870190918801A091890108
:10266000B0918A0179018A01E81AF90A0A0B1B0B59
:10267000D801C70180938B0190938C01A0938D01A9
:10268000B0938E0180918B0190918C01A0918D016E
:10269000B0918E01BC01CD010E94D204DC01CB01BE
:1026A000BC01CD0129E23CE349EE53E40E949603CC
:1026B000DC01CB018093830190938401A093850179
:1026C000B09386018091830190918401A09185014E
:1026D000B0918601BC01CD0120E030E040E050E443
:1026E0000E946F02DC01CB018093830190938401EF
:1026F000A0938501B0938601AEE4B0E0EEE4F0E093
:1027000080819181806411969C938E9383E0809365
:102710008201CF91DF91FF91EF91BF91AF919F9196
:102720008F917F916F915F914F913F912F911F9169
:102730000F91FF90EF900F900FBE0F901F90189584
:102740001F920F920FB60F9211248F939F93DF93D6
:10275000CF93CDB7DEB78091800190918101019632
:102760009093810180938001CF91DF919F918F9110
:102770000F900FBE0F901F9018950F931F93DF932C
:10278000CF93CDB7DEB7C854D0400FB6F894DEBFB4
:102790000FBECDBF80E060E041E00E94790780E09D
:1027A00061E041E00E9479070E942B120E94A5126D
:1027B0000E946C0B80E065E041E00E94790880E0B7
:1027C00060E040E00E94790880E090E0A0EAB0E498
:1027D0008BAF9CAFADAFBEAF6BAD7CAD8DAD9EADE5
:1027E0002BEA3AEA4AE250E40E949C02DC01CB0167
:1027F0008FAB98AFA9AFBAAF6FA978AD89AD9AADDD
:1028000020E030E040E85FE30E94A20488231CF44B
:1028100081E08EAB91C06FA978AD89AD9AAD20E013
:1028200030E04FE753E40E94420418160CF07BC0DE
:102830006BAD7CAD8DAD9EAD20E030E04AE754E459
:102840000E949603DC01CB018AAB9BABACABBDAB6A
:102850006AA97BA98CA99DA920E030E04AEF54E445
:102860000E949C02DC01CB018EA79FA7A8ABB9AB4D
:102870006EA57FA588A999A920E030E040E85FE334
:102880000E94A20488232CF481E090E09DA78CA7ED
:102890003FC06EA57FA588A999A920E03FEF4FE72B
:1028A00057E40E94420418164CF56AA97BA98CA92A
:1028B0009DA920E030E040E251E40E949C02DC014E
:1028C000CB01BC01CD010E94C600DC01CB019DA75C
:1028D0008CA70FC088EC90E09BA78AA78AA59BA530
:1028E0000197F1F79BA78AA78CA59DA501979DA7A6
:1028F0008CA78CA59DA5009769F724C06EA57FA520
:1029000088A999A90E94C600DC01CB019DA78CA7CC
:102910008CA59DA599A788A788A599A50197F1F7EA
:1029200099A788A70FC06FA978AD89AD9AAD0E940D
:10293000C600DC01CB018EAB8EA98FA38FA18A9537
:10294000F1F78FA380E060E041E00E94790880E029
:1029500090E0A0E2B1E48BA39CA3ADA3BEA36BA1C6
:102960007CA18DA19EA12BEA3AEA4AE250E40E94A2
:102970009C02DC01CB018F8F98A3A9A3BAA36F8D12
:1029800078A189A19AA120E030E040E85FE30E94AD
:10299000A20488231CF481E08E8F91C06F8D78A1F2
:1029A00089A19AA120E030E04FE753E40E9442045D
:1029B00018160CF07BC06BA17CA18DA19EA120E01C
:1029C00030E04AE754E40E949603DC01CB018A8F91
:1029D0009B8FAC8FBD8F6A8D7B8D8C8D9D8D20E004
:1029E00030E04AEF54E40E949C02DC01CB018E8B64
:1029F0009F8BA88FB98F6E897F89888D998D20E0F4
:102A000030E040E85FE30E94A20488232CF481E0D8
:102A100090E09D8B8C8B3FC06E897F89888D998DCE
:102A200020E03FEF4FE757E40E94420418164CF5B0
:102A30006A8D7B8D8C8D9D8D20E030E040E251E4ED
:102A40000E949C02DC01CB01BC01CD010E94C600AA
:102A5000DC01CB019D8B8C8B0FC088EC90E09B8BB5
:102A60008A8B8A899B890197F1F79B8B8A8B8C894A
:102A70009D8901979D8B8C8B8C899D89009769F727
:102A800024C06E897F89888D998D0E94C600DC01E3
:102A9000CB019D8B8C8B8C899D89998B888B8889A8
:102AA00099890197F1F7998B888B0FC06F8D78A169
:102AB00089A19AA10E94C600DC01CB018E8F8E8D68
:102AC0008F878F858A95F1F78F8780E060E040E0FF
:102AD0000E94790880918201833009F06BCE0E94B8
:102AE000031280E060E00E94E91180E690E00E941D
:102AF000F91081E060E00E94E911809183019091DA
:102B00008401A0918501B0918601FE01FF96BC0170
:102B1000CD0142E022E08F010E9466168E01015C29
:102B20001F4FCE01CF960E949016800F911F2BE66B
:102B300030E0B90147E050E00E94871682E790E05C
:102B40000E94F910CE01CF960E94F91080E090E02B
:102B5000A8E4B3E48B879C87AD87BE876B857C85B3
:102B60008D859E8520E030E04AEF54E40E949C026F
:102B7000DC01CB018F839887A987BA876F8178851D
:102B800089859A8520E030E040E85FE30E94A20456
:102B900088232CF481E090E09E838D833FC06F8179
:102BA000788589859A8520E03FEF4FE757E40E94BA
:102BB000420418164CF56B857C858D859E8520E03A
:102BC00030E040E251E40E949C02DC01CB01BC01F8
:102BD000CD010E94C600DC01CB019E838D830FC016
:102BE00088EC90E09C838B838B819C810197F1F72B
:102BF0009C838B838D819E8101979E838D838D81A4
:102C00009E81009769F714C06F81788589859A85C0
:102C10000E94C600DC01CB019E838D838D819E8145
:102C20009A83898389819A810197F1F79A838983AD
:102C300010928201BFCDAA1BBB1B51E107C0AA1F86
:102C4000BB1FA617B70710F0A61BB70B881F991F4D
:102C50005A95A9F780959095BC01CD0108952F92C2
:102C60003F924F925F926F927F928F929F92AF921C
:102C7000BF92CF92DF92EF92FF920F931F93CF9369
:102C8000DF93CDB7DEB7CA1BDB0B0FB6F894DEBF00
:102C90000FBECDBF09942A88398848885F846E8426
:102CA0007D848C849B84AA84B984C884DF80EE8070
:102CB000FD800C811B81AA81B981CE0FD11D0FB679
:102CC000F894DEBF0FBECDBFED010895EF92FF92E5
:102CD0000F931F93F22FF02E47FD02C0E4E001C0D6
:102CE000E4E1242F332727FD309537FF03C03095CB
:102CF00021953F4F4F2D512F0F2FEE2E0E949916E9
:102D00008F2D912F1F910F91FF90EF900895FB0150
:102D1000DC0102C001900D9241505040D8F7089557
:102D2000FC0101900020E9F7809590958E0F9F1F80
:102D30000895A9E0B0E0EFE9F6E10C9433166A01DA
:102D4000122FA02EBE2C2BE3201718F42CE3922E6A
:102D500002C0902E9394AE014F5F5F4F27E0092D84
:102D60000E94FB17BC018981E82EFF24C7018970EE
:102D70009070019711F4ADE209C0B1FE02C0ABE260
:102D800005C0B0FC02C0A0E001C0A0E2E3FE3BC071
:102D9000AA2311F423E001C024E0211710F020E061
:102DA00002C0121B212FEB2CB4FE02C0322F0AC02E
:102DB000F601322F80E202C0819331503323E1F7D4
:102DC000C20ED11CAA2319F0F601A1936F01F601DE
:102DD0003196E2FE05C09EE4D6019C9381E404C0D6
:102DE0009EE6D6019C9381E611968C939183329650
:102DF000DF01832F90E202C09D9381508823E1F789
:102E0000E30FF11D40C0E2FE42C0AA2311F423E00B
:102E100001C024E0211710F020E002C0121B212F76
:102E2000EB2CB4FE02C0922F0AC0F601922F80E272
:102E300002C0819391509923E1F7C20ED11CAA23BD
:102E400019F0F601A1936F01F6013196E2FE08C078
:102E500089E4D6018C938EE411968C9386E407C0A6
:102E600089E6D6018C938EE611968C9386E6818353
:102E70003296DF01892F20E202C02D9381508823F2
:102E8000E1F7E90FF11D10822EEF3FEFAFC01616EC
:102E900017061CF041E050E003C0AB014F5F5F4FED
:102EA000AA2019F480E090E003C08A2D90E00196FA
:102EB00020E030E0AA2311F021E030E0240F351F9C
:102EC000280F391F812F90E02817390714F020E0D0
:102ED00002C0121B212F4B2D50E0CA01807190704F
:102EE000B4FC0DC0B3FC0BC0F601322F40E202C0AF
:102EF000419331503323E1F7C20ED11C01C0322F70
:102F0000AA2319F0F601A1936F01892B11F0132F59
:102F10000AC0F601132F80E302C0819311501123E0
:102F2000E1F7C30ED11C092D060FBA8090E1892E5E
:102F3000912C8E209F20E4FE04C0F1E3BF1609F41B
:102F40000150101614F001E003C0093008F008E049
:102F50009B0177FF02C020E030E0CB010196821B8D
:102F6000930BFE013196E80FF91F8EE2F82E3B011C
:102F7000601A71088A2D90E044275527481B590B89
:102F80008FEF2F3F380719F4D601FD926D016217BC
:102F900073072CF06216730614F4808101C080E37D
:102FA0002150304031962417350724F0D6018D93F7
:102FB0006D01E6CF2617370749F4B5E3BB1528F0B6
:102FC000BB1621F48114910409F481E3F601819385
:102FD000D601812F90E202C09C93815011968823E4
:102FE000D9F7E10FF11D108220E030E0C9012996E8
:102FF000EEE00C944F16283008F027E03327DA0172
:10300000990F311D87FD916000966105710539F4B6
:1030100032602E5F3D9330E32A95E1F708959F3F9C
:1030200030F080387105610509F03C5F3C5F3D93ED
:10303000913008F08068911DDF93CF931F930F9319
:10304000FF92EF92192F987F9695E92F9695969576
:10305000E90FFF27E255FF4F99273327EE24FF247E
:10306000A701E70105900894079428F4360FE71E9E
:10307000F81E491F511D660F771F881F991F069460
:10308000A1F70590079428F4E70EF81E491F561F74
:10309000C11D770F881F991F661F0694A1F7059021
:1030A000079428F4F80E491F561FC71FD11D880F1B
:1030B000991F661F771F0694A1F70590079420F4C7
:1030C000490F561FC71FD81F990F661F771F881FEC
:1030D0000694A9F784911095177041F0D695C7957D
:1030E00057954795F794E7941A95C1F7E4E5F0E012
:1030F00068941590159135916591959105907FE2B1
:103100007395E118F10A430B560BC90BD009C0F7B0
:10311000E10CF11E431F561FC91FD01D7EF47033F2
:1031200011F48A95E6CFE894015030F0080F0AF4C4
:103130000027021708F4202F2395022F7A3328F056
:1031400079E37D932A95E9F710C07D932A9589F656
:10315000069497956795379517951794E118F10A96
:10316000430B560BC90BD00998F023957E917395AC
:103170007A3308F070E37C932013B8F77E91706186
:103180007D9330F0839571E37D9370E32A95E1F7A9
:103190001124EF90FF900F911F91CF91DF9199270C
:0A31A00087FD90950895F894FFCF85
:1031AA00556C747261736F6E69630020636D2020C1
:1031BA002000446973743D00000000000000000014
:1031CA0000010202030303030404040404040404C4
:1031DA000505050505050505050505050505050595
:1031EA000606060606060606060606060606060675
:1031FA000606060606060606060606060606060665
:10320A000707070707070707070707070707070744
:10321A000707070707070707070707070707070734
:10322A000707070707070707070707070707070724
:10323A000707070707070707070707070707070714
:10324A0008080808080808080808080808080808F4
:10325A0008080808080808080808080808080808E4
:10326A0008080808080808080808080808080808D4
:10327A0008080808080808080808080808080808C4
:10328A0008080808080808080808080808080808B4
:10329A0008080808080808080808080808080808A4
:1032AA000808080808080808080808080808080894
:1032BA000808080808080808080808080808080884
:00000001FF
