:100000000C942A000C9447000C9447000C94470071
:100010000C9447000C9447000C9447000C94470044
:100020000C9447000C9447000C9447000C94470034
:100030000C9447000C9447000C9447000C94470024
:100040000C9447000C9447000C9447000C94470014
:100050000C94470011241FBECFE5D8E0DEBFCDBF12
:1000600010E0A0E6B0E0ECE5F9E002C005900D92EA
:10007000A238B107D9F710E0A2E8B0E001C01D92A4
:10008000AA39B107E1F70E945F030C94AC040C9409
:100090000000FF920F931F9300E080E5F82E83E0AD
:1000A00066E00E9482018823D1F38F2D8A95F1F7B3
:1000B00083E066E00E948201813019F4110F116023
:1000C00001C0110F83E066E00E9482018130D1F30C
:1000D0000F5F083021F7812F1F910F91FF90089536
:1000E00083E066E040E00E949C0083E066E00E94BE
:1000F00082018130D1F383E066E00E94820188238F
:10010000D1F383E066E00E9482018130D1F308954B
:1001100083E066E041E00E949C0083E066E040E00E
:100120000E940F0180E49CE90197F1F783E066E00B
:1001300041E00E940F0108954130B1F5813099F0FE
:10014000813030F08230D1F0833009F067C021C0B7
:100150002AB381E090E002C0880F991F6A95E2F708
:10016000282B2ABB089527B381E090E002C0880FB6
:10017000991F6A95E2F7282B27BB089524B381E0E5
:1001800090E002C0880F991F6A95E2F7282B24BBE4
:10019000089521B381E090E002C0880F991F6A950D
:1001A000E2F7282B21BB08954423C1F5813099F053
:1001B000813028F08230D9F0833081F524C02AB311
:1001C00081E090E002C0880F991F6A95E2F7809560
:1001D00082238ABB089527B381E090E002C0880F94
:1001E000991F6A95E2F78095822387BB089524B30F
:1001F00081E090E002C0880F991F6A95E2F7809530
:10020000822384BB089521B381E090E002C0880F6F
:10021000991F6A95E2F78095822381BB089541304A
:10022000B1F5813099F0813030F08230D1F08330F7
:1002300009F067C021C02BB381E090E002C0880FB5
:10024000991F6A95E2F7282B2BBB089528B381E00C
:1002500090E002C0880F991F6A95E2F7282B28BB0F
:10026000089525B381E090E002C0880F991F6A9538
:10027000E2F7282B25BB089522B381E090E002C06D
:10028000880F991F6A95E2F7282B22BB0895442313
:10029000C1F5813099F0813028F08230D9F0833077
:1002A00081F524C02BB381E090E002C0880F991F34
:1002B0006A95E2F7809582238BBB089528B381E08D
:1002C00090E002C0880F991F6A95E2F7809582231B
:1002D00088BB089525B381E090E002C0880F991F84
:1002E0006A95E2F78095822385BB089522B381E069
:1002F00090E002C0880F991F6A95E2F780958223EB
:1003000082BB0895813051F0813030F0823041F06D
:10031000833079F080E0089589B303C086B301C0CB
:1003200083B390E002C0959587956A95E2F7817056
:10033000089580B390E002C0959587956A95E2F79D
:10034000817008956130A9F4813051F0813028F036
:10035000823049F08330F9F409C08FEF8ABB0895E9
:100360008FEF87BB08958FEF84BB08958FEF81BB1C
:100370000895662381F4813049F0813028F082307D
:1003800039F0833041F406C01ABA089517BA0895B7
:1003900014BA089511BA0895813049F0813028F0D7
:1003A000823039F0833041F406C06BBB089568BBDE
:1003B000089565BB089562BB0895813091F0813046
:1003C00028F08230C9F0833061F521C02BB381E081
:1003D00090E002C0880F991F6A95E2F728272BBB8F
:1003E000089528B381E090E002C0880F991F6A95B4
:1003F000E2F7282728BB089525B381E090E002C0EA
:10040000880F991F6A95E2F7282725BB089522B324
:1004100081E090E002C0880F991F6A95E2F72827D3
:1004200022BB0895813051F0813030F0823041F0AC
:10043000833041F080E0089589B3089586B308952C
:1004400083B3089580B308951F93182F83E060E06D
:1004500040E00E940F0183E061E040E00E940F0154
:1004600082E0612F0E94CC0183E062E041E00E94C3
:100470000F0180ED97E00197F1F783E062E040E043
:100480000E940F01113021F480EA9FE00197F1F7FB
:100490001F91089582E00E942402089588E10E943D
:1004A000240208958CE10E942402089581E00E94B4
:1004B00024020895882329F4862F80580E9424025C
:1004C0000895813021F4862F80540E9424020895DB
:1004D000FF920F931F93F82E83E060E041E00E94AB
:1004E0000F0183E061E040E00E940F0100ED17E0A2
:1004F000C8010197F1F782E06F2D0E94CC01C8017D
:100500000197F1F783E062E041E00E940F01C8012A
:100510000197F1F783E062E040E00E940F01C8011B
:100520000197F1F71F910F91FF900895EF92FF92BD
:100530000F931F93DF93CF9300D000D00F92CDB7CE
:10054000DEB78C01009719F480E30E9468027E01F7
:100550000894E11CF11CF7010CC0C8016AE070E0CE
:100560000E9467048193C8016AE070E00E946704FA
:100570008B012E2F2E190115110579F72150822F8D
:10058000992787FD90952F5F8E010F5F1F4F080FF2
:10059000191F7801E21AF10834C0F8018081843013
:1005A00009F1853048F48130B9F0813098F082301B
:1005B000A9F0833021F514C08730D1F0883028F4B9
:1005C000853091F08630D9F411C0883099F08930A7
:1005D000B1F412C080E311C081E30FC082E30DC00B
:1005E00083E30BC084E309C085E307C086E305C04D
:1005F00087E303C088E301C089E30E9468020150D9
:1006000010400E151F0549F60F900F900F900F9098
:100610000F90CF91DF911F910F91FF90EF90089570
:100620001F93CF93DF93EC0110E003C00E94680298
:100630001F5FFE01E10FF11D80818823B9F7DF9173
:10064000CF911F9108950F931F9383E060E041E0E5
:100650000E949C0083E061E041E00E949C0083E0F6
:1006600062E041E00E949C0080E991E028EC30E0EB
:10067000F9013197F1F70197D9F782E061E00E9423
:10068000A20188E30E94240200ED17E0C80101974F
:10069000F1F78FE00E942402C8010197F1F781E091
:1006A0000E94240280EA9FE00197F1F786E00E9411
:1006B0002402C8010197F1F71F910F9108956F92DD
:1006C0007F928F929F92AF92BF92CF92DF92EF92E2
:1006D000FF920F931F93DF93CF9300D000D00F9220
:1006E000CDB7DEB70E9423030E94560280E060E08F
:1006F0000E945A0280E690E00E94100381E060E0D0
:100700000E945A028BE690E00E9410034E0108946A
:10071000811C911C80E2682E8EE4782E0E94880055
:100720000E9470000E94490090E0A0E0B0E0809339
:10073000920090939300A0939400B09395000E9430
:10074000490090E0A0E0B0E080938600909387009D
:10075000A0938800B09389000E94490090E0A0E037
:10076000B0E080938E0090938F00A0939000B093A0
:1007700091000E94490090E0A0E0B0E080939600D4
:1007800090939700A0939800B09399000E9449001D
:1007900090E0A0E0B0E080938A0090938B00A0935B
:1007A0008C00B0938D00A0909200B0909300C09008
:1007B0009400D09095002091860030918700409160
:1007C0008800509189002A0D3B1D4C1D5D1DE09055
:1007D0008E00F0908F0000919000109191002E0DEE
:1007E0003F1D401F511FE0909600F0909700009130
:1007F0009800109199002E0D3F1D401F511F281782
:1008000039074A075B0739F080E060E00E945A022E
:1008100083E790E056C0C501B4014AE050E00E9471
:100820007B0480E06BE00E945A02C4010E94100326
:1008300089E790E00E9410038091860090918700E4
:10084000B4014AE050E00E947B04C4010E941003FE
:100850008BE790E00E94100380918E0090918F00B2
:10086000B4014AE050E00E947B0481E066E00E940F
:100870005A02C4010E94100389E790E00E9410030D
:100880008091960090919700B4014AE050E00E9458
:100890007B04C4010E9410038FED0E9468028DE763
:1008A00090E00E94100380918A0090918B00B40127
:1008B0004AE050E00E947B04C4010E9410038FE7CD
:1008C00090E00E941003C3010197F1F727CFAA1B04
:1008D000BB1B51E107C0AA1FBB1FA617B70710F02B
:1008E000A61BB70B881F991F5A95A9F7809590955D
:1008F000BC01CD010895FB019F01E8944230C4F092
:100900004532B4F44A3029F497FB1EF49095819552
:100910009F4F642F77270E946704805D8A330CF015
:10092000895D8193CB010097A1F716F45DE25193A5
:100930001082C9010C949C04DC01FC01672F7191A9
:100940007723E1F7329704C07C916D9370836291B5
:0C095000AE17BF07C8F30895F894FFCF5E
:10095C0048756D6964697479203D0054656D70202B
:10096C003D20004572726F72002E0025004300205E
:02097C00000079
:00000001FF
