S00B0000535F572E7372656310
S11300000C942A000C943F000C943F000C943F0085
S11300100C943F000C943F000C943F000C943F0060
S11300200C943F000C943F000C943F000C943F0050
S11300300C943F000C943F000C943F000C943F0040
S11300400C943F000C943F000C943F000C943F0030
S11300500C943F0011241FBECFE5D8E0DEBFCDBF16
S113006010E0A0E6B0E0E2EFFAE002C005900D92E5
S1130070A438B107D9F70E94FF010C9477050C94BA
S113008000000E94F9000895CF92DF92EF92FF9250
S11300906B017C01483019F04031C9F51FC0DC0107
S11300A0CB0188279770AA27BB27689416F8B695C2
S11300B0A795979587951694D1F7806A0E940801B1
S11300C00E941601883129F58C2D0E9408010E9496
S11300D0160191E08832F1F090E01CC0CC2487E056
S11300E0D822EE24FF24D701C601689416F8B695E9
S11300F0A795979587951694D1F7816A0E94080170
S11301000E94160191E0803429F090E003C090E051
S113011001C090E0892FFF90EF90DF90CF90089579
S1130120CF92DF92EF92FF92CF936B017C01C42FA9
S11301300E94FF000E941601883091F448E0C70134
S1130140B6010E944400813069F48C2F0E9408019A
S11301500E941601883241F40E94050181E005C025
S113016080E003C080E001C080E0CF91FF90EF9079
S1130170DF90CF900895CF92DF92EF92FF92CF93CA
S1130180DF936B017C01EA010E94FF000E941601CB
S11301908830F9F448E0C701B6010E944400813078
S11301A0D1F40E94FF000E9416018031B1F440E1B5
S11301B0C701B6010E944400813089F40E940F01F6
S11301C088830E941601883561F40E94050181E04C
S11301D009C080E007C080E005C080E003C080E083
S11301E001C080E0DF91CF91FF90EF90DF90CF903E
S11301F0089582E080B911B884E086BF089584EA46
S113020086BF06B607FEFDCF089584E986BF08952C
S113021083B984E886BF06B607FEFDCF089584E857
S113022086BF06B607FEFDCF83B1089581B1089558
S113023028EE33E0482F429FC001439F900D1124C4
S1130240860F911DAA2797FDA095BA2F880F991F95
S1130250AA1FBB1F880F991FAA1FBB1F880F991FB6
S1130260AA1FBB1F880F991FAA1FBB1F0097A105B8
S1130270B10529F000000197A109B109D9F7089542
S113028080FF02C0C09A01C0C09881FF02C0C19A19
S113029001C0C19882FF02C0C29A01C0C29883FF04
S11302A002C0C39A0895C3980895882319F0813031
S11302B039F402C0C598089588B38F7B806288BBE7
S11302C00895C49A65E080E00E94180198B380E123
S11302D0892788BB65E080E00E9418010895CF93C8
S11302E0C82F80E00E9455018C2F0E9440010E947B
S11302F06101CF91089587B38F6787BB80E00E9427
S11303006F0182E00E946F0182E00E946F0188E029
S11303100E946F0180E00E946F018CE00E946F01D7
S113032080E00E946F0186E00E946F01089580E0E2
S11303300E946F0181E00E946F0180E00E946F01C2
S113034082E00E946F010895CF93DF93C82FD82FC6
S1130350D07F81E00E9455018D2F82958F700E947D
S113036040010E9461018C2F8F700E9440010E9405
S11303706101DF91CF910895CF93C62F882319F09F
S1130380813071F407C088E00E946F018C2F0E94B5
S11303906F0106C08CE00E946F018C2F0E946F01D8
S11303A0CF9108950F931F93CF93DF93EC018B01AB
S11303B00E94970165E080E00E94180160E080E0FF
S11303C00E94BC018881882331F021960E94A401F7
S11303D089918111FBCF60E081E00E94BC01F801AA
S11303E08081882339F0E80121960E94A401899133
S11303F08111FBCFDF91CF911F910F910895CF937E
S1130400DF93CDB7DEB7E3970FB6F894DEBF0FBE28
S1130410CDBF19820E947B010E94410080E08E01C1
S11304200E5E1F4F0F2EF0E6EF2EF0E0FF2EF02DA4
S11304305E0192E2A90EB11C0AAB1BAB2A2C3B2C29
S11304400F2EF6E78F2EF0E09F2EF02D0CC0E2E089
S1130450F0E0EC0FFD1FE80FF11D982F990F990F95
S1130460980F90838F5F803190F36894CC24C1F807
S1130470D12CCC0EDD1E412C512C3201F6014191C0
S11304806F01C301B2010E9490005F924F92FF92EC
S1130490EF921F930F930E94A202EFE6F0E0A22DC9
S11304A0B32D87E001900D928A95E1F7622D732DAB
S11304B08AA99BA90E94D201FFEF4F1A5F0A6F0A13
S11304C07F0A0F900F900F900F900F900F90C0160F
S11304D0D106A1F6412C512C32011982AE014F5F95
S11304E05F4FC301B2010E94BB005F924F92FF9223
S11304F0EF921F930F930E94A20289811F928F9300
S11305009F928F92BF92AF920E94A202622D732D8E
S11305108AA99BA90E94D20160E08FE00E94180181
S11305208FEF481A580A680A780A0FB6F894DEBFA3
S11305300FBECDBFF0E14F1651046104710469F69A
S113054080E091CFAEE0B0E0E8EAF2E00C944E0532
S11305500D891E8986E08C831A8309838FEF9FE7B8
S11305609E838D83CE014996AC016F89788DCE012F
S113057001960E94C402EF81F885E00FF11F1082FA
S11305802E96E4E00C946A05ACE0B0E0EAECF2E00C
S11305900C9440057C016B018A01FC0117821682D0
S11305A0838181FFC6C188248394912C8C0E9D1E67
S11305B0F7019381F60193FD859193FF81916F017A
S11305C0882309F4B2C1853239F493FD859193FFF0
S11305D081916F01853229F4B70190E00E94B6043D
S11305E0E7CF512C312C20E02032A8F48B3261F07B
S11305F028F4803251F0833271F40BC08D3239F01B
S1130600803349F4216028C02260246025C028601A
S113061023C0206121C027FD27C0382F30533A3032
S113062078F426FF06C0FAE05F9E300D1124532EA5
S113063013C08AE0389E300D1124332E20620CC082
S11306408E3221F426FD71C1206406C08C3611F46B
S1130650206802C0883641F4F60193FD859193FF2A
S113066081916F018111C0CF982F9554933018F068
S11306709052933028F40C5F1F4FFFE3F9830DC0B1
S1130680833631F0833771F0833509F05EC023C0BF
S1130690F801808189830E5F1F4F44244394512CB9
S11306A0540115C03801F2E06F0E711CF801A080EE
S11306B0B18026FF03C0652D70E002C06FEF7FEFAD
S11306C0C5012C870E94AB042C0183012C856FE7A4
S11306D0262E222218C03801F2E06F0E711CF80198
S11306E0A080B18026FF03C0652D70E002C06FEFCB
S11306F07FEFC5012C870E94A0042C012C8550E8B3
S1130700252E222A830123FC1CC006C0B70180E2E7
S113071090E00E94B6043A94832D90E0481659065E
S1130720A8F30FC0F50127FC859127FE81915F0195
S1130730B70190E00E94B60431103A94F1E04F1AE8
S113074051084114510471F7EDC0843611F0893613
S113075041F5F80127FF07C060817181828193818F
S11307600C5F1F4F08C060817181882777FD8095D9
S1130770982F0E5F1F4F4FE6B42EB22297FF09C089
S113078090958095709561957F4F8F4F9F4FF0E8BE
S1130790BF2A2AE030E0A4010E94E204A82EA8188F
S11307A043C0853731F43FEEB32EB2222AE030E065
S11307B024C099EFB92EB2228F36B9F020F48835CF
S11307C009F0B3C00DC0803721F0883709F0ADC0FF
S11307D002C020E1B22AB4FE0BC084E0B82A08C0EB
S11307E024FF09C0E6E0BE2A06C028E030E005C0C8
S11307F020E130E002C020E132E0F801B7FE07C09A
S113080060817181828193810C5F1F4F06C060817A
S1130810718180E090E00E5F1F4FA4010E94E2040A
S1130820A82EA818FFE7BF22B6FE0BC02B2D2E7FE3
S1130830A51450F4B4FE0AC0B2FC08C02B2D2E7EC1
S113084005C07A2C2B2D03C07A2C01C0752C24FFF3
S11308500DC0FE01EA0DF11D8081803311F4297E63
S113086009C022FF06C07394739404C0822F867853
S113087009F0739423FD14C020FF0FC05A2C731485
S113088060F4530C5718732C08C0B70180E290E051
S11308902C870E94B60473942C857314B0F304C09F
S11308A0731410F4371801C0312C24FF12C0B7019F
S11308B080E390E02C870E94B6042C8522FF1EC0A2
S11308C021FF03C088E590E002C088E790E0B7010B
S11308D00CC0822F867891F021FD02C080E201C015
S11308E08BE227FD8DE2B70190E00E94B60406C0BA
S11308F0B70180E390E00E94B6045A94A514C0F3B3
S1130900AA94F401EA0DF11DB701808190E00E94E0
S1130910B604A110F5CF06C0B70180E290E00E94B2
S1130920B6043A943110F8CF43CEF70126813781CB
S113093002C02FEF3FEFC9012C96E2E10C945C0555
S1130940FC010590615070400110D8F78095909596
S11309508E0F9F1F0895FC0161507040019001109B
S1130960D8F7809590958E0F9F1F08950F931F932E
S1130970CF93DF938C01EB018B8181FD03C00FEFDB
S11309801FEF1AC082FF0DC02E813F818C819D8193
S11309902817390764F4E881F9810193F983E8831E
S11309A006C0E885F985802F0995892B41F78E814A
S11309B09F8101969F838E83C801DF91CF911F9100
S11309C00F910895FA01AA27283051F1203181F1BD
S11309D0E8946F936E7F6E5F7F4F8F4F9F4FAF4F43
S11309E0B1E03ED0B4E03CD0670F781F891F9A1F56
S11309F0A11D680F791F8A1F911DA11D6A0F711D0A
S1130A00811D911DA11D20D009F468943F912AE015
S1130A10269F11243019305D3193DEF6CF010895FD
S1130A20462F4770405D4193B3E00FD0C9F7F6CF2E
S1130A30462F4F70405D4A3318F0495D31FD4052F6
S1130A40419302D0A9F7EACFB4E0A695979587958C
S1130A5077956795BA95C9F700976105710508956B
S1130A609B01AC010A2E0694579547953795279517
S1130A70BA95C9F7620F731F841F951FA01D0895AF
S1130A802F923F924F925F926F927F928F929F929A
S1130A90AF92BF92CF92DF92EF92FF920F931F9388
S1130AA0CF93DF93CDB7DEB7CA1BDB0B0FB6F89439
S1130AB0DEBF0FBECDBF09942A88398848885F8479
S1130AC06E847D848C849B84AA84B984C884DF80EA
S1130AD0EE80FD800C811B81AA81B981CE0FD11DCE
S1130AE00FB6F894DEBF0FBECDBFED010895F894A4
S1050AF0FFCF32
S1130AF24164647265737320307825303258005330
S1130B02746F7265640056616C75652030782530A7
S1070B123258000051
S9030000FC
