:100000000C942A000C9447000C9447000C94470071
:100010000C9447000C9447000C9447000C94470044
:100020000C9447000C9447000C9447000C94470034
:100030000C9447000C9447000C9447000C94470024
:100040000C9442070C9447000C9447000C94470012
:100050000C94470011241FBECFE5D8E0DEBFCDBF12
:1000600010E0A0E6B0E0E6EEFEE202C005900D92E0
:10007000AE37B107D9F710E0AEE7B0E001C01D928E
:10008000AF37B107E1F70E9404120C9471170C947A
:100090000000EF92FF920F931F937B018C0120E0F1
:1000A00030E040E05FE40E94490388238CF0C801FF
:1000B000B70120E030E040E05FE40E94C1010E940F
:1000C000A9039B01AC01205030404040504806C07D
:1000D000C801B7010E94A9039B01AC01B901CA0183
:1000E0001F910F91FF90EF900895A0E0B0E0EBE733
:1000F000F0E00C949914DC012B01FA019C919230F0
:1001000008F439C1EB018881823008F433C194309E
:1001100069F4843009F02FC111969C91119789815F
:10012000981709F428C1A5E7B0E025C1843009F487
:1001300021C18230A9F4923009F01DC19A01AD01AC
:1001400088E0EA010990AE01E90109929E0181501F
:10015000C1F7E201898111969C918923818308C1AD
:10016000923009F407C112962D903C901397EB0141
:100170008A819B811496AD90BD90CD90DC901797AD
:10018000EC80FD800E811F819101281B390BB90184
:1001900037FF04C066277727621B730B6032710537
:1001A0000CF061C0121613066CF537014801062EDB
:1001B00004C096948794779467940A94D2F721E0C8
:1001C00030E040E050E004C0220F331F441F551FB1
:1001D0006A95D2F721503040404050402E213F21B7
:1001E00040235123211531054105510521F021E01E
:1001F00030E040E050E079018A01E628F72808293C
:1002000019293CC0232BD1F1260E371E350146019A
:10021000062E04C096948794779467940A94D2F734
:1002200021E030E040E050E004C0220F331F441FC3
:10023000551F6A95D2F721503040404050402A2146
:100240003B214C215D21211531054105510521F04E
:1002500021E030E040E050E059016A01A628B728CB
:10026000C828D9280BC0821593052CF01C01AA249C
:10027000BB24650103C0EE24FF24870111969C91E5
:10028000D20111968C91981709F445C0992339F041
:10029000A80197012A193B094C095D0906C0A6016E
:1002A00095012E193F09400B510B57FD08C01182D3
:1002B0003382228224833583468357831DC081E0A5
:1002C00081833382228288279927DC01821B930B4A
:1002D000A40BB50B84839583A683B7830DC0220F2F
:1002E000331F441F551F24833583468357838281E0
:1002F000938101979383828324813581468157813D
:10030000DA01C9010197A109B1098F5F9F4FAF4F72
:10031000BF4328F30BC0918333822282EA0CFB1C7B
:100320000C1D1D1DE482F5820683178383E0808304
:10033000248135814681578157FF1AC0C901AA27F8
:1003400097FDA095BA2F81709070A070B0705695EF
:10035000479537952795822B932BA42BB52B848318
:100360009583A683B7838281938101969383828349
:10037000DF0101C0D201CD01CDB7DEB7E2E10C94BF
:10038000B514A0E2B0E0E7ECF1E00C94A5146983A9
:100390007A838B839C832D833E834F835887E9E048
:1003A000EE2EF12CEC0EFD1ECE010196B7010E943F
:1003B000D2048E010F5E1F4FCE010596B8010E9438
:1003C000D2048A8991E089278A8BC701B801AE01DE
:1003D000475E5F4F0E9475000E94FD03A096E6E015
:1003E0000C94C114A0E2B0E0E8EFF1E00C94A51485
:1003F00069837A838B839C832D833E834F835887C5
:10040000F9E0EF2EF12CEC0EFD1ECE010196B701A6
:100410000E94D2048E010F5E1F4FCE010596B801D7
:100420000E94D204C701B801AE01475E5F4F0E942F
:1004300075000E94FD03A096E6E00C94C114A0E2B2
:10044000B0E0E5E2F2E00C94991469837A838B833F
:100450009C832D833E834F835887CE010196BE0136
:10046000675F7F4F0E94D204CE010596BE016F5E8A
:100470007F4F0E94D2049985923088F0898982301A
:10048000C8F0943019F4823051F404C0843029F457
:10049000923081F485E790E0C6C0923049F420E0C4
:1004A0009A858A89981321E02A87CE010996BBC0D4
:1004B000823049F420E09A858A89981321E02A8BBA
:1004C000CE014196B0C02D843E844F8458886D88FB
:1004D0007E888F88988CEE24FF248701AA24BB2471
:1004E000650140E050E060E070E0E0E0F0E0C10174
:1004F00081709070892BE9F0E60CF71C081D191D1E
:100500009A01AB012A0D3B1D4C1D5D1D80E090E062
:10051000A0E0B0E0E614F7040805190520F481E036
:1005200090E0A0E0B0E0BA01A901480F591F6A1F8E
:100530007B1FAA0CBB1CCC1CDD1C97FE08C081E0F5
:1005400090E0A0E0B0E0A82AB92ACA2ADB2A3196B6
:10055000E032F10549F0660C771C881C991C569412
:10056000479437942794C3CFFA85EA892B893C892D
:100570008B859C85280F391F2E5F3F4F17C0CA01FE
:1005800081709070892B61F016950795F794E79428
:1005900080E090E0A0E0B0E8E82AF92A0A2B1B2BC3
:1005A00076956795579547952F5F3F4F77FDE7CF36
:1005B0000CC0440F551F661F771F17FD4160EE0CDE
:1005C000FF1C001F111F21503040403090E05907A0
:1005D00090E0690790E4790760F32B8F3C8FDB0193
:1005E000CA018F779070A070B07080349105A1051A
:1005F000B10561F447FD0AC0E114F10401051105DC
:1006000029F0405C5F4F6F4F7F4F40781A8EFE1786
:1006100011F081E08A8F4D8F5E8F6F8F78A383E01A
:10062000898FCE0149960E94FD03A096E2E10C94C9
:10063000B514A8E1B0E0EFE1F3E00C94A5146983F0
:100640007A838B839C832D833E834F83588789E0F5
:10065000E82EF12CEC0EFD1ECE010196B7010E9492
:10066000D2048E010F5E1F4FCE010596B8010E9485
:10067000D2048985823040F08989823028F0C70110
:10068000B8010E944A0501C08FEF6896E6E00C941D
:10069000C114A8E1B0E0EFE4F3E00C94A514698381
:1006A0007A838B839C832D833E834F83588789E095
:1006B000E82EF12CEC0EFD1ECE010196B7010E9432
:1006C000D2048E010F5E1F4FCE010596B8010E9425
:1006D000D2048985823040F08989823028F0C701B0
:1006E000B8010E944A0501C08FEF6896E6E00C94BD
:1006F000C114A8E1B0E0EFE7F3E00C94A51469831E
:100700007A838B839C832D833E834F83588789E034
:10071000E82EF12CEC0EFD1ECE010196B7010E94D1
:10072000D2048E010F5E1F4FCE010596B8010E94C4
:10073000D2048985823040F08989823028F0C7014F
:10074000B8010E944A0501C081E06896E6E00C9479
:10075000C114ACE0B0E0EFEAF3E00C94A9146983B3
:100760007A838B839C83CE010196BE016B5F7F4FA2
:100770000E94D2048D81823061F1823050F1843048
:1007800021F48E81882351F12EC02F81388537FDC9
:1007900020C06E812F3131051CF06623F9F023C093
:1007A0008EE190E0821B930B29853A854B855C8511
:1007B00004C056954795379527958A95D2F76623B5
:1007C000B1F050954095309521953F4F4F4F5F4F79
:1007D0000EC020E030E040E050E009C02FEF3FEFD6
:1007E0004FEF5FE704C020E030E040E050E8B9019F
:1007F000CA012C96E2E00C94C514DF92EF92FF92AE
:100800000F931F93FC01E480F58006811781D1804E
:100810008081823048F480E090E0A0E1B0E0E82AF6
:10082000F92A0A2B1B2BA5C0843009F49FC0823003
:1008300021F4EE24FF24870105C0E114F104010531
:10084000110519F4E0E0F0E096C0628173819FEF3A
:10085000623879070CF05BC022E83FEF261B370BAC
:100860002A3131052CF020E030E040E050E02AC091
:10087000B801A701022E04C0769567955795479554
:100880000A94D2F781E090E0A0E0B0E004C0880FC5
:10089000991FAA1FBB1F2A95D2F70197A109B10979
:1008A0008E219F21A023B1230097A105B10521F03E
:1008B00081E090E0A0E0B0E09A01AB01282B392B59
:1008C0004A2B5B2BDA01C9018F779070A070B07052
:1008D00080349105A105B10539F427FF09C0205CDA
:1008E0003F4F4F4F5F4F04C0215C3F4F4F4F5F4F13
:1008F000E0E0F0E02030A0E03A07A0E04A07A0E402
:100900005A0710F0E1E0F0E079018A0127C0603871
:10091000710564F5FB01E158FF4FD801C7018F77DE
:100920009070A070B07080349105A105B10539F4C4
:10093000E7FE0DC080E490E0A0E0B0E004C08FE3EB
:1009400090E0A0E0B0E0E80EF91E0A1F1B1F17FFA1
:1009500005C016950795F794E794319687E01695AC
:100960000795F794E7948A95D1F705C0EE24FF2404
:100970008701EFEFF0E06E2F679566276795902F60
:100980009F77D794DD24D7948E2F8695492F462BB9
:10099000582F5D29B701CA011F910F91FF90EF9069
:1009A000DF900895FC01DB01408151812281622F9B
:1009B0006F7770E0221F2227221F9381892F880FD3
:1009C000822B282F30E0991F9927991F11969C930D
:1009D000119721153105A9F54115510561057105DD
:1009E00011F482E037C082E89FEF13969C938E93B8
:1009F00012979A01AB0167E0220F331F441F551F66
:100A00006A95D1F783E08C930DC0220F331F441FEA
:100A1000551F12968D919C911397019713969C9355
:100A20008E931297203080E0380780E0480780E4FA
:100A3000580758F314962D933D934D935C93179755
:100A400008952F3F310579F4411551056105710570
:100A500019F484E08C93089564FF03C081E08C93C3
:100A600012C01C9210C02F57304013963C932E9307
:100A7000129783E08C9387E0440F551F661F771F02
:100A80008A95D1F7706414964D935D936D937C9322
:100A9000179708951F93DC01FB019C91923008F495
:100AA00047C08081823008F443C0943051F41196DD
:100AB0001C91843099F58181682F70E0611B710968
:100AC0003FC0843021F0923031F48230B9F181811D
:100AD000882389F12DC011961C9111978230F1F075
:100AE00081811817D9F412962D913C911397828128
:100AF00093818217930794F028173907BCF0149656
:100B00008D919D910D90BC91A02D248135814681C0
:100B10005781281739074A075B0718F4112341F05A
:100B20000AC082179307A407B50740F4112319F0F0
:100B300061E070E005C06FEF7FEF02C060E070E041
:100B4000CB011F910895DF93CF93CDB7DEB7AFE50B
:100B5000B0E0EFE5F0E0808180688C93CF91DF9189
:100B60000895DF93CF93CDB7DEB7AFE5B0E0EFE503
:100B7000F0E080818F778C93CF91DF910895DF93A0
:100B8000CF93CDB7DEB7A7E2B0E0E7E2F0E0808137
:100B90008F778C93A7E2B0E0E7E2F0E08081806499
:100BA0008C93A7E2B0E0E7E2F0E080818F7D8C9348
:100BB000A6E2B0E0E6E2F0E08081877F8C93A7E2D6
:100BC000B0E0E7E2F0E080818E7F8C93A7E2B0E0B6
:100BD000E7E2F0E080818D7F8C93A7E2B0E0E7E26E
:100BE000F0E080818B7F8C93A7E2B0E0E7E2F0E059
:100BF0008081877F8C93A7E2B0E0E7E2F0E080811C
:100C00008F7E8C93A6E2B0E0E6E2F0E080818E7FFA
:100C10008C93A6E2B0E0E6E2F0E0808182608C9303
:100C2000A6E2B0E0E6E2F0E0808184608C93CF91B0
:100C3000DF910895DF93CF9300D00F92CDB7DEB749
:100C40008983A7E2B0E0E7E2F0E080818F7E8C93B9
:100C5000A7E2B0E0E7E2F0E08081877F8C938981B2
:100C6000282F30E03B832A838A819B818330910542
:100C700009F461C02A813B81243031057CF48A81EA
:100C80009B818130910559F12A813B8122303105C8
:100C9000E4F58A819B810097D1F0BAC02A813B811B
:100CA0002530310509F473C08A819B818530910517
:100CB0000CF457C02A813B812630310509F47DC0F0
:100CC0008A819B818730910509F48DC0A1C0A7E27C
:100CD000B0E0E7E2F0E08081807E8C9399C0A7E2EB
:100CE000B0E0E7E2F0E0808181608C93A7E2B0E0C1
:100CF000E7E2F0E080818D7F8C93A7E2B0E0E7E24D
:100D0000F0E080818B7F8C9383C0A7E2B0E0E7E2C4
:100D1000F0E080818E7F8C93A7E2B0E0E7E2F0E024
:100D2000808182608C93A7E2B0E0E7E2F0E080810E
:100D30008B7F8C936DC0A7E2B0E0E7E2F0E08081AA
:100D40008E7F8C93A7E2B0E0E7E2F0E080818260E2
:100D50008C93A7E2B0E0E7E2F0E0808184608C93BE
:100D600057C0A7E2B0E0E7E2F0E0808181608C93B9
:100D7000A7E2B0E0E7E2F0E080818D7F8C93A7E20C
:100D8000B0E0E7E2F0E080818B7F8C9341C0A7E286
:100D9000B0E0E7E2F0E0808181608C93A7E2B0E010
:100DA000E7E2F0E080818D7F8C93A7E2B0E0E7E29C
:100DB000F0E0808184608C932BC0A7E2B0E0E7E292
:100DC000F0E0808181608C93A7E2B0E0E7E2F0E0A0
:100DD000808182608C93A7E2B0E0E7E2F0E080815E
:100DE0008B7F8C9315C0A7E2B0E0E7E2F0E0808152
:100DF00081608C93A7E2B0E0E7E2F0E0808182605E
:100E00008C93A7E2B0E0E7E2F0E0808184608C930D
:100E10000F900F900F90CF91DF910895DF93CF93B4
:100E2000CDB7DEB7A6E2B0E0E6E2F0E08081806810
:100E30008C93CF91DF910895DF93CF93CDB7DEB739
:100E4000A6E2B0E0E6E2F0E0808180648C93CF918E
:100E5000DF910895DF93CF93CDB7DEB70E941C07D3
:100E6000E6E2F0E0808182958F70882F90E08170BB
:100E700090700097A9F3E4E2F0E080819181CF9136
:100E8000DF9108951F920F920FB60F921124DF93F6
:100E9000CF93CDB7DEB7CF91DF910F900FBE0F90FC
:100EA0001F901895DF93CF93CDB7DEB727970FB676
:100EB000F894DEBF0FBECDBF89836A834B838B81DD
:100EC000813009F06FC08981282F30E03F832E8365
:100ED0008E819F818130910549F12E813F812230A1
:100EE00031052CF48E819F81009761F0D2C02E8154
:100EF0003F812230310571F18E819F8183309105D0
:100F0000E9F1C7C0AAE3B0E0EAE3F0E08081482F4E
:100F10008A81282F30E081E090E0022E02C0880F05
:100F2000991F0A94E2F7842B8C93B3C0A7E3B0E037
:100F3000E7E3F0E08081482F8A81282F30E081E0CC
:100F400090E0022E02C0880F991F0A94E2F7842BCA
:100F50008C939FC0A4E3B0E0E4E3F0E08081482FED
:100F60008A81282F30E081E090E0022E02C0880FB5
:100F7000991F0A94E2F7842B8C938BC0A1E3B0E015
:100F8000E1E3F0E08081482F8A81282F30E081E082
:100F900090E0022E02C0880F991F0A94E2F7842B7A
:100FA0008C9377C08B81882309F073C08981282FA7
:100FB00030E03D832C838C819D818130910559F1F6
:100FC0002C813D81223031052CF48C819D8100974C
:100FD00069F05FC02C813D812230310589F18C811F
:100FE0009D818330910509F440C053C0AAE3B0E06D
:100FF000EAE3F0E08081482F8A81282F30E081E009
:1010000090E0022E02C0880F991F0A94E2F78095A3
:1010100084238C933EC0A7E3B0E0E7E3F0E0808157
:10102000482F8A81282F30E081E090E0022E02C014
:10103000880F991F0A94E2F7809584238C9329C026
:10104000A4E3B0E0E4E3F0E08081482F8A81282F18
:1010500030E081E090E0022E02C0880F991F0A94D0
:10106000E2F7809584238C9314C0A1E3B0E0E1E320
:10107000F0E08081482F8A81282F30E081E090E0E5
:10108000022E02C0880F991F0A94E2F780958423EC
:101090008C9327960FB6F894DEBF0FBECDBFCF91CD
:1010A000DF910895DF93CF93CDB7DEB727970FB6C3
:1010B000F894DEBF0FBECDBF89836A834B838B81DB
:1010C000813009F06FC08981282F30E03F832E8363
:1010D0008E819F818130910549F12E813F8122309F
:1010E00031052CF48E819F81009761F0D2C02E8152
:1010F0003F812230310571F18E819F8183309105CE
:10110000E9F1C7C0ABE3B0E0EBE3F0E08081482F4A
:101110008A81282F30E081E090E0022E02C0880F03
:10112000991F0A94E2F7842B8C93B3C0A8E3B0E034
:10113000E8E3F0E08081482F8A81282F30E081E0C9
:1011400090E0022E02C0880F991F0A94E2F7842BC8
:101150008C939FC0A5E3B0E0E5E3F0E08081482FE9
:101160008A81282F30E081E090E0022E02C0880FB3
:10117000991F0A94E2F7842B8C938BC0A2E3B0E012
:10118000E2E3F0E08081482F8A81282F30E081E07F
:1011900090E0022E02C0880F991F0A94E2F7842B78
:1011A0008C9377C08B81882309F073C08981282FA5
:1011B00030E03D832C838C819D818130910559F1F4
:1011C0002C813D81223031052CF48C819D8100974A
:1011D00069F05FC02C813D812230310589F18C811D
:1011E0009D818330910509F440C053C0ABE3B0E06A
:1011F000EBE3F0E08081482F8A81282F30E081E006
:1012000090E0022E02C0880F991F0A94E2F78095A1
:1012100084238C933EC0A8E3B0E0E8E3F0E0808153
:10122000482F8A81282F30E081E090E0022E02C012
:10123000880F991F0A94E2F7809584238C9329C024
:10124000A5E3B0E0E5E3F0E08081482F8A81282F14
:1012500030E081E090E0022E02C0880F991F0A94CE
:10126000E2F7809584238C9314C0A2E3B0E0E2E31C
:10127000F0E08081482F8A81282F30E081E090E0E3
:10128000022E02C0880F991F0A94E2F780958423EA
:101290008C9327960FB6F894DEBF0FBECDBFCF91CB
:1012A000DF910895DF93CF9300D000D00F92CDB798
:1012B000DEB78A836B8319828A81282F30E03D83D1
:1012C0002C834C815D814130510541F18C819D81A0
:1012D0008230910534F42C813D812115310561F076
:1012E00052C04C815D814230510551F18C819D810C
:1012F00083309105B9F147C0E9E3F0E08081282F00
:1013000030E08B81882F90E0A90102C05595479568
:101310008A95E2F7CA018170898335C0E6E3F0E07F
:101320008081282F30E08B81882F90E0A90102C0B6
:10133000559547958A95E2F7CA018170898323C044
:10134000E3E3F0E08081282F30E08B81882F90E06C
:10135000A90102C0559547958A95E2F7CA018170A7
:10136000898311C0E0E3F0E08081282F30E08B8199
:10137000882F90E0A90102C0559547958A95E2F71C
:10138000CA018170898389810F900F900F900F900F
:101390000F90CF91DF910895DF93CF9300D000D0CD
:1013A00000D0CDB7DEB789836A838A81813099F511
:1013B0008981282F30E03E832D838D819E8181306D
:1013C0009105D1F02D813E81223031052CF48D81A3
:1013D0009E81009761F050C02D813E812230310501
:1013E00081F08D819E818330910581F045C0EAE3D3
:1013F000F0E08FEF808340C0E7E3F0E08FEF808381
:101400003BC0E4E3F0E08FEF808336C0E1E3F0E03F
:101410008FEF808331C08A81882371F58981282FDD
:1014200030E03C832B838B819C8181309105C9F016
:101430002B813C81223031052CF48B819C810097DB
:1014400061F01AC02B813C812230310571F08B8113
:101450009C818330910569F00FC0EAE3F0E01082CF
:101460000BC0E7E3F0E0108207C0E4E3F0E0108295
:1014700003C0E1E3F0E0108226960FB6F894DEBFD9
:101480000FBECDBFCF91DF910895DF93CF9300D0F2
:1014900000D0CDB7DEB789836A838981282F30E0F9
:1014A0003C832B838B819C8181309105D1F02B81F2
:1014B0003C81223031052CF48B819C81009761F0B6
:1014C0001EC02B813C812230310581F08B819C81B3
:1014D0008330910581F013C0EBE3F0E08A818083D3
:1014E0000EC0E8E3F0E08A81808309C0E5E3F0E024
:1014F0008A81808304C0E2E3F0E08A8180830F90D8
:101500000F900F900F90CF91DF910895DF93CF93BD
:1015100000D000D0CDB7DEB789836A838981282FB8
:1015200030E03C832B838B819C818130910549F194
:101530002B813C81223031052CF48B819C810097DA
:1015400061F05AC02B813C812230310571F18B81D1
:101550009C8183309105E9F14FC0ABE3B0E0EBE350
:10156000F0E08081482F8A81282F30E081E090E0F0
:10157000022E02C0880F991F0A94E2F784278C93E9
:101580003BC0A8E3B0E0E8E3F0E08081482F8A8127
:10159000282F30E081E090E0022E02C0880F991FD2
:1015A0000A94E2F784278C9327C0A5E3B0E0E5E333
:1015B000F0E08081482F8A81282F30E081E090E0A0
:1015C000022E02C0880F991F0A94E2F784278C9399
:1015D00013C0A2E3B0E0E2E3F0E08081482F8A810B
:1015E000282F30E081E090E0022E02C0880F991F82
:1015F0000A94E2F784278C930F900F900F900F902E
:10160000CF91DF910895DF93CF9300D000D0CDB775
:10161000DEB78A8319828A81282F30E03C832B83AE
:101620008B819C8181309105D1F02B813C812230CE
:1016300031052CF48B819C81009761F01EC02B81B9
:101640003C812230310581F08B819C818330910572
:1016500081F013C0E9E3F0E0808189830EC0E6E306
:10166000F0E08081898309C0E3E3F0E08081898331
:1016700004C0E0E3F0E08081898389810F900F90BE
:101680000F900F90CF91DF9108950F931F93DF93E9
:10169000CF93CDB7DEB7C654D0400FB6F894DEBFB7
:1016A0000FBECDBF83E060E041E00E94520783E0BF
:1016B00061E041E00E94520783E062E041E00E9465
:1016C0005207FE01ED5BFF4F80E090E0A0E2B2E444
:1016D00080839183A283B3838E01015C1F4FFE013F
:1016E000ED5BFF4F608171818281938120E030E06A
:1016F0004AEF54E40E941F02DC01CB01F801808311
:101700009183A283B383FE01FF9660817181828100
:10171000938120E030E040E85FE30E947903882372
:101720002CF481E090E09EAF8DAF46C0FE01FF96A5
:10173000608171818281938120E03FEF4FE757E420
:101740000E941903181664F5FE01ED5BFF4F6081DE
:1017500071818281938120E030E040E251E40E9477
:101760001F02DC01CB01BC01CD010E944900DC015C
:10177000CB019EAF8DAF0FC088EC90E09CAF8BAFDC
:101780008BAD9CAD0197F1F79CAF8BAF8DAD9EAD4E
:1017900001979EAF8DAF8DAD9EAD009769F716C0D6
:1017A000FE01FF9660817181828193810E944900D0
:1017B000DC01CB019EAF8DAF8DAD9EAD9AAF89AFF1
:1017C00089AD9AAD0197F1F79AAF89AF82E061E0F8
:1017D0000E94CC0988E30E94BE0F80E090E0A0E860
:1017E000BFE38DAB9EABAFABB8AF6DA97EA98FA9A0
:1017F00098AD20E030E04AEF54E40E941F02DC0183
:10180000CB0189AB9AABABABBCAB69A97AA98BA96D
:101810009CA920E030E040E85FE30E947903882340
:101820002CF481E090E098AB8FA73FC069A97AA91A
:101830008BA99CA920E03FEF4FE757E40E941903D2
:1018400018164CF56DA97EA98FA998AD20E030E05F
:1018500040E251E40E941F02DC01CB01BC01CD013A
:101860000E944900DC01CB0198AB8FA70FC088EC28
:1018700090E09EA78DA78DA59EA50197F1F79EA745
:101880008DA78FA598A9019798AB8FA78FA598A929
:10189000009769F714C069A97AA98BA99CA90E942D
:1018A0004900DC01CB0198AB8FA78FA598A99CA715
:1018B0008BA78BA59CA50197F1F79CA78BA78FE021
:1018C0000E94BE0F80E090E0A0E8BFE38FA398A73E
:1018D000A9A7BAA76FA178A589A59AA520E030E0AD
:1018E0004AEF54E40E941F02DC01CB018BA39CA3AE
:1018F000ADA3BEA36BA17CA18DA19EA120E030E091
:1019000040E85FE30E94790388232CF481E090E0B3
:101910009AA389A33FC06BA17CA18DA19EA120E0C9
:101920003FEF4FE757E40E94190318164CF56FA1DB
:1019300078A589A59AA520E030E040E251E40E9414
:101940001F02DC01CB01BC01CD010E944900DC017A
:10195000CB019AA389A30FC088EC90E098A38F8F46
:101960008F8D98A10197F1F798A38F8F89A19AA1E4
:1019700001979AA389A389A19AA1009769F714C036
:101980006BA17CA18DA19EA10E944900DC01CB012D
:101990009AA389A389A19AA19E8F8D8F8D8D9E8DEB
:1019A0000197F1F79E8F8D8F81E00E94BE0F80E03E
:1019B00090E0A0E0B0E4898F9A8FAB8FBC8F698DE7
:1019C0007A8D8B8D9C8D20E030E04AEF54E40E94AC
:1019D0001F02DC01CB018D8B9E8BAF8BB88F6D8985
:1019E0007E898F89988D20E030E040E85FE30E9497
:1019F000790388232CF481E090E09C8B8B8B3FC093
:101A00006D897E898F89988D20E03FEF4FE757E4FD
:101A10000E94190318164CF5698D7A8D8B8D9C8D5B
:101A200020E030E040E251E40E941F02DC01CB01E3
:101A3000BC01CD010E944900DC01CB019C8B8B8B4A
:101A40000FC088EC90E09A8B898B89899A890197DD
:101A5000F1F79A8B898B8B899C8901979C8B8B8B57
:101A60008B899C89009769F714C06D897E898F895D
:101A7000988D0E944900DC01CB019C8B8B8B8B895C
:101A80009C89988B8F878F8598890197F1F7988B20
:101A90008F8786E00E94BE0F80E090E0A0E8BFE361
:101AA0008B879C87AD87BE876B857C858D859E8562
:101AB00020E030E04AEF54E40E941F02DC01CB0139
:101AC0008F839887A987BA876F81788589859A855A
:101AD00020E030E040E85FE30E94790388232CF4A3
:101AE00081E090E09E838D833FC06F8178858985FA
:101AF0009A8520E03FEF4FE757E40E94190318163C
:101B00004CF56B857C858D859E8520E030E040E23C
:101B100051E40E941F02DC01CB01BC01CD010E94F7
:101B20004900DC01CB019E838D830FC088EC90E0DF
:101B30009C838B838B819C810197F1F79C838B83A2
:101B40008D819E8101979E838D838D819E810097DB
:101B500069F714C06F81788589859A850E9449004C
:101B6000DC01CB019E838D838D819E819A83898345
:101B700089819A810197F1F79A838983CA5BDF4F44
:101B80000FB6F894DEBF0FBECDBFCF91DF911F918E
:101B90000F910895DF93CF93CDB7DEB7E9970FB6D6
:101BA000F894DEBF0FBECDBF89AF83E060E041E0B7
:101BB0000E94520883E061E040E00E94520880E009
:101BC00090E0A0E8BFE38DAB9EABAFABB8AF6DA923
:101BD0007EA98FA998AD20E030E04AEF54E40E943E
:101BE0001F02DC01CB0189AB9AABABABBCAB69A9E3
:101BF0007AA98BA99CA920E030E040E85FE30E942D
:101C0000790388232CF481E090E098AB8FA73FC044
:101C100069A97AA98BA99CA920E03FEF4FE757E477
:101C20000E94190318164CF56DA97EA98FA998ADCD
:101C300020E030E040E251E40E941F02DC01CB01D1
:101C4000BC01CD010E944900DC01CB0198AB8FA7FC
:101C50000FC088EC90E09EA78DA78DA59EA501974B
:101C6000F1F79EA78DA78FA598A9019798AB8FA78D
:101C70008FA598A9009769F714C069A97AA98BA9BB
:101C80009CA90E944900DC01CB0198AB8FA78FA5CE
:101C900098A99CA78BA78BA59CA50197F1F79CA75A
:101CA0008BA782E069AD0E94450A80E090E0A0E841
:101CB000BFE38FA398A7A9A7BAA76FA178A589A505
:101CC0009AA520E030E04AEF54E40E941F02DC01B4
:101CD000CB018BA39CA3ADA3BEA36BA17CA18DA1C3
:101CE0009EA120E030E040E85FE30E947903882372
:101CF0002CF481E090E09AA389A33FC06BA17CA162
:101D00008DA19EA120E03FEF4FE757E40E94190309
:101D100018164CF56FA178A589A59AA520E030E0AA
:101D200040E251E40E941F02DC01CB01BC01CD0165
:101D30000E944900DC01CB019AA389A30FC088EC63
:101D400090E098A38F8F8F8D98A10197F1F798A3BA
:101D50008F8F89A19AA101979AA389A389A19AA19A
:101D6000009769F714C06BA17CA18DA19EA10E9470
:101D70004900DC01CB019AA389A389A19AA19E8F76
:101D80008D8F8D8D9E8D0197F1F79E8F8D8F83E0C6
:101D900062E041E00E94520880E090E0A0E8BFE3EA
:101DA000898F9A8FAB8FBC8F698D7A8D8B8D9C8D2F
:101DB00020E030E04AEF54E40E941F02DC01CB0136
:101DC0008D8B9E8BAF8BB88F6D897E898F89988D17
:101DD00020E030E040E85FE30E94790388232CF4A0
:101DE00081E090E09C8B8B8B3FC06D897E898F89D1
:101DF000988D20E03FEF4FE757E40E941903181633
:101E00004CF5698D7A8D8B8D9C8D20E030E040E221
:101E100051E40E941F02DC01CB01BC01CD010E94F4
:101E20004900DC01CB019C8B8B8B0FC088EC90E0D0
:101E30009A8B898B89899A890197F1F79A8B898B7B
:101E40008B899C8901979C8B8B8B8B899C890097B4
:101E500069F714C06D897E898F89988D0E94490029
:101E6000DC01CB019C8B8B8B8B899C89988B8F871A
:101E70008F8598890197F1F7988B8F8783E062E0CF
:101E800040E00E94520880E090E0A0E8BFE38B872A
:101E90009C87AD87BE876B857C858D859E8520E080
:101EA00030E04AEF54E40E941F02DC01CB018F8333
:101EB0009887A987BA876F81788589859A8520E078
:101EC00030E040E85FE30E94790388232CF481E04E
:101ED00090E09E838D833FC06F81788589859A8548
:101EE00020E03FEF4FE757E40E94190318164CF526
:101EF0006B857C858D859E8520E030E040E251E455
:101F00000E941F02DC01CB01BC01CD010E944900EF
:101F1000DC01CB019E838D830FC088EC90E09C8315
:101F20008B838B819C810197F1F79C838B838D81BF
:101F30009E8101979E838D838D819E81009769F795
:101F400014C06F81788589859A850E944900DC01DB
:101F5000CB019E838D838D819E819A838983898124
:101F60009A810197F1F79A838983E9960FB6F894DD
:101F7000DEBF0FBECDBFCF91DF910895DF93CF932A
:101F8000CDB7DEB76D970FB6F894DEBF0FBECDBFED
:101F90008D8F83E060E040E00E94520883E061E0C2
:101FA00040E00E94520882E06D8D0E94450A83E065
:101FB00062E041E00E94520880E090E0A0E8BFE3C8
:101FC000898F9A8FAB8FBC8F698D7A8D8B8D9C8D0D
:101FD00020E030E04AEF54E40E941F02DC01CB0114
:101FE0008D8B9E8BAF8BB88F6D897E898F89988DF5
:101FF00020E030E040E85FE30E94790388232CF47E
:1020000081E090E09C8B8B8B3FC06D897E898F89AE
:10201000988D20E03FEF4FE757E40E941903181610
:102020004CF5698D7A8D8B8D9C8D20E030E040E2FF
:1020300051E40E941F02DC01CB01BC01CD010E94D2
:102040004900DC01CB019C8B8B8B0FC088EC90E0AE
:102050009A8B898B89899A890197F1F79A8B898B59
:102060008B899C8901979C8B8B8B8B899C89009792
:1020700069F714C06D897E898F89988D0E94490007
:10208000DC01CB019C8B8B8B8B899C89988B8F87F8
:102090008F8598890197F1F7988B8F8783E062E0AD
:1020A00040E00E9452088D8D813009F072C080E0BE
:1020B00090E0A0E0B0E48B879C87AD87BE876B85FE
:1020C0007C858D859E8520E030E04AEF54E40E94B7
:1020D0001F02DC01CB018F839887A987BA876F81A4
:1020E000788589859A8520E030E040E85FE30E94AA
:1020F000790388232CF481E090E09E838D833FC098
:102100006F81788589859A8520E03FEF4FE757E416
:102110000E94190318164CF56B857C858D859E856C
:1021200020E030E040E251E40E941F02DC01CB01DC
:10213000BC01CD010E944900DC01CB019E838D834F
:102140000FC088EC90E09C838B838B819C810197EE
:10215000F1F79C838B838D819E8101979E838D8374
:102160008D819E81009769F714C06F81788589857C
:102170009A850E944900DC01CB019E838D838D816D
:102180009E819A83898389819A810197F1F79A8345
:1021900089836D960FB6F894DEBF0FBECDBFCF9189
:1021A000DF910895DF93CF9300D00F92CDB7DEB7C4
:1021B0009B838A8319820EC08981282F30E08A810F
:1021C0009B81FC01E20FF31F80810E94CA0D89816F
:1021D0008F5F89838981282F30E08A819B81FC0170
:1021E000E20FF31F8081882339F70F900F900F9033
:1021F000CF91DF910895DF93CF93CDB7DEB72A97C4
:102200000FB6F894DEBF0FBECDBF98878F838F8146
:102210009885009719F480E30E94CA0D19821FC0A7
:102220008981E82FFF27E7FDF0958F8198852AE0C7
:1022300030E0B9010E948514282FCE010296E80FE4
:10224000F91F20838F8198852AE030E0B9010E9430
:102250008514CB0198878F8389818F5F89838F81D4
:1022600098850097E9F68981815089837EC08981AC
:10227000282F332727FD3095CE010296FC01E20F6F
:10228000F31F8081282F30E03A87298789859A8536
:102290008430910509F44FC029853A8525303105F0
:1022A000D4F489859A8581309105C9F129853A85CB
:1022B000223031052CF489859A85009761F152C04E
:1022C00029853A852230310571F189859A858330D7
:1022D000910569F147C029853A8527303105B9F163
:1022E00089859A85883091055CF429853A85253061
:1022F000310529F189859A858630910521F132C011
:1023000029853A852830310531F189859A858930CA
:10231000910529F127C080E30E94CA0D23C081E303
:102320000E94CA0D1FC082E30E94CA0D1BC083E336
:102330000E94CA0D17C084E30E94CA0D13C085E332
:102340000E94CA0D0FC086E30E94CA0D0BC087E32E
:102350000E94CA0D07C088E30E94CA0D03C089E32A
:102360000E94CA0D898181508983898188230CF05C
:102370007ECF2A960FB6F894DEBF0FBECDBFCF91A9
:10238000DF910895DF93CF9300D0CDB7DEB7898377
:102390006A838981882321F48A8180580E94BE0F34
:1023A0008981813021F48A8180540E94BE0F0F9070
:1023B0000F90CF91DF910895DF93CF93CDB7DEB724
:1023C00081E00E94BE0FCF91DF910895DF93CF93FC
:1023D000CDB7DEB78CE10E94BE0FCF91DF9108959B
:1023E000DF93CF93CDB7DEB788E10E94BE0FCF91C8
:1023F000DF910895DF93CF93CDB7DEB782E00E94DF
:10240000BE0FCF91DF910895DF93CF93CDB7DEB7A5
:10241000C055D0400FB6F894DEBF0FBECDBF80E0F0
:1024200060E00E94CC090E94450B0E94BF050E94FB
:102430000E0719AE1AAE1BAE1CAE80E090E0A8EC01
:10244000B2E48DAB9EABAFABB8AF6DA97EA98FA93F
:1024500098AD20E030E04AEF54E40E941F02DC0116
:10246000CB0189AB9AABABABBCAB69A97AA98BA901
:102470009CA920E030E040E85FE30E9479038823D4
:102480002CF481E090E098AB8FA73FC069A97AA9AE
:102490008BA99CA920E03FEF4FE757E40E94190366
:1024A00018164CF56DA97EA98FA998AD20E030E0F3
:1024B00040E251E40E941F02DC01CB01BC01CD01CE
:1024C0000E944900DC01CB0198AB8FA70FC088ECBC
:1024D00090E09EA78DA78DA59EA50197F1F79EA7D9
:1024E0008DA78FA598A9019798AB8FA78FA598A9BD
:1024F000009769F714C069A97AA98BA99CA90E94C1
:102500004900DC01CB0198AB8FA78FA598A99CA7A8
:102510008BA78BA59CA50197F1F79CA78BA70E9481
:10252000DC1180E060E00E94C21180E00E941A0687
:102530000E942A07CC01A0E0B0E089AF9AAFABAF10
:10254000BCAF8DB79EB708970FB6F8949EBF0FBE6D
:102550008DBFEDB7FEB73196CE01CD9691838083C6
:1025600080E690E09383828389AD9AADABADBCAD3C
:1025700084839583A683B7830E94D0148DB79EB7BA
:1025800008960FB6F8949EBF0FBE8DBFCE01CD96B4
:102590000E94D21080E090E0A0E2B1E48FA398A75F
:1025A000A9A7BAA76FA178A589A59AA520E030E0D0
:1025B0004AEF54E40E941F02DC01CB018BA39CA3D1
:1025C000ADA3BEA36BA17CA18DA19EA120E030E0B4
:1025D00040E85FE30E94790388232CF481E090E0D7
:1025E0009AA389A33FC06BA17CA18DA19EA120E0ED
:1025F0003FEF4FE757E40E94190318164CF56FA1FF
:1026000078A589A59AA520E030E040E251E40E9437
:102610001F02DC01CB01BC01CD010E944900DC019D
:10262000CB019AA389A30FC088EC90E098A38F8F69
:102630008F8D98A10197F1F798A38F8F89A19AA107
:1026400001979AA389A389A19AA1009769F714C059
:102650006BA17CA18DA19EA10E944900DC01CB0150
:102660009AA389A389A19AA19E8F8D8F8D8D9E8D0E
:102670000197F1F79E8F8D8F81E060E00E94C2117B
:1026800081E00E941A060E942A07CC01A0E0B0E077
:1026900089AF9AAFABAFBCAF8DB79EB708970FB6F7
:1026A000F8949EBF0FBE8DBFEDB7FEB73196CE0139
:1026B000CD969183808387E690E09383828389AD72
:1026C0009AADABADBCAD84839583A683B7830E94DE
:1026D000D0148DB79EB708960FB6F8949EBF0FBE64
:1026E0008DBFCE01CD960E94D21080E090E0A0E296
:1026F000B1E4898F9A8FAB8FBC8F698D7A8D8B8D6A
:102700009C8D20E030E04AEF54E40E941F02DC017F
:10271000CB018D8B9E8BAF8BB88F6D897E898F8916
:10272000988D20E030E040E85FE30E947903882341
:102730002CF481E090E09C8B8B8B3FC06D897E896F
:102740008F89988D20E03FEF4FE757E40E941903EF
:1027500018164CF5698D7A8D8B8D9C8D20E030E0BC
:1027600040E251E40E941F02DC01CB01BC01CD011B
:102770000E944900DC01CB019C8B8B8B0FC088EC45
:1027800090E09A8B898B89899A890197F1F79A8BC6
:10279000898B8B899C8901979C8B8B8B8B899C89DE
:1027A000009769F714C06D897E898F89988D0E9482
:1027B0004900DC01CB019C8B8B8B8B899C89988B8E
:1027C0008F878F8598890197F1F7988B8F8782E0A3
:1027D0000E941A060E942A07CC01A0E0B0E089AF4F
:1027E0009AAFABAFBCAF89AD9AADABADBCAD8835E0
:1027F00022E0920720E0A20720E0B20748F480E040
:1028000068E00E94C2118EE690E00E94D21008C0DB
:1028100080E068E00E94C21181E790E00E94D2103F
:1028200080E090E0AAE7B4E48B879C87AD87BE8701
:102830006B857C858D859E8520E030E04AEF54E4F1
:102840000E941F02DC01CB018F839887A987BA877A
:102850006F81788589859A8520E030E040E85FE3E4
:102860000E94790388232CF481E090E09E838D837D
:102870003FC06F81788589859A8520E03FEF4FE7DB
:1028800057E40E94190318164CF56B857C858D85DD
:102890009E8520E030E040E251E40E941F02DC010E
:1028A000CB01BC01CD010E944900DC01CB019E831C
:1028B0008D830FC088EC90E09C838B838B819C81FF
:1028C0000197F1F79C838B838D819E8101979E8375
:1028D0008D838D819E81009769F714C06F81788503
:1028E00089859A850E944900DC01CB019E838D83F6
:1028F0008D819E819A83898389819A810197F1F7DD
:102900009A8389830E94DC110CCEAA1BBB1B51E168
:1029100007C0AA1FBB1FA617B70710F0A61BB70B4F
:10292000881F991F5A95A9F780959095BC01CD01F4
:1029300008952F923F924F925F926F927F928F9263
:102940009F92AF92BF92CF92DF92EF92FF920F933E
:102950001F93CF93DF93CDB7DEB7CA1BDB0B0FB648
:10296000F894DEBF0FBECDBF09942A883988488805
:102970005F846E847D848C849B84AA84B984C8849B
:10298000DF80EE80FD800C811B81AA81B981CE0F92
:10299000D11D0FB6F894DEBF0FBECDBFED01089577
:1029A000AEE0B0E0E6EDF4E10C94A7140D891E89C9
:1029B00086E08C831A8309838FEF9FE79E838D8344
:1029C0009E01275E3F4FCE0101966F89788DA90148
:1029D0000E94F4142F813885020F131FF801108212
:1029E0002E96E4E00C94C314ABE0B0E0EAEFF4E11F
:1029F0000C9499143C012B015A01FC011782168298
:102A0000838181FD03C06FEF7FEFC6C19AE0892EFD
:102A10001E010894211C311CF3012381F20123FDC6
:102A2000859123FF81912F01882309F4B2C185325A
:102A300039F423FD859123FF81912F01853229F4FB
:102A400090E0B3010E94E716E7CF982FFF24EE2411
:102A50009924FFE1FF15D0F09B3269F09C3228F4F5
:102A6000903259F0933291F40EC09D3249F0903378
:102A700069F441E024C052E0F52A84E0F82A28C035
:102A800098E0F92A25C0E0E1FE2A22C0F7FC29C01F
:102A9000892F80538A3070F4F6FE05C0989C902CE4
:102AA0001124980E15C0E89CE02C1124E80EF0E2E9
:102AB000FF2A0EC09E3229F4F6FC6BC140E4F42AD2
:102AC00007C09C3619F450E8F52A02C0983649F43C
:102AD000F20123FD959123FF91912F01992309F094
:102AE000B8CF892F8554833018F08052833038F462
:102AF00044E050E0A40EB51E5FE359830FC0933647
:102B000031F0933779F0933509F056C020C0F501C4
:102B10008081898342E050E0A40EB51E610101E08E
:102B200010E012C0F501C080D180F6FC03C06FEF49
:102B30007FEF02C0692D70E042E050E0A40EB51EA8
:102B4000C6010E94DC168C015FE7F52214C0F50176
:102B5000C080D180F6FC03C06FEF7FEF02C0692D0B
:102B600070E042E050E0A40EB51EC6010E94D116EE
:102B70008C0150E8F52AF3FE07C01AC080E290E00D
:102B8000B3010E94E716EA948E2D90E0081719070A
:102B9000A8F30EC0F601F7FC8591F7FE81916F0155
:102BA00090E0B3010E94E716E110EA940150104052
:102BB0000115110579F7EAC0943611F0993669F5D7
:102BC000F7FE08C0F501208131814281538184E004
:102BD00090E00AC0F501808191819C01442737FD76
:102BE0004095542F82E090E0A80EB91E9FE6F9228E
:102BF00057FF09C050954095309521953F4F4F4F55
:102C00005F4FE0E8FE2ACA01B901A1012AE030E0E5
:102C10000E941317D82ED21840C0953729F41F2DC3
:102C20001F7E2AE030E01DC01F2D197F9F3661F006
:102C3000903720F4983509F0ACC00FC0903739F0C8
:102C4000983709F0A6C004C028E030E00AC010613F
:102C500014FD146020E130E004C014FD166020E192
:102C600032E017FF08C0F501608171818281938194
:102C700044E050E008C0F50180819181BC0180E012
:102C800090E042E050E0A40EB51EA1010E9413178F
:102C9000D82ED2188FE7F82EF122F6FE0BC05EEF89
:102CA000F522D91438F4F4FE07C0F2FC05C08FEE0B
:102CB000F82202C01D2D01C0192DF4FE0DC0FE0129
:102CC000ED0DF11D8081803319F499EEF92208C0D1
:102CD0001F5FF2FE05C003C08F2D867809F01F5FCD
:102CE0000F2DF3FC14C0F0FE0FC01E1510F09D2C2C
:102CF0000BC09D2C9E0C911A1E2D06C080E290E008
:102D0000B3010E94E7161F5F1E15C0F304C01E1515
:102D100010F4E11A01C0EE2404FF0FC080E390E03C
:102D2000B3010E94E71602FF1DC001FD03C088E742
:102D300090E00EC088E590E00BC0802F867891F07F
:102D400001FF02C08BE201C080E2F7FC8DE290E05F
:102D5000B3010E94E71606C080E390E0B3010E9431
:102D6000E7169A94D914C0F3DA94F101ED0DF11D30
:102D7000808190E0B3010E94E716DD20A9F706C02C
:102D800080E290E0B3010E94E716EA94EE20C1F7DA
:102D900043CEF30166817781CB012B96E2E10C945F
:102DA000B514FC010590615070400110D8F7809572
:102DB00090958E0F9F1F0895FC0161507040019007
:102DC0000110D8F7809590958E0F9F1F08950F934F
:102DD0001F93CF93DF938C01EB018B8181FF1BC08D
:102DE00082FF0DC02E813F818C819D81281739077C
:102DF00064F4E881F9810193F983E88306C0E885EA
:102E0000F985802F0995892B31F48E819F81019658
:102E10009F838E8302C00FEF1FEFC801DF91CF9118
:102E20001F910F910895FA01AA27283051F12031FE
:102E300081F1E8946F936E7F6E5F7F4F8F4F9F4F4E
:102E4000AF4FB1E03ED0B4E03CD0670F781F891F90
:102E50009A1FA11D680F791F8A1F911DA11D6A0F5E
:102E6000711D811D911DA11D20D009F468943F9111
:102E70002AE0269F11243019305D3193DEF6CF0110
:102E80000895462F4770405D4193B3E00FD0C9F7D6
:102E9000F6CF462F4F70405D4A3318F0495D31FD43
:102EA0004052419302D0A9F7EACFB4E0A695979596
:102EB000879577956795BA95C9F70097610571056C
:102EC00008959B01AC010A2E0694579547953795B6
:102ED0002795BA95C9F7620F731F841F951FA01D10
:062EE0000895F894FFCFF5
:102EE600583D2025642000593D20256420004F4E82
:0E2EF600004F464600000000000000000000F3
:00000001FF
