:100000000C942A000C9434000C9434000C943400AA
:100010000C9434000C9434000C9434000C94340090
:100020000C9434000C9434000C9434000C94340080
:100030000C9434000C9434000C9434000C94340070
:100040000C9434000C9434000C9434000C94340060
:100050000C94340011241FBECFE5D8E0DEBFCDBF25
:100060000E94AD030C94FE030C9400004130B1F5E6
:10007000813099F0813030F08230D1F0833009F056
:1000800067C021C02AB381E090E002C0880F991FA9
:100090006A95E2F7282B2ABB089527B381E090E008
:1000A00002C0880F991F6A95E2F7282B27BB089595
:1000B00024B381E090E002C0880F991F6A95E2F7AF
:1000C000282B24BB089521B381E090E002C0880F63
:1000D000991F6A95E2F7282B21BB08954423C1F5A7
:1000E000813099F0813028F08230D9F0833081F569
:1000F00024C02AB381E090E002C0880F991F6A955E
:10010000E2F7809582238ABB089527B381E090E0CF
:1001100002C0880F991F6A95E2F78095822387BBFA
:10012000089524B381E090E002C0880F991F6A957A
:10013000E2F78095822384BB089521B381E090E0AB
:1001400002C0880F991F6A95E2F78095822381BBD0
:1001500008954130B1F5813099F0813030F082302E
:10016000D1F0833009F067C021C02BB381E090E06B
:1001700002C0880F991F6A95E2F7282B2BBB0895C0
:1001800028B381E090E002C0880F991F6A95E2F7DA
:10019000282B28BB089525B381E090E002C0880F8A
:1001A000991F6A95E2F7282B25BB089522B381E0B9
:1001B00090E002C0880F991F6A95E2F7282B22BBB6
:1001C00008954423C1F5813099F0813028F08230C0
:1001D000D9F0833081F524C02BB381E090E002C0D8
:1001E000880F991F6A95E2F7809582238BBB08954B
:1001F00028B381E090E002C0880F991F6A95E2F76A
:100200008095822388BB089525B381E090E002C0E9
:10021000880F991F6A95E2F78095822385BB089520
:1002200022B381E090E002C0880F991F6A95E2F73F
:100230008095822382BB0895813051F0813030F067
:10024000823041F0833079F080E0089589B303C0B3
:1002500086B301C083B390E002C0959587956A95F7
:10026000E2F78170089580B390E002C0959587957C
:100270006A95E2F7817008956130A9F4813051F0F8
:10028000813028F0823049F08330F9F409C08FEFD3
:100290008ABB08958FEF87BB08958FEF84BB0895C5
:1002A0008FEF81BB0895662381F4813049F081305E
:1002B00028F0823039F0833041F406C01ABA08952C
:1002C00017BA089514BA089511BA0895813049F003
:1002D000813028F0823039F0833041F406C06BBBA6
:1002E000089568BB089565BB089562BB0895813089
:1002F00091F0813028F08230C9F0833061F521C05F
:100300002BB381E090E002C0880F991F6A95E2F755
:1003100028272BBB089528B381E090E002C0880F06
:10032000991F6A95E2F7282728BB089525B381E035
:1003300090E002C0880F991F6A95E2F7282725BB35
:10034000089522B381E090E002C0880F991F6A955A
:10035000E2F7282722BB08951F93182F83E060E05F
:1003600040E00E94A90083E061E040E00E94A90013
:1003700082E0612F0E94660183E062E041E00E941A
:10038000A90080ED97E00197F1F783E062E040E09B
:100390000E94A900113021F480EA9FE00197F1F753
:1003A0001F91089581E00E94AC0180E797E10197D9
:1003B000F1F70895882329F4862F80580E94AC0114
:1003C0000895813021F4862F80540E94AC01089555
:1003D000FF920F931F93F62E83E060E041E00E94AE
:1003E000A90083E061E040E00E94A90000EA1FE06C
:1003F000C8010197F1F782E06F2D0E946601C801E4
:100400000197F1F783E062E041E00E94A900C80192
:100410000197F1F783E062E040E00E94A900C80183
:100420000197F1F71F910F91FF9008955F926F92DE
:100430007F928F929F92AF92BF92CF92DF92EF9274
:10044000FF920F931F935B016C016115710581058C
:10045000910509F45EC06624772443015524C40144
:10046000B3012AE030E040E050E00E94BD037B0190
:100470008C01C601B5010E94DC033B014C016E0CEE
:100480007F1C801E911EC601B5012AE030E040E0CD
:1004900050E00E94DC03C901DA015C016D01539454
:1004A000A114B104C104D104D1F623C0C401B30125
:1004B0002AE030E040E050E00E94DC037B018C0148
:1004C000C401B3012AE030E040E050E00E94DC03C8
:1004D000C901DA013C014D0180E390E0A0E0B0E009
:1004E000E80EF91E0A1F1B1FC801B7010E94E80190
:1004F0005A946114710481049104C1F607C060E349
:1005000070E080E090E00E94E8015A945520B9F72D
:1005100006C060E370E080E090E00E94E8011F9177
:100520000F91FF90EF90DF90CF90BF90AF909F9092
:100530008F907F906F905F900895EF92FF921F933E
:10054000CF93DF93EC0110E080EDE82E87E0F82EEA
:1005500009C070E080E090E00E94E801C7010197C7
:10056000F1F71F5FFE01E10FF11D6081662389F73E
:10057000DF91CF911F91FF90EF9008950F931F93FC
:100580008A010E94DA01C8010E949D021F910F9109
:1005900008952F923F924F925F926F927F928F9227
:1005A0009F92AF92BF92CF92DF92EF92FF921F93F2
:1005B000DF93CF93CDB7DEB764970FB6F894DEBF65
:1005C0000FBECDBF4B015C01611571058105910521
:1005D00031F460E370E080E090E00E94E801C50142
:1005E000B4014424552432010FC00894411C511C0D
:1005F000611C711C2AE030E040E050E00E94DC0306
:10060000C901DA01BC01CD016115710581059105B2
:1006100061F7FE01319684E1DF011D928A95E9F7C9
:10062000CC24DD2476011F0129C0C501B4012AE0D4
:1006300030E040E050E00E94DC03162FC501B40119
:100640002AE030E040E050E00E94DC03C901DA011A
:100650004C015D01D701C60180959095A095B0959C
:10066000840D951DA61DB71DF101E80FF91F105D42
:1006700010830894C11CD11CE11CF11CC414D504C6
:10068000E604F70490F2F101E40DF51D1082C101BA
:100690000E949D0264960FB6F894DEBF0FBECDBFD8
:1006A000CF91DF911F91FF90EF90DF90CF90BF909F
:1006B000AF909F908F907F906F905F904F903F9002
:1006C0002F9008950F931F9382E061E00E943C01F8
:1006D00083E060E041E00E94360083E061E041E0B9
:1006E0000E94360083E062E041E00E94360080E92B
:1006F00091E028EC30E0F9013197F1F70197D9F753
:1007000088E30E94AC0100ED17E0C8010197F1F702
:100710008FE00E94AC01C8010197F1F781E00E94CF
:10072000AC0180EA9FE00197F1F786E00E94AC01FE
:100730001F910F91089581B5886081BD81B5846056
:1007400081BD81B5826081BD81B58E7F81BD0895F7
:1007500081B5886181BD11BC0895D09A0E949B0328
:10076000D89A88E893E128EC30E0F9013197F1F765
:100770000197D9F78BB31BBAFFCF629FD001739F4C
:10078000F001829FE00DF11D649FE00DF11D929F2D
:10079000F00D839FF00D749FF00D659FF00D99276C
:1007A000729FB00DE11DF91F639FB00DE11DF91F90
:1007B000BD01CF0111240895A1E21A2EAA1BBB1B73
:1007C000FD010DC0AA1FBB1FEE1FFF1FA217B3071D
:1007D000E407F50720F0A21BB30BE40BF50B661F33
:1007E000771F881F991F1A9469F7609570958095F7
:1007F00090959B01AC01BD01CF010895F894FFCF06
:00000001FF
