:100000000C942A000C9447000C9447000C94470071
:100010000C9447000C9447000C9447000C94470044
:100020000C9447000C9447000C9447000C94470034
:100030000C9447000C9447000C9447000C94470024
:100040000C9447000C9447000C9447000C94470014
:100050000C94470011241FBECFE5D8E0DEBFCDBF12
:1000600011E0A0E6B0E0ECE6F8E302C005900D92E6
:10007000AC3AB107D9F711E0ACEAB1E001C01D928A
:10008000AE3AB107E1F70E94D9190C94341C0C94D4
:100090000000EF92FF920F931F937B018C0120E0F1
:1000A00030E040E05FE40E94F50388238CF0C80153
:1000B000B70120E030E040E05FE40E94C1010E940F
:1000C000B3049B01AC01205030404040504806C072
:1000D000C801B7010E94B3049B01AC01B901CA0178
:1000E0001F910F91FF90EF900895A0E0B0E0EBE733
:1000F000F0E00C94FD1BDC012B01FA019C91923085
:1001000008F439C1EB018881823008F433C194309E
:1001100069F4843009F02FC111969C91119789815F
:10012000981709F428C1A4E8B0E025C1843009F487
:1001300021C18230A9F4923009F01DC19A01AD01AC
:1001400088E0EA010990AE01E90109929E0181501F
:10015000C1F7E201898111969C918923818308C1AD
:10016000923009F407C112962D903C901397EB0141
:100170008A819B811496AD90BD90CD90DC901797AD
:10018000EC80FD800E811F819101281B390BB90184
:1001900037FF04C066277727621B730B6032710537
:1001A0000CF061C0121613066CF537014801062EDB
:1001B00004C096948794779467940A94D2F721E0C8
:1001C00030E040E050E004C0220F331F441F551FB1
:1001D0006A95D2F721503040404050402E213F21B7
:1001E00040235123211531054105510521F021E01E
:1001F00030E040E050E079018A01E628F72808293C
:1002000019293CC0232BD1F1260E371E350146019A
:10021000062E04C096948794779467940A94D2F734
:1002200021E030E040E050E004C0220F331F441FC3
:10023000551F6A95D2F721503040404050402A2146
:100240003B214C215D21211531054105510521F04E
:1002500021E030E040E050E059016A01A628B728CB
:10026000C828D9280BC0821593052CF01C01AA249C
:10027000BB24650103C0EE24FF24870111969C91E5
:10028000D20111968C91981709F445C0992339F041
:10029000A80197012A193B094C095D0906C0A6016E
:1002A00095012E193F09400B510B57FD08C01182D3
:1002B0003382228224833583468357831DC081E0A5
:1002C00081833382228288279927DC01821B930B4A
:1002D000A40BB50B84839583A683B7830DC0220F2F
:1002E000331F441F551F24833583468357838281E0
:1002F000938101979383828324813581468157813D
:10030000DA01C9010197A109B1098F5F9F4FAF4F72
:10031000BF4328F30BC0918333822282EA0CFB1C7B
:100320000C1D1D1DE482F5820683178383E0808304
:10033000248135814681578157FF1AC0C901AA27F8
:1003400097FDA095BA2F81709070A070B0705695EF
:10035000479537952795822B932BA42BB52B848318
:100360009583A683B7838281938101969383828349
:10037000DF0101C0D201CD01CDB7DEB7E2E10C94BF
:10038000191CA0E2B0E0E7ECF1E00C94091C6983D1
:100390007A838B839C832D833E834F835887E9E048
:1003A000EE2EF12CEC0EFD1ECE010196B7010E943F
:1003B000A4068E010F5E1F4FCE010596B8010E9464
:1003C000A4068A8991E089278A8BC701B801AE010A
:1003D000475E5F4F0E9475000E94CF05A096E6E041
:1003E0000C94251CA0E2B0E0E8EFF1E00C94091CAD
:1003F00069837A838B839C832D833E834F835887C5
:10040000F9E0EF2EF12CEC0EFD1ECE010196B701A6
:100410000E94A4068E010F5E1F4FCE010596B80103
:100420000E94A406C701B801AE01475E5F4F0E945B
:1004300075000E94CF05A096E6E00C94251CA0E272
:10044000B0E0E5E2F2E00C94FD1B69837A838B83D4
:100450009C832D833E834F835887CE010196BE0136
:10046000675F7F4F0E94A406CE010596BE016F5EB6
:100470007F4F0E94A4069985923088F08989823046
:10048000C8F0943019F4823051F404C0843029F457
:10049000923081F484E890E0C6C0923049F420E0C4
:1004A0009A858A89981321E02A87CE010996BBC0D4
:1004B000823049F420E09A858A89981321E02A8BBA
:1004C000CE014196B0C02D843E844F8458886D88FB
:1004D0007E888F88988CEE24FF248701AA24BB2471
:1004E000650140E050E060E070E0E0E0F0E0C10174
:1004F00081709070892BE9F0E60CF71C081D191D1E
:100500009A01AB012A0D3B1D4C1D5D1D80E090E062
:10051000A0E0B0E0E614F7040805190520F481E036
:1005200090E0A0E0B0E0BA01A901480F591F6A1F8E
:100530007B1FAA0CBB1CCC1CDD1C97FE08C081E0F5
:1005400090E0A0E0B0E0A82AB92ACA2ADB2A3196B6
:10055000E032F10549F0660C771C881C991C569412
:10056000479437942794C3CFFA85EA892B893C892D
:100570008B859C85280F391F2E5F3F4F17C0CA01FE
:1005800081709070892B61F016950795F794E79428
:1005900080E090E0A0E0B0E8E82AF92A0A2B1B2BC3
:1005A00076956795579547952F5F3F4F77FDE7CF36
:1005B0000CC0440F551F661F771F17FD4160EE0CDE
:1005C000FF1C001F111F21503040403090E05907A0
:1005D00090E0690790E4790760F32B8F3C8FDB0193
:1005E000CA018F779070A070B07080349105A1051A
:1005F000B10561F447FD0AC0E114F10401051105DC
:1006000029F0405C5F4F6F4F7F4F40781A8EFE1786
:1006100011F081E08A8F4D8F5E8F6F8F78A383E01A
:10062000898FCE0149960E94CF05A096E2E10C94F5
:10063000191CA8E1B0E0EFE1F3E00C94051C69831C
:100640007A838B839C832D833E834F835887B9E0C5
:10065000EB2EF12CEC0EFD1ECE010196B7010E948F
:10066000A4068E010F5E1F4FCE010596B8010E94B1
:10067000A4062985223008F47EC03989323010F46E
:10068000B8017CC08A859A8989278A87243011F02D
:10069000223031F4231709F06EC064E870E06EC0B8
:1006A000343039F41D861E861F86188A1C861B86E8
:1006B00004C0323021F484E08987B7015FC02B8504
:1006C0003C858B899C89281B390B3C872B87ED84C3
:1006D000FE840F851889AD88BE88CF88D88CEA142F
:1006E000FB040C051D0540F4EE0CFF1C001F111F40
:1006F000215030403C872B8720E030E040E050E044
:1007000080E090E0A0E0B0E460E070E0EA14FB0478
:100710000C051D0540F0282B392B4A2B5B2BEA18C2
:10072000FB080C091D09B695A79597958795EE0CC2
:10073000FF1C001F111F6F5F7F4F6F31710531F775
:10074000DA01C9018F779070A070B0708034910584
:10075000A105B10561F427FD0AC0E114F10401050A
:10076000110529F0205C3F4F4F4F5F4F20782D87B8
:100770003E874F87588BBE01675F7F4FCB010E943A
:10078000CF056896EAE00C94211CA8E1B0E0EBEC00
:10079000F3E00C94091C69837A838B839C832D83FB
:1007A0003E834F83588789E0E82EF12CEC0EFD1E26
:1007B000CE010196B7010E94A4068E010F5E1F4F65
:1007C000CE010596B8010E94A4068985823040F0CA
:1007D0008989823028F0C701B8010E941C0701C036
:1007E0008FEF6896E6E00C94251CA8E1B0E0EBEFF3
:1007F000F3E00C94091C69837A838B839C832D839B
:100800003E834F83588789E0E82EF12CEC0EFD1EC5
:10081000CE010196B7010E94A4068E010F5E1F4F04
:10082000CE010596B8010E94A4068985823040F069
:100830008989823028F0C701B8010E941C0701C0D5
:100840008FEF6896E6E00C94251CA8E1B0E0EBE29F
:10085000F4E00C94091C69837A838B839C832D8339
:100860003E834F83588789E0E82EF12CEC0EFD1E65
:10087000CE010196B7010E94A4068E010F5E1F4FA4
:10088000CE010596B8010E94A4068985823040F009
:100890008989823028F0C701B8010E941C0701C075
:1008A00081E06896E6E00C94251CA8E0B0E0EBE55A
:1008B000F4E00C94061C9B01AC0183E08983DA010F
:1008C000C9018827B7FD83959927AA27BB27B82E8A
:1008D000211531054105510519F482E089833AC09B
:1008E0008823A9F0203080E0380780E0480780E8BE
:1008F000580729F460E070E080E09FEC30C0EE24FF
:10090000FF248701E21AF30A040B150B02C07901D8
:100910008A018EE1C82ED12CDC82CB82ED82FE8250
:100920000F831887C801B7010E9480050197181628
:10093000190684F4082E04C0EE0CFF1C001F111FC2
:100940000A94D2F7ED82FE820F831887C81AD90A5B
:10095000DC82CB82BA82CE0101960E94CF05289616
:10096000E9E00C94221CACE0B0E0E9EBF4E00C947C
:100970000D1C69837A838B839C83CE010196BE0113
:100980006B5F7F4F0E94A4068D81823061F18230BF
:1009900050F1843021F48E81882351F12EC02F81B3
:1009A000388537FD20C06E812F3131051CF066235C
:1009B000F9F023C08EE190E0821B930B29853A85E4
:1009C0004B855C8504C056954795379527958A9544
:1009D000D2F76623B1F050954095309521953F4F61
:1009E0004F4F5F4F0EC020E030E040E050E009C0C4
:1009F0002FEF3FEF4FEF5FE704C020E030E040E033
:100A000050E8B901CA012C96E2E00C94291CA8E038
:100A1000B0E0EDE0F5E00C94051C7B018C01611564
:100A200071058105910519F482E0898360C083E036
:100A300089838EE1C82ED12CDC82CB82ED82FE82AE
:100A40000F831887C801B7010E948005FC01319708
:100A5000F7FF3BC0222733272E1B3F0B57016801AE
:100A6000022E04C0D694C794B794A7940A94D2F7E0
:100A700040E050E060E070E081E090E0A0E0B0E0B5
:100A800004C0880F991FAA1FBB1F2A95D2F7019790
:100A9000A109B1098E219F21A023B1230097A105AF
:100AA000B10521F041E050E060E070E04A295B29A7
:100AB0006C297D294D835E836F8378878EE190E07A
:100AC0008E1B9F0B9C838B8312C0309781F00E2E60
:100AD00004C0EE0CFF1C001F111F0A94D2F7ED8218
:100AE000FE820F831887CE1ADF0ADC82CB821A823D
:100AF000CE0101960E94CF052896EAE00C94211CB5
:100B0000EF92FF920F931F937B018C0180E0E81618
:100B100080E0F80681E0080780E0180788F48FEF8E
:100B2000E816F1040105110531F028F088E090E0A5
:100B3000A0E0B0E017C080E090E0A0E0B0E012C01C
:100B400080E0E81680E0F80680E0080781E01807FA
:100B500028F088E190E0A0E0B0E004C080E190E0FF
:100B6000A0E0B0E020E230E040E050E0281B390B8C
:100B70004A0B5B0B04C016950795F794E7948A958A
:100B8000D2F7F701E457FF4F8081281B3109410953
:100B90005109C9011F910F91FF90EF900895DF92C5
:100BA000EF92FF920F931F93FC01E480F580068182
:100BB0001781D1808081823048F480E090E0A0E10C
:100BC000B0E0E82AF92A0A2B1B2BA5C0843009F4CF
:100BD0009FC0823021F4EE24FF24870105C0E11478
:100BE000F1040105110519F4E0E0F0E096C062811E
:100BF00073819FEF623879070CF05BC022E83FEF0A
:100C0000261B370B2A3131052CF020E030E040E084
:100C100050E02AC0B801A701022E04C0769567955E
:100C2000579547950A94D2F781E090E0A0E0B0E0B4
:100C300004C0880F991FAA1FBB1F2A95D2F70197DE
:100C4000A109B1098E219F21A023B1230097A105FD
:100C5000B10521F081E090E0A0E0B0E09A01AB01A5
:100C6000282B392B4A2B5B2BDA01C9018F77907027
:100C7000A070B07080349105A105B10539F427FF4B
:100C800009C0205C3F4F4F4F5F4F04C0215C3F4F76
:100C90004F4F5F4FE0E0F0E02030A0E03A07A0E0E7
:100CA0004A07A0E45A0710F0E1E0F0E079018A0178
:100CB00027C06038710564F5FB01E158FF4FD8018A
:100CC000C7018F779070A070B07080349105A10536
:100CD000B10539F4E7FE0DC080E490E0A0E0B0E09B
:100CE00004C08FE390E0A0E0B0E0E80EF91E0A1F18
:100CF0001B1F17FF05C016950795F794E7943196CB
:100D000087E016950795F794E7948A95D1F705C083
:100D1000EE24FF248701EFEFF0E06E2F6795662742
:100D20006795902F9F77D794DD24D7948E2F869543
:100D3000492F462B582F5D29B701CA011F910F91EA
:100D4000FF90EF90DF900895FC01DB01408151811D
:100D50002281622F6F7770E0221F2227221F93814A
:100D6000892F880F822B282F30E0991F9927991FF0
:100D700011969C93119721153105A9F5411551053F
:100D80006105710511F482E037C082E89FEF139688
:100D90009C938E9312979A01AB0167E0220F331F49
:100DA000441F551F6A95D1F783E08C930DC0220F25
:100DB000331F441F551F12968D919C9113970197D5
:100DC00013969C938E931297203080E0380780E032
:100DD000480780E4580758F314962D933D934D939C
:100DE0005C93179708952F3F310579F4411551050C
:100DF0006105710519F484E08C93089564FF03C0C4
:100E000081E08C9312C01C9210C02F573040139673
:100E10003C932E93129783E08C9387E0440F551FE9
:100E2000661F771F8A95D1F7706414964D935D9372
:100E30006D937C93179708951F93DC01FB019C91A0
:100E4000923008F447C08081823008F443C0943067
:100E500051F411961C91843099F58181682F70E0CE
:100E6000611B71093FC0843021F0923031F482302F
:100E7000B9F18181882389F12DC011961C911197B8
:100E80008230F1F081811817D9F412962D913C919E
:100E90001397828193818217930794F0281739075B
:100EA000BCF014968D919D910D90BC91A02D248144
:100EB000358146815781281739074A075B0718F49F
:100EC000112341F00AC082179307A407B50740F425
:100ED000112319F061E070E005C06FEF7FEF02C0F1
:100EE00060E070E0CB011F910895DF93CF93CDB701
:100EF000DEB727970FB6F894DEBF0FBECDBF89834C
:100F00006A834B838B81813009F06FC08981282FE0
:100F100030E03F832E838E819F818130910549F19E
:100F20002E813F81223031052CF48E819F810097E4
:100F300061F0D2C02E813F812230310571F18E8166
:100F40009F8183309105E9F1C7C0AAE3B0E0EAE3ED
:100F5000F0E08081482F8A81282F30E081E090E006
:100F6000022E02C0880F991F0A94E2F7842B8C93FB
:100F7000B3C0A7E3B0E0E7E3F0E08081482F8A81C7
:100F8000282F30E081E090E0022E02C0880F991FE8
:100F90000A94E2F7842B8C939FC0A4E3B0E0E4E3CF
:100FA000F0E08081482F8A81282F30E081E090E0B6
:100FB000022E02C0880F991F0A94E2F7842B8C93AB
:100FC0008BC0A1E3B0E0E1E3F0E08081482F8A81AB
:100FD000282F30E081E090E0022E02C0880F991F98
:100FE0000A94E2F7842B8C9377C08B81882309F0D5
:100FF00073C08981282F30E03D832C838C819D81B3
:101000008130910559F12C813D81223031052CF43C
:101010008C819D81009769F05FC02C813D812230D9
:10102000310589F18C819D818330910509F440C09F
:1010300053C0AAE3B0E0EAE3F0E08081482F8A8160
:10104000282F30E081E090E0022E02C0880F991F27
:101050000A94E2F7809584238C933EC0A7E3B0E026
:10106000E7E3F0E08081482F8A81282F30E081E09B
:1010700090E0022E02C0880F991F0A94E2F7809533
:1010800084238C9329C0A4E3B0E0E4E3F0E0808102
:10109000482F8A81282F30E081E090E0022E02C0A4
:1010A000880F991F0A94E2F7809584238C9314C0CB
:1010B000A1E3B0E0E1E3F0E08081482F8A81282FAE
:1010C00030E081E090E0022E02C0880F991F0A9460
:1010D000E2F7809584238C9327960FB6F894DEBFB1
:1010E0000FBECDBFCF91DF910895DF93CF93CDB7E2
:1010F000DEB727970FB6F894DEBF0FBECDBF89834A
:101100006A834B838B81813009F06FC08981282FDE
:1011100030E03F832E838E819F818130910549F19C
:101120002E813F81223031052CF48E819F810097E2
:1011300061F0D2C02E813F812230310571F18E8164
:101140009F8183309105E9F1C7C0ABE3B0E0EBE3E9
:10115000F0E08081482F8A81282F30E081E090E004
:10116000022E02C0880F991F0A94E2F7842B8C93F9
:10117000B3C0A8E3B0E0E8E3F0E08081482F8A81C3
:10118000282F30E081E090E0022E02C0880F991FE6
:101190000A94E2F7842B8C939FC0A5E3B0E0E5E3CB
:1011A000F0E08081482F8A81282F30E081E090E0B4
:1011B000022E02C0880F991F0A94E2F7842B8C93A9
:1011C0008BC0A2E3B0E0E2E3F0E08081482F8A81A7
:1011D000282F30E081E090E0022E02C0880F991F96
:1011E0000A94E2F7842B8C9377C08B81882309F0D3
:1011F00073C08981282F30E03D832C838C819D81B1
:101200008130910559F12C813D81223031052CF43A
:101210008C819D81009769F05FC02C813D812230D7
:10122000310589F18C819D818330910509F440C09D
:1012300053C0ABE3B0E0EBE3F0E08081482F8A815C
:10124000282F30E081E090E0022E02C0880F991F25
:101250000A94E2F7809584238C933EC0A8E3B0E023
:10126000E8E3F0E08081482F8A81282F30E081E098
:1012700090E0022E02C0880F991F0A94E2F7809531
:1012800084238C9329C0A5E3B0E0E5E3F0E08081FE
:10129000482F8A81282F30E081E090E0022E02C0A2
:1012A000880F991F0A94E2F7809584238C9314C0C9
:1012B000A2E3B0E0E2E3F0E08081482F8A81282FAA
:1012C00030E081E090E0022E02C0880F991F0A945E
:1012D000E2F7809584238C9327960FB6F894DEBFAF
:1012E0000FBECDBFCF91DF910895DF93CF9300D094
:1012F00000D00F92CDB7DEB78A836B8319828A81C3
:10130000282F30E03D832C834C815D814130510595
:1013100041F18C819D818230910534F42C813D8195
:101320002115310561F052C04C815D81423051057B
:1013300051F18C819D8183309105B9F147C0E9E37A
:10134000F0E08081282F30E08B81882F90E0A90188
:1013500002C0559547958A95E2F7CA018170898345
:1013600035C0E6E3F0E08081282F30E08B81882FC4
:1013700090E0A90102C0559547958A95E2F7CA0108
:101380008170898323C0E3E3F0E08081282F30E07F
:101390008B81882F90E0A90102C0559547958A95C9
:1013A000E2F7CA018170898311C0E0E3F0E0808137
:1013B000282F30E08B81882F90E0A90102C055953D
:1013C00047958A95E2F7CA018170898389810F90D8
:1013D0000F900F900F900F90CF91DF910895DF93B2
:1013E000CF9300D000D000D0CDB7DEB789836A8319
:1013F0008A81813099F58981282F30E03E832D83C1
:101400008D819E8181309105D1F02D813E812230E8
:1014100031052CF48D819E81009761F050C02D81A3
:101420003E812230310581F08D819E81833091058E
:1014300081F045C0EAE3F0E08FEF808340C0E7E34E
:10144000F0E08FEF80833BC0E4E3F0E08FEF808338
:1014500036C0E1E3F0E08FEF808331C08A818823DA
:1014600071F58981282F30E03C832B838B819C810F
:1014700081309105C9F02B813C81223031052CF45B
:101480008B819C81009761F01AC02B813C812230B6
:10149000310571F08B819C818330910569F00FC01B
:1014A000EAE3F0E010820BC0E7E3F0E0108207C04F
:1014B000E4E3F0E0108203C0E1E3F0E0108226965E
:1014C0000FB6F894DEBF0FBECDBFCF91DF91089568
:1014D000DF93CF9300D000D0CDB7DEB789836A8386
:1014E0008981282F30E03C832B838B819C81813044
:1014F0009105D1F02B813C81223031052CF48B8178
:101500009C81009761F01EC02B813C812230310507
:1015100081F08B819C818330910581F013C0EBE3D6
:10152000F0E08A8180830EC0E8E3F0E08A81808366
:1015300009C0E5E3F0E08A81808304C0E2E3F0E0E3
:101540008A8180830F900F900F900F90CF91DF9141
:101550000895DF93CF9300D000D0CDB7DEB7898355
:101560006A838981282F30E03C832B838B819C8187
:101570008130910549F12B813C81223031052CF4D9
:101580008B819C81009761F05AC02B813C81223075
:10159000310571F18B819C8183309105E9F14FC058
:1015A000ABE3B0E0EBE3F0E08081482F8A81282FA5
:1015B00030E081E090E0022E02C0880F991F0A946B
:1015C000E2F784278C933BC0A8E3B0E0E8E3F0E0C7
:1015D0008081482F8A81282F30E081E090E0022E20
:1015E00002C0880F991F0A94E2F784278C9327C0C2
:1015F000A5E3B0E0E5E3F0E08081482F8A81282F61
:1016000030E081E090E0022E02C0880F991F0A941A
:10161000E2F784278C9313C0A2E3B0E0E2E3F0E0AA
:101620008081482F8A81282F30E081E090E0022ECF
:1016300002C0880F991F0A94E2F784278C930F90B9
:101640000F900F900F90CF91DF910895DF93CF937C
:1016500000D000D0CDB7DEB78A8319828A81282FC7
:1016600030E03C832B838B819C8181309105D1F0CC
:101670002B813C81223031052CF48B819C81009799
:1016800061F01EC02B813C812230310581F08B81BD
:101690009C818330910581F013C0E9E3F0E0808103
:1016A00089830EC0E6E3F0E08081898309C0E3E32B
:1016B000F0E08081898304C0E0E3F0E080818983E9
:1016C00089810F900F900F900F90CF91DF91089527
:1016D000DF93CF93CDB7DEB781E060E041E00E94B9
:1016E000750781E061E041E00E94750781E062E0FA
:1016F00041E00E94750781E063E041E00E947507C8
:1017000081E064E040E00E94750781E065E040E030
:101710000E94750781E066E040E00E94750781E065
:1017200067E040E00E94750781E064E041E00E94CC
:10173000750881E065E041E00E94750881E066E09F
:1017400041E00E94750881E067E041E00E94750871
:1017500081E060E041E00E94750881E061E041E0E5
:101760000E94750881E062E041E00E94750881E016
:1017700063E041E00E947508CF91DF910895DF9307
:10178000CF93CDB7DEB761970FB6F894DEBF0FBE2B
:10179000CDBF81E064E041E00E94750881E065E032
:1017A00041E00E94750881E066E041E00E94750812
:1017B00081E067E041E00E94750883E4898B188A24
:1017C0001F861F86ADC081E06F8540E00E947508CE
:1017D000188A9AC08889982F9C5F81E0692F0E949F
:1017E0007509882309F08DC08F85482F50E08889BE
:1017F000282F30E0CA01880F991F880F991F820F88
:10180000931FFC01E457FE4F8081898B8889982FB4
:101810009C5F81E0692F0E9475098823B9F380E0FD
:1018200090E0A0E2B1E48B879C87AD87BE876B8593
:101830007C858D859E8520E030E04AEF54E40E944F
:101840001F02DC01CB018F839887A987BA876F813C
:10185000788589859A8520E030E040E85FE30E9442
:10186000250488232CF481E090E09E838D833FC083
:101870006F81788589859A8520E03FEF4FE757E4AF
:101880000E94C50318164CF56B857C858D859E8559
:1018900020E030E040E251E40E941F02DC01CB0175
:1018A000BC01CD010E944900DC01CB019E838D83E8
:1018B0000FC088EC90E09C838B838B819C81019787
:1018C000F1F79C838B838D819E8101979E838D830D
:1018D0008D819E81009769F714C06F817885898515
:1018E0009A850E944900DC01CB019E838D838D8106
:1018F0009E819A83898389819A810197F1F79A83DE
:10190000898388898F5F888B8889843008F462CFC7
:1019100081E06F8541E00E9475088F858F5F8F871A
:101920008F85843008F44FCF898961960FB6F8947B
:10193000DEBF0FBECDBFCF91DF910895DF93CF9370
:10194000CDB7DEB7EA970FB6F894DEBF0FBECDBFB6
:1019500019AE81E060E040E00E94750881E061E03E
:1019600041E00E94750881E062E041E00E94750854
:1019700081E063E041E00E94750884E08AAF8DC099
:1019800081E06AAD0E947509882361F48AAD882FD1
:1019900090E0880F991F880F991FFC01E457FE4FB4
:1019A000808189AF81E06AAD0E9475098823D1F3F7
:1019B00080E090E0A0EAB0E48DAB9EABAFABB8AFF7
:1019C0006DA97EA98FA998AD20E030E04AEF54E4DC
:1019D0000E941F02DC01CB0189AB9AABABABBCAB65
:1019E00069A97AA98BA99CA920E030E040E85FE3CF
:1019F0000E94250488232CF481E090E098AB8FA707
:101A00003FC069A97AA98BA99CA920E03FEF4FE7C5
:101A100057E40E94C50318164CF56DA97EA98FA93D
:101A200098AD20E030E040E251E40E941F02DC016A
:101A3000CB01BC01CD010E944900DC01CB0198AB78
:101A40008FA70FC088EC90E09EA78DA78DA59EA5BF
:101A50000197F1F79EA78DA78FA598A9019798AB3D
:101A60008FA78FA598A9009769F714C069A97AA9CB
:101A70008BA99CA90E944900DC01CB0198AB8FA7E0
:101A80008FA598A99CA78BA78BA59CA50197F1F77B
:101A90009CA78BA78AAD8F5F8AAF8AAD883008F488
:101AA0006FCF81E060E041E00E94750881E061E075
:101AB00040E00E94750881E062E041E00E94750804
:101AC00081E063E041E00E94750884E08AAF8DC048
:101AD00081E06AAD0E947509882361F48AAD882F80
:101AE00090E0880F991F880F991FFC01E357FE4F64
:101AF000808189AF81E06AAD0E9475098823D1F3A6
:101B000080E090E0A0EAB0E48FA398A7A9A7BAA7C5
:101B10006FA178A589A59AA520E030E04AEF54E4AA
:101B20000E941F02DC01CB018BA39CA3ADA3BEA32B
:101B30006BA17CA18DA19EA120E030E040E85FE395
:101B40000E94250488232CF481E090E09AA389A3C5
:101B50003FC06BA17CA18DA19EA120E03FEF4FE78C
:101B600057E40E94C50318164CF56FA178A589A506
:101B70009AA520E030E040E251E40E941F02DC011F
:101B8000CB01BC01CD010E944900DC01CB019AA32D
:101B900089A30FC088EC90E098A38F8F8F8D98A1B8
:101BA0000197F1F798A38F8F89A19AA101979AA322
:101BB00089A389A19AA1009769F714C06BA17CA1A0
:101BC0008DA19EA10E944900DC01CB019AA389A3AB
:101BD00089A19AA19E8F8D8F8D8D9E8D0197F1F792
:101BE0009E8F8D8F8AAD8F5F8AAF8AAD883008F463
:101BF0006FCF81E060E041E00E94750881E061E024
:101C000041E00E94750881E062E040E00E947508B2
:101C100081E063E041E00E94750884E08AAF8EC0F5
:101C200081E06AAD0E947509882369F48AAD882F26
:101C300090E0880F991F0196880F991FFC01E457C7
:101C4000FE4F808189AF81E06AAD0E9475098823CB
:101C5000D1F380E090E0A0EAB0E4898F9A8FAB8F57
:101C6000BC8F698D7A8D8B8D9C8D20E030E04AEFA2
:101C700054E40E941F02DC01CB018D8B9E8BAF8B45
:101C8000B88F6D897E898F89988D20E030E040E89B
:101C90005FE30E94250488232CF481E090E09C8B74
:101CA0008B8B3FC06D897E898F89988D20E03FEFB7
:101CB0004FE757E40E94C50318164CF5698D7A8DDD
:101CC0008B8D9C8D20E030E040E251E40E941F02A9
:101CD000DC01CB01BC01CD010E944900DC01CB013C
:101CE0009C8B8B8B0FC088EC90E09A8B898B8989B9
:101CF0009A890197F1F79A8B898B8B899C89019737
:101D00009C8B8B8B8B899C89009769F714C06D899C
:101D10007E898F89988D0E944900DC01CB019C8BC4
:101D20008B8B8B899C89988B8F878F85988901975E
:101D3000F1F7988B8F878AAD8F5F8AAF8AAD883035
:101D400008F46ECF81E060E041E00E94750881E018
:101D500061E041E00E94750881E062E041E00E949C
:101D6000750881E063E040E00E94750884E08AAF76
:101D70008DC081E06AAD0E947509882361F48AAD47
:101D8000882F90E0880F991F880F991FFC01E15759
:101D9000FE4F808189AF81E06AAD0E94750988237A
:101DA000D1F380E090E0A0EAB0E48B879C87AD8718
:101DB000BE876B857C858D859E8520E030E04AEF6F
:101DC00054E40E941F02DC01CB018F839887A9870E
:101DD000BA876F81788589859A8520E030E040E870
:101DE0005FE30E94250488232CF481E090E09E8329
:101DF0008D833FC06F81788589859A8520E03FEF8C
:101E00004FE757E40E94C50318164CF56B857C8597
:101E10008D859E8520E030E040E251E40E941F0263
:101E2000DC01CB01BC01CD010E944900DC01CB01EA
:101E30009E838D830FC088EC90E09C838B838B8185
:101E40009C810197F1F79C838B838D819E81019703
:101E50009E838D838D819E81009769F714C06F8169
:101E6000788589859A850E944900DC01CB019E8393
:101E70008D838D819E819A83898389819A8101973F
:101E8000F1F79A8389838AAD8F5F8AAF8AAD8830F4
:101E900008F46FCF89ADEA960FB6F894DEBF0FBE97
:101EA000CDBFCF91DF9108950F931F93DF93CF9311
:101EB000CDB7DEB7C057D0400FB6F894DEBF0FBE27
:101EC000CDBFFE01E359FF4F80E090E0A0E7B2E410
:101ED00080839183A283B3838E0107591F4FFE0134
:101EE000E359FF4F608171818281938120E030E06E
:101EF0004AEF54E40E941F02DC01CB01F801808309
:101F00009183A283B383FE01E759FF4F6081718102
:101F10008281938120E030E040E85FE30E94250465
:101F2000882344F4FE01E959FF4F81E090E091835A
:101F3000808364C0FE01E759FF4F60817181828117
:101F4000938120E03FEF4FE757E40E94C503181646
:101F50000CF043C0FE01E359FF4F60817181828123
:101F6000938120E030E040E251E40E941F02DC0156
:101F7000CB018E0109591F4FBC01CD010E944900C0
:101F8000DC01CB01F801918380831FC0FE01EB5976
:101F9000FF4F88EC90E091838083FE01EB59FF4F67
:101FA000808191810197F1F7FE01EB59FF4F9183F9
:101FB0008083DE01A959BF4FFE01E959FF4F80819F
:101FC0009181019711969C938E93FE01E959FF4FE1
:101FD000808191810097D1F627C08E0109591F4F4A
:101FE000FE01E759FF4F60817181828193810E94D8
:101FF0004900DC01CB01F80191838083DE01AD59FA
:10200000BF4FFE01E959FF4F808191818D939C93D1
:10201000FE01ED59FF4F808191810197F1F7FE019B
:10202000ED59FF4F9183808380E060E041E00E94A2
:10203000750780E061E041E00E94750780E062E0A2
:1020400041E00E947507FE01E15AFF4F80E090E0F9
:10205000A0E8BFE380839183A283B3838E01055AF6
:102060001F4FFE01E15AFF4F608171818281938190
:1020700020E030E04AEF54E40E941F02DC01CB0173
:10208000F80180839183A283B383FE01E55AFF4F59
:10209000608171818281938120E030E040E85FE3DC
:1020A0000E942504882344F4FE01E75AFF4F81E093
:1020B00090E09183808364C0FE01E55AFF4F608108
:1020C00071818281938120E03FEF4FE757E40E94C6
:1020D000C50318160CF043C0FE01E15AFF4F6081A2
:1020E00071818281938120E030E040E251E40E94DE
:1020F0001F02DC01CB018E01075A1F4FBC01CD012D
:102100000E944900DC01CB01F801918380831FC04C
:10211000FE01E95AFF4F88EC90E091838083FE0135
:10212000E95AFF4F808191810197F1F7FE01E95A49
:10213000FF4F91838083DE01A75ABF4FFE01E75A0C
:10214000FF4F80819181019711969C938E93FE01A0
:10215000E75AFF4F808191810097D1F627C08E0109
:10216000075A1F4FFE01E55AFF4F6081718182813E
:1021700093810E944900DC01CB01F80191838083A7
:10218000DE01AB5ABF4FFE01E75AFF4F80819181BC
:102190008D939C93FE01EB5AFF4F808191810197B3
:1021A000F1F7FE01EB5AFF4F9183808382E061E0FB
:1021B0000E94EF0983E30E940916FE01EF5AFF4FC8
:1021C00080E090E0A0E0B0E480839183A283B383B9
:1021D0008E01035B1F4FFE01EF5AFF4F608171813B
:1021E0008281938120E030E04AEF54E40E941F0294
:1021F000DC01CB01F80180839183A283B383FE01CC
:10220000E35BFF4F608171818281938120E030E048
:1022100040E85FE30E942504882344F4FE01E55B67
:10222000FF4F81E090E09183808364C0FE01E35B17
:10223000FF4F608171818281938120E03FEF4FE702
:1022400057E40E94C50318160CF043C0FE01EF5A74
:10225000FF4F608171818281938120E030E040E214
:1022600051E40E941F02DC01CB018E01055B1F4F70
:10227000BC01CD010E944900DC01CB01F801918332
:1022800080831FC0FE01E75BFF4F88EC90E09183E5
:102290008083FE01E75BFF4F808191810197F1F719
:1022A000FE01E75BFF4F91838083DE01A55BBF4F9B
:1022B000FE01E55BFF4F80819181019711969C9310
:1022C0008E93FE01E55BFF4F808191810097D1F6EF
:1022D00027C08E01055B1F4FFE01E35BFF4F60814E
:1022E0007181828193810E944900DC01CB01F80158
:1022F00091838083DE01A95BBF4FFE01E55BFF4F49
:10230000808191818D939C93FE01E95BFF4F8081D9
:1023100091810197F1F7FE01E95BFF4F9183808383
:1023200082E30E940916FE01ED5BFF4F80E090E022
:10233000A0E0B0E480839183A283B3838E01015C2B
:102340001F4FFE01ED5BFF4F6081718182819381A0
:1023500020E030E04AEF54E40E941F02DC01CB0190
:10236000F80180839183A283B383FE01FF9660818D
:1023700071818281938120E030E040E85FE30E9438
:10238000250488232CF481E090E09EAF8DAF46C0F9
:10239000FE01FF96608171818281938120E03FEF91
:1023A0004FE757E40E94C503181664F5FE01ED5B84
:1023B000FF4F608171818281938120E030E040E2B3
:1023C00051E40E941F02DC01CB01BC01CD010E943F
:1023D0004900DC01CB019EAF8DAF0FC088EC90E0CF
:1023E0009CAF8BAF8BAD9CAD0197F1F79CAF8BAFE2
:1023F0008DAD9EAD01979EAF8DAF8DAD9EAD00971B
:1024000069F716C0FE01FF96608171818281938118
:102410000E944900DC01CB019EAF8DAF8DAD9EAD1A
:102420009AAF89AF89AD9AAD0197F1F79AAF89AFAD
:1024300088E20E94091680E090E0A0E0B0E48DAB55
:102440009EABAFABB8AF6DA97EA98FA998AD20E0C8
:1024500030E04AEF54E40E941F02DC01CB0189AB5B
:102460009AABABABBCAB69A97AA98BA99CA920E0BC
:1024700030E040E85FE30E94250488232CF481E0EB
:1024800090E098AB8FA73FC069A97AA98BA99CA9B6
:1024900020E03FEF4FE757E40E94C50318164CF5C4
:1024A0006DA97EA98FA998AD20E030E040E251E40B
:1024B0000E941F02DC01CB01BC01CD010E9449003A
:1024C000DC01CB0198AB8FA70FC088EC90E09EA7F2
:1024D0008DA78DA59EA50197F1F79EA78DA78FA526
:1024E00098A9019798AB8FA78FA598A9009769F72E
:1024F00014C069A97AA98BA99CA90E944900DC0192
:10250000CB0198AB8FA78FA598A99CA78BA78BA56C
:102510009CA50197F1F79CA78BA78CE00E94091658
:1025200080E090E0A0E0B0E48FA398A7A9A7BAA7A5
:102530006FA178A589A59AA520E030E04AEF54E480
:102540000E941F02DC01CB018BA39CA3ADA3BEA301
:102550006BA17CA18DA19EA120E030E040E85FE36B
:102560000E94250488232CF481E090E09AA389A39B
:102570003FC06BA17CA18DA19EA120E03FEF4FE762
:1025800057E40E94C50318164CF56FA178A589A5DC
:102590009AA520E030E040E251E40E941F02DC01F5
:1025A000CB01BC01CD010E944900DC01CB019AA303
:1025B00089A30FC088EC90E098A38F8F8F8D98A18E
:1025C0000197F1F798A38F8F89A19AA101979AA3F8
:1025D00089A389A19AA1009769F714C06BA17CA176
:1025E0008DA19EA10E944900DC01CB019AA389A381
:1025F00089A19AA19E8F8D8F8D8D9E8D0197F1F768
:102600009E8F8D8F86E00E94091680E090E0A0E00A
:10261000B0E4898F9A8FAB8FBC8F698D7A8D8B8D4B
:102620009C8D20E030E04AEF54E40E941F02DC0160
:10263000CB018D8B9E8BAF8BB88F6D897E898F89F7
:10264000988D20E030E040E85FE30E942504882375
:102650002CF481E090E09C8B8B8B3FC06D897E8950
:102660008F89988D20E03FEF4FE757E40E94C50324
:1026700018164CF5698D7A8D8B8D9C8D20E030E09D
:1026800040E251E40E941F02DC01CB01BC01CD01FC
:102690000E944900DC01CB019C8B8B8B0FC088EC26
:1026A00090E09A8B898B89899A890197F1F79A8BA7
:1026B000898B8B899C8901979C8B8B8B8B899C89BF
:1026C000009769F714C06D897E898F89988D0E9463
:1026D0004900DC01CB019C8B8B8B8B899C89988B6F
:1026E0008F878F8598890197F1F7988B8F8781E085
:1026F0000E94091680E090E0A0E0B0E48B879C8700
:10270000AD87BE876B857C858D859E8520E030E01A
:102710004AEF54E40E941F02DC01CB018F839887AB
:10272000A987BA876F81788589859A8520E030E00E
:1027300040E85FE30E94250488232CF481E090E0C8
:102740009E838D833FC06F81788589859A8520E03F
:102750003FEF4FE757E40E94C50318164CF56B8511
:102760007C858D859E8520E030E040E251E40E942A
:102770001F02DC01CB01BC01CD010E944900DC013C
:10278000CB019E838D830FC088EC90E09C838B836C
:102790008B819C810197F1F79C838B838D819E8136
:1027A00001979E838D838D819E81009769F714C068
:1027B0006F81788589859A850E944900DC01CB016B
:1027C0009E838D838D819E819A83898389819A815D
:1027D0000197F1F79A838983C059DF4F0FB6F894B8
:1027E000DEBF0FBECDBFCF91DF911F910F91089536
:1027F000DF93CF93CDB7DEB7E9970FB6F894DEBF7E
:102800000FBECDBF89AF89AD807F8260982F82E0F7
:10281000692F0E94680A80E060E041E00E9475082C
:1028200080E061E040E00E94750880E062E041E005
:102830000E94750880E090E0A0E0B0E48DAB9EAB14
:10284000AFABB8AF6DA97EA98FA998AD20E030E0FD
:102850004AEF54E40E941F02DC01CB0189AB9AAB22
:10286000ABABBCAB69A97AA98BA99CA920E030E0ED
:1028700040E85FE30E94250488232CF481E090E087
:1028800098AB8FA73FC069A97AA98BA99CA920E022
:102890003FEF4FE757E40E94C50318164CF56DA9AA
:1028A0007EA98FA998AD20E030E040E251E40E947B
:1028B0001F02DC01CB01BC01CD010E944900DC01FB
:1028C000CB0198AB8FA70FC088EC90E09EA78DA797
:1028D0008DA59EA50197F1F79EA78DA78FA598A915
:1028E000019798AB8FA78FA598A9009769F714C097
:1028F00069A97AA98BA99CA90E944900DC01CB0196
:1029000098AB8FA78FA598A99CA78BA78BA59CA5F3
:102910000197F1F79CA78BA780E062E040E00E945E
:10292000750880E090E0A0E0B0E48FA398A7A9A785
:10293000BAA76FA178A589A59AA520E030E04AEF53
:1029400054E40E941F02DC01CB018BA39CA3ADA326
:10295000BEA36BA17CA18DA19EA120E030E040E848
:102960005FE30E94250488232CF481E090E09AA381
:1029700089A33FC06BA17CA18DA19EA120E03FEF68
:102980004FE757E40E94C50318164CF56FA178A5D0
:1029900089A59AA520E030E040E251E40E941F02A0
:1029A000DC01CB01BC01CD010E944900DC01CB015F
:1029B0009AA389A30FC088EC90E098A38F8F8F8D86
:1029C00098A10197F1F798A38F8F89A19AA10197F8
:1029D0009AA389A389A19AA1009769F714C06BA152
:1029E0007CA18DA19EA10E944900DC01CB019AA38C
:1029F00089A389A19AA19E8F8D8F8D8D9E8D019720
:102A0000F1F79E8F8D8F89AD882F90E082959295FA
:102A1000907F9827807F98278260982F82E0692F87
:102A20000E94680A80E062E041E00E94750880E050
:102A300090E0A0E0B0E4898F9A8FAB8FBC8F698D56
:102A40007A8D8B8D9C8D20E030E04AEF54E40E941B
:102A50001F02DC01CB018D8B9E8BAF8BB88F6D89F4
:102A60007E898F89988D20E030E040E85FE30E9406
:102A7000250488232CF481E090E09C8B8B8B3FC055
:102A80006D897E898F89988D20E03FEF4FE757E46D
:102A90000E94C50318164CF5698D7A8D8B8D9C8D1F
:102AA00020E030E040E251E40E941F02DC01CB0153
:102AB000BC01CD010E944900DC01CB019C8B8B8BBA
:102AC0000FC088EC90E09A8B898B89899A8901974D
:102AD000F1F79A8B898B8B899C8901979C8B8B8BC7
:102AE0008B899C89009769F714C06D897E898F89CD
:102AF000988D0E944900DC01CB019C8B8B8B8B89CC
:102B00009C89988B8F878F8598890197F1F7988B8F
:102B10008F8780E062E040E00E94750880E090E0EE
:102B2000A0E0B0E48B879C87AD87BE876B857C85F2
:102B30008D859E8520E030E04AEF54E40E941F021C
:102B4000DC01CB018F839887A987BA876F8178854D
:102B500089859A8520E030E040E85FE30E94250403
:102B600088232CF481E090E09E838D833FC06F81A9
:102B7000788589859A8520E03FEF4FE757E40E94EA
:102B8000C50318164CF56B857C858D859E8520E0E8
:102B900030E040E251E40E941F02DC01CB01BC01A5
:102BA000CD010E944900DC01CB019E838D830FC0C3
:102BB00088EC90E09C838B838B819C810197F1F75B
:102BC0009C838B838D819E8101979E838D838D81D4
:102BD0009E81009769F714C06F81788589859A85F1
:102BE0000E944900DC01CB019E838D838D819E81F3
:102BF0009A83898389819A810197F1F79A838983DE
:102C0000E9960FB6F894DEBF0FBECDBFCF91DF912E
:102C100008950F931F93DF93CF93CDB7DEB7C754BB
:102C2000D0400FB6F894DEBF0FBECDBFFE01E95B0A
:102C3000FF4F8083FE01E95BFF4F8081807F8260D0
:102C4000982F82E0692F0E94680A80E060E040E0EF
:102C50000E94750880E061E040E00E94750880E015
:102C600062E041E00E947508FE01ED5BFF4F80E0ED
:102C700090E0A0E0B0E480839183A283B3838E01CF
:102C8000015C1F4FFE01ED5BFF4F6081718182810E
:102C9000938120E030E04AEF54E40E941F02DC01FF
:102CA000CB01F80180839183A283B383FE01FF9659
:102CB000608171818281938120E030E040E85FE3B0
:102CC0000E94250488232CF481E090E09EAF8DAF14
:102CD00046C0FE01FF96608171818281938120E070
:102CE0003FEF4FE757E40E94C503181664F5FE0155
:102CF000ED5BFF4F608171818281938120E030E044
:102D000040E251E40E941F02DC01CB01BC01CD0175
:102D10000E944900DC01CB019EAF8DAF0FC088EC53
:102D200090E09CAF8BAF8BAD9CAD0197F1F79CAF62
:102D30008BAF8DAD9EAD01979EAF8DAF8DAD9EAD2E
:102D4000009769F716C0FE01FF966081718182814C
:102D500093810E944900DC01CB019EAF8DAF8DAD08
:102D60009EAD9AAF89AF89AD9AAD0197F1F79AAF51
:102D700089AF80E062E040E00E94750880E090E06A
:102D8000A0E0B0E48DAB9EABAFABB8AF6DA97EA9B0
:102D90008FA998AD20E030E04AEF54E40E941F0272
:102DA000DC01CB0189AB9AABABABBCAB69A97AA90F
:102DB0008BA99CA920E030E040E85FE30E94250455
:102DC00088232CF481E090E098AB8FA73FC069A9DD
:102DD0007AA98BA99CA920E03FEF4FE757E40E9416
:102DE000C50318164CF56DA97EA98FA998AD20E0F2
:102DF00030E040E251E40E941F02DC01CB01BC0143
:102E0000CD010E944900DC01CB0198AB8FA70FC018
:102E100088EC90E09EA78DA78DA59EA50197F1F760
:102E20009EA78DA78FA598A9019798AB8FA78FA56F
:102E300098A9009769F714C069A97AA98BA99CA9D8
:102E40000E944900DC01CB0198AB8FA78FA598A900
:102E50009CA78BA78BA59CA50197F1F79CA78BA797
:102E6000FE01E95BFF4F8081882F90E0829592956B
:102E7000907F9827807F98278260982F82E0692F23
:102E80000E94680A80E062E041E00E94750880E0EC
:102E900090E0A0E0B0E48FA398A7A9A7BAA76FA17C
:102EA00078A589A59AA520E030E04AEF54E40E9475
:102EB0001F02DC01CB018BA39CA3ADA3BEA36BA11E
:102EC0007CA18DA19EA120E030E040E85FE30E945C
:102ED000250488232CF481E090E09AA389A33FC0C5
:102EE0006BA17CA18DA19EA120E03FEF4FE757E4AD
:102EF0000E94C50318164CF56FA178A589A59AA55F
:102F000020E030E040E251E40E941F02DC01CB01EE
:102F1000BC01CD010E944900DC01CB019AA389A329
:102F20000FC088EC90E098A38F8F8F8D98A10197A8
:102F3000F1F798A38F8F89A19AA101979AA389A3EA
:102F400089A19AA1009769F714C06BA17CA18DA1FA
:102F50009EA10E944900DC01CB019AA389A389A10B
:102F60009AA19E8F8D8F8D8D9E8D0197F1F79E8FEB
:102F70008D8F80E062E040E00E94750880E090E084
:102F8000A0E0B0E4898F9A8FAB8FBC8F698D7A8D6A
:102F90008B8D9C8D20E030E04AEF54E40E941F02AC
:102FA000DC01CB018D8B9E8BAF8BB88F6D897E89B9
:102FB0008F89988D20E030E040E85FE30E9425048F
:102FC00088232CF481E090E09C8B8B8B3FC06D8933
:102FD0007E898F89988D20E03FEF4FE757E40E946C
:102FE000C50318164CF5698D7A8D8B8D9C8D20E06C
:102FF00030E040E251E40E941F02DC01CB01BC0141
:10300000CD010E944900DC01CB019C8B8B8B0FC052
:1030100088EC90E09A8B898B89899A890197F1F7DE
:103020009A8B898B8B899C8901979C8B8B8B8B8945
:103030009C89009769F714C06D897E898F89988D66
:103040000E944900DC01CB019C8B8B8B8B899C8976
:10305000988B8F878F8598890197F1F7988B8F8749
:1030600080E090E0A0EAB0E48B879C87AD87BE87C4
:103070006B857C858D859E8520E030E04AEF54E4A9
:103080000E941F02DC01CB018F839887A987BA8732
:103090006F81788589859A8520E030E040E85FE39C
:1030A0000E94250488232CF481E090E09E838D8388
:1030B0003FC06F81788589859A8520E03FEF4FE793
:1030C00057E40E94C50318164CF56B857C858D85E9
:1030D0009E8520E030E040E251E40E941F02DC01C6
:1030E000CB01BC01CD010E944900DC01CB019E83D4
:1030F0008D830FC088EC90E09C838B838B819C81B7
:103100000197F1F79C838B838D819E8101979E832C
:103110008D838D819E81009769F714C06F817885BA
:1031200089859A850E944900DC01CB019E838D83AD
:103130008D819E819A83898389819A810197F1F794
:103140009A838983C95BDF4F0FB6F894DEBF0FBE49
:10315000CDBFCF91DF911F910F910895DF93CF9352
:1031600000D00F92CDB7DEB79B838A8319820EC041
:103170008981282F30E08A819B81FC01E20FF31FB7
:1031800080810E94F81389818F5F89838981282F2C
:1031900030E08A819B81FC01E20FF31F808188234C
:1031A00039F70F900F900F90CF91DF910895DF9333
:1031B000CF93CDB7DEB729970FB6F894DEBF0FBE19
:1031C000CDBF8F838F81882319F480E30E94F81389
:1031D00019821BC08981482F552747FD50958F8143
:1031E0009AE0692F0E94F11B892F282FCE010296A9
:1031F000FC01E40FF51F20838F819AE0692F0E9464
:10320000F11B8F8389818F5F89838F81882311F7D9
:103210008981815089837EC08981282F332727FDAA
:103220003095CE010296FC01E20FF31F8081282F1A
:1032300030E039872887888599858430910509F49D
:103240004FC02885398525303105D4F48885998586
:1032500081309105C9F128853985223031052CF45A
:1032600088859985009761F152C02885398522307B
:10327000310571F1888599858330910569F147C0E1
:103280002885398527303105B9F1888599858830B9
:1032900091055CF4288539852530310529F188852B
:1032A00099858630910521F132C0288539852830ED
:1032B000310531F1888599858930910529F127C03B
:1032C00080E30E94F81323C081E30E94F8131FC01B
:1032D00082E30E94F8131BC083E30E94F81317C017
:1032E00084E30E94F81313C085E30E94F8130FC013
:1032F00086E30E94F8130BC087E30E94F81307C00F
:1033000088E30E94F81303C089E30E94F8138981BF
:1033100081508983898188230CF07ECF29960FB64E
:10332000F894DEBF0FBECDBFCF91DF910895DF933C
:10333000CF9300D0CDB7DEB789836A838981882394
:1033400021F48A8180580E9409168981813021F4F4
:103350008A8180540E9409160F900F90CF91DF91BF
:103360000895DF93CF93CDB7DEB781E00E940916B1
:10337000CF91DF910895DF93CF93CDB7DEB78CE186
:103380000E940916CF91DF910895DF93CF93CDB7B7
:10339000DEB788E10E940916CF91DF910895DF938F
:1033A000CF93CDB7DEB782E00E940916CF91DF91AF
:1033B0000895EF92FF920F931F93DF93CF93CDB7B2
:1033C000DEB7E4970FB6F894DEBF0FBECDBF0E9404
:1033D000540F0E94680B80E690E00E94AE1881E0D6
:1033E00090E061E070E00E94971982E790E00E940F
:1033F000AE1881E090E064E070E00E9497190E94AE
:10340000BF0B8AAB8AA98334D1F38AA980538AABD4
:103410008AA90E94D71880E090E0AAEFB3E48FA3B6
:1034200098A7A9A7BAA76FA178A589A59AA520E012
:1034300030E04AEF54E40E941F02DC01CB018BA371
:103440009CA3ADA3BEA36BA17CA18DA19EA120E0F6
:1034500030E040E85FE30E94250488232CF481E0FB
:1034600090E09AA389A33FC06BA17CA18DA19EA1EE
:1034700020E03FEF4FE757E40E94C50318164CF5D4
:103480006FA178A589A59AA520E030E040E251E43B
:103490000E941F02DC01CB01BC01CD010E9449004A
:1034A000DC01CB019AA389A30FC088EC90E098A31C
:1034B0008F8F8F8D98A10197F1F798A38F8F89A196
:1034C0009AA101979AA389A389A19AA1009769F764
:1034D00014C06BA17CA18DA19EA10E944900DC01BA
:1034E000CB019AA389A389A19AA19E8F8D8F8D8DDF
:1034F0009E8D0197F1F79E8F8D8F0E94B11986E7FF
:1035000090E00E94AE1880E090E064E070E00E94DD
:1035100097190E94BF0B89AB89A98334D1F389A97C
:10352000805389AB89A90E94D71880E090E0AAEF68
:10353000B3E4898F9A8FAB8FBC8F698D7A8D8B8D19
:103540009C8D20E030E04AEF54E40E941F02DC0131
:10355000CB018D8B9E8BAF8BB88F6D897E898F89C8
:10356000988D20E030E040E85FE30E942504882346
:103570002CF481E090E09C8B8B8B3FC06D897E8921
:103580008F89988D20E03FEF4FE757E40E94C503F5
:1035900018164CF5698D7A8D8B8D9C8D20E030E06E
:1035A00040E251E40E941F02DC01CB01BC01CD01CD
:1035B0000E944900DC01CB019C8B8B8B0FC088ECF7
:1035C00090E09A8B898B89899A890197F1F79A8B78
:1035D000898B8B899C8901979C8B8B8B8B899C8990
:1035E000009769F714C06D897E898F89988D0E9434
:1035F0004900DC01CB019C8B8B8B8B899C89988B40
:103600008F878F8598890197F1F7988B8F870E9414
:10361000B1198AE790E00E94AE180E94BF0B88ABF8
:1036200088A98334D1F388A90E94F81380E090E040
:10363000AAEFB3E48B879C87AD87BE876B857C85BB
:103640008D859E8520E030E04AEF54E40E941F0201
:10365000DC01CB018F839887A987BA876F81788532
:1036600089859A8520E030E040E85FE30E942504E8
:1036700088232CF481E090E09E838D833FC06F818E
:10368000788589859A8520E03FEF4FE757E40E94CF
:10369000C50318164CF56B857C858D859E8520E0CD
:1036A00030E040E251E40E941F02DC01CB01BC018A
:1036B000CD010E944900DC01CB019E838D830FC0A8
:1036C00088EC90E09C838B838B819C810197F1F740
:1036D0009C838B838D819E8101979E838D838D81B9
:1036E0009E81009769F714C06F81788589859A85D6
:1036F0000E944900DC01CB019E838D838D819E81D8
:103700009A83898389819A810197F1F79A838983C2
:103710000E94B11988A9282F30E03CAB2BAB8BA9B4
:103720009CA98B329105B1F02BA93CA92C32310513
:1037300034F48BA99CA98A329105E1F051C02BA9E0
:103740003CA92D32310571F08BA99CA98F329105CE
:10375000D9F046C08AA999A9890F8FA78FA50E9481
:10376000D7183EC08AA999A9891B8FA78FA50E9447
:10377000D71836C08AA999A9899F802D11248FA7AF
:103780008FA50E94D7182CC08AA9882F90E0A0E0AE
:10379000B0E0BC01CD010E9407057B018C0189A925
:1037A000882F90E0AA2797FDA095BA2FBC01CD01E4
:1037B0000E9455049B01AC01C801B7010E94190386
:1037C000DC01CB018BA79CA7ADA7BEA76BA57CA5F1
:1037D0008DA59EA50E944900DC01CB010E94D7184F
:1037E000FFCF991B79E004C0991F961708F0961B2C
:1037F000881F7A95C9F7809508952F923F924F922E
:103800005F926F927F928F929F92AF92BF92CF9270
:10381000DF92EF92FF920F931F93CF93DF93CDB779
:10382000DEB7CA1BDB0B0FB6F894DEBF0FBECDBFF1
:1038300009942A88398848885F846E847D848C84C2
:103840009B84AA84B984C884DF80EE80FD800C81CB
:103850001B81AA81B981CE0FD11D0FB6F894DEBFAE
:0C3860000FBECDBFED010895F894FFCF1E
:10386C0053696D706C652043616C63756C61746F2A
:10387C0072004F5031004F5032004F50455241545E
:10388C00494F4E0000000000000000000001020241
:10389C0003030303040404040404040405050505DC
:1038AC0005050505050505050505050506060606B8
:1038BC00060606060606060606060606060606069C
:1038CC000606060606060606060606060707070788
:1038DC00070707070707070707070707070707076C
:1038EC00070707070707070707070707070707075C
:1038FC00070707070707070707070707070707074C
:10390C000707070707070707070707070808080837
:10391C00080808080808080808080808080808081B
:10392C00080808080808080808080808080808080B
:10393C0008080808080808080808080808080808FB
:10394C0008080808080808080808080808080808EB
:10395C0008080808080808080808080808080808DB
:10396C0008080808080808080808080808080808CB
:10397C0008080808080808080808080808080808BB
:10398C000808080808080808080808083738392FF4
:10399C003435362A3132332D51303D2B3738392FCF
:0C39AC003435362A3132332D20303D2BCB
:00000001FF
