:100000000C942A000C9434000C9434000C943400AA
:100010000C9434000C9434000C9434000C94340090
:100020000C9434000C9434000C9434000C94340080
:100030000C9434000C9434000C9434000C94340070
:100040000C9434000C9434000C9434000C94340060
:100050000C94340011241FBECFE5D8E0DEBFCDBF25
:100060000E944F050C9461050C940000DF93CF9320
:10007000CDB7DEB727970FB6F894DEBF0FBECDBF62
:1000800089836A834B838B81813009F06FC08981BA
:10009000282F30E03F832E838E819F818130910510
:1000A00049F12E813F81223031052CF48E819F81D0
:1000B000009761F0D2C02E813F812230310571F16D
:1000C0008E819F8183309105E9F1C7C0AAE3B0E03A
:1000D000EAE3F0E08081482F8A81282F30E081E038
:1000E00090E0022E02C0880F991F0A94E2F7842B39
:1000F0008C93B3C0A7E3B0E0E7E3F0E08081482F42
:100100008A81282F30E081E090E0022E02C0880F23
:10011000991F0A94E2F7842B8C939FC0A4E3B0E06C
:10012000E4E3F0E08081482F8A81282F30E081E0ED
:1001300090E0022E02C0880F991F0A94E2F7842BE8
:100140008C938BC0A1E3B0E0E1E3F0E08081482F25
:100150008A81282F30E081E090E0022E02C0880FD3
:10016000991F0A94E2F7842B8C9377C08B818823A4
:1001700009F073C08981282F30E03D832C838C8166
:100180009D818130910559F12C813D8122303105CD
:100190002CF48C819D81009769F05FC02C813D819A
:1001A0002230310589F18C819D818330910509F4DC
:1001B00040C053C0AAE3B0E0EAE3F0E08081482FFA
:1001C0008A81282F30E081E090E0022E02C0880F63
:1001D000991F0A94E2F7809584238C933EC0A7E38D
:1001E000B0E0E7E3F0E08081482F8A81282F30E0FB
:1001F00081E090E0022E02C0880F991F0A94E2F776
:10020000809584238C9329C0A4E3B0E0E4E3F0E07C
:100210008081482F8A81282F30E081E090E0022EF3
:1002200002C0880F991F0A94E2F7809584238C936B
:1002300014C0A1E3B0E0E1E3F0E08081482F8A81BF
:10024000282F30E081E090E0022E02C0880F991F35
:100250000A94E2F7809584238C9327960FB6F8943E
:10026000DEBF0FBECDBFCF91DF910895DF93CF9357
:10027000CDB7DEB727970FB6F894DEBF0FBECDBF60
:1002800089836A834B838B81813009F06FC08981B8
:10029000282F30E03F832E838E819F81813091050E
:1002A00049F12E813F81223031052CF48E819F81CE
:1002B000009761F0D2C02E813F812230310571F16B
:1002C0008E819F8183309105E9F1C7C0ABE3B0E037
:1002D000EBE3F0E08081482F8A81282F30E081E035
:1002E00090E0022E02C0880F991F0A94E2F7842B37
:1002F0008C93B3C0A8E3B0E0E8E3F0E08081482F3E
:100300008A81282F30E081E090E0022E02C0880F21
:10031000991F0A94E2F7842B8C939FC0A5E3B0E069
:10032000E5E3F0E08081482F8A81282F30E081E0EA
:1003300090E0022E02C0880F991F0A94E2F7842BE6
:100340008C938BC0A2E3B0E0E2E3F0E08081482F21
:100350008A81282F30E081E090E0022E02C0880FD1
:10036000991F0A94E2F7842B8C9377C08B818823A2
:1003700009F073C08981282F30E03D832C838C8164
:100380009D818130910559F12C813D8122303105CB
:100390002CF48C819D81009769F05FC02C813D8198
:1003A0002230310589F18C819D818330910509F4DA
:1003B00040C053C0ABE3B0E0EBE3F0E08081482FF6
:1003C0008A81282F30E081E090E0022E02C0880F61
:1003D000991F0A94E2F7809584238C933EC0A8E38A
:1003E000B0E0E8E3F0E08081482F8A81282F30E0F8
:1003F00081E090E0022E02C0880F991F0A94E2F774
:10040000809584238C9329C0A5E3B0E0E5E3F0E078
:100410008081482F8A81282F30E081E090E0022EF1
:1004200002C0880F991F0A94E2F7809584238C9369
:1004300014C0A2E3B0E0E2E3F0E08081482F8A81BB
:10044000282F30E081E090E0022E02C0880F991F33
:100450000A94E2F7809584238C9327960FB6F8943C
:10046000DEBF0FBECDBFCF91DF910895DF93CF9355
:1004700000D000D00F92CDB7DEB78A836B8319828C
:100480008A81282F30E03D832C834C815D8141306F
:10049000510541F18C819D818230910534F42C818C
:1004A0003D812115310561F052C04C815D814230A2
:1004B000510551F18C819D8183309105B9F147C07F
:1004C000E9E3F0E08081282F30E08B81882F90E0F5
:1004D000A90102C0559547958A95E2F7CA01817036
:1004E000898335C0E6E3F0E08081282F30E08B81FE
:1004F000882F90E0A90102C0559547958A95E2F7AB
:10050000CA018170898323C0E3E3F0E08081282F52
:1005100030E08B81882F90E0A90102C05595479566
:100520008A95E2F7CA018170898311C0E0E3F0E0A7
:100530008081282F30E08B81882F90E0A90102C0B4
:10054000559547958A95E2F7CA018170898389811B
:100550000F900F900F900F900F90CF91DF91089513
:10056000DF93CF9300D000D000D0CDB7DEB7898322
:100570006A838A81813099F58981282F30E03E8312
:100580002D838D819E8181309105D1F02D813E8119
:10059000223031052CF48D819E81009761F050C08E
:1005A0002D813E812230310581F08D819E81833005
:1005B000910581F045C0EAE3F0E08FEF808340C011
:1005C000E7E3F0E08FEF80833BC0E4E3F0E08FEF00
:1005D000808336C0E1E3F0E08FEF808331C08A8111
:1005E000882371F58981282F30E03C832B838B8110
:1005F0009C8181309105C9F02B813C8122303105ED
:100600002CF48B819C81009761F01AC02B813C8176
:100610002230310571F08B819C818330910569F026
:100620000FC0EAE3F0E010820BC0E7E3F0E01082D5
:1006300007C0E4E3F0E0108203C0E1E3F0E01082E1
:1006400026960FB6F894DEBF0FBECDBFCF91DF91D7
:100650000895DF93CF9300D000D0CDB7DEB7898364
:100660006A838981282F30E03C832B838B819C8196
:1006700081309105D1F02B813C81223031052CF461
:100680008B819C81009761F01EC02B813C812230C0
:10069000310581F08B819C818330910581F013C0FD
:1006A000EBE3F0E08A8180830EC0E8E3F0E08A812A
:1006B000808309C0E5E3F0E08A81808304C0E2E33F
:1006C000F0E08A8180830F900F900F900F90CF9170
:1006D000DF910895DF93CF9300D000D0CDB7DEB780
:1006E00089836A838981282F30E03C832B838B8127
:1006F0009C818130910549F12B813C81223031056B
:100700002CF48B819C81009761F05AC02B813C8135
:100710002230310571F18B819C8183309105E9F1A3
:100720004FC0ABE3B0E0EBE3F0E08081482F8A817B
:10073000282F30E081E090E0022E02C0880F991F40
:100740000A94E2F784278C933BC0A8E3B0E0E8E387
:10075000F0E08081482F8A81282F30E081E090E00E
:10076000022E02C0880F991F0A94E2F784278C9307
:1007700027C0A5E3B0E0E5E3F0E08081482F8A815F
:10078000282F30E081E090E0022E02C0880F991FF0
:100790000A94E2F784278C9313C0A2E3B0E0E2E36B
:1007A000F0E08081482F8A81282F30E081E090E0BE
:1007B000022E02C0880F991F0A94E2F784278C93B7
:1007C0000F900F900F900F90CF91DF910895DF93CE
:1007D000CF9300D000D0CDB7DEB78A8319828A814B
:1007E000282F30E03C832B838B819C8181309105C5
:1007F000D1F02B813C81223031052CF48B819C81FE
:10080000009761F01EC02B813C812230310581F0C0
:100810008B819C818330910581F013C0E9E3F0E086
:10082000808189830EC0E6E3F0E08081898309C07E
:10083000E3E3F0E08081898304C0E0E3F0E08081BD
:10084000898389810F900F900F900F90CF91DF9146
:100850000895DF93CF93CDB7DEB7A1E2B0E0E1E238
:10086000F0E080818E7F8C93A1E2B0E0E1E2F0E0E5
:1008700080818D7F8C93A6E5B0E0E6E5F0E0808195
:100880008E7F8C93A6E5B0E0E6E5F0E080818064A1
:100890008C93E0E2F0E080E28083A6E5B0E0E6E55C
:1008A000F0E0808184608C93CF91DF910895DF9395
:1008B000CF930F92CDB7DEB78983E2E2F0E0898172
:1008C000880F8083A6E5B0E0E6E5F0E080818064F3
:1008D0008C93A6E5B0E0E6E5F0E0808184608C933F
:1008E0000F90CF91DF910895DF93CF93CDB7DEB70F
:1008F000E6E5F0E084EA8083E6E5F0E080818823A5
:10090000DCF7CF91DF910895DF93CF93CDB7DEB7BA
:10091000E6E5F0E084EA8083E6E5F0E08081882384
:10092000DCF7CF91DF910895DF93CF9300D0CDB75F
:10093000DEB789836A83E3E2F0E08981880F8083F0
:100940008A81813089F4A3E2B0E0E3E2F0E08081C3
:1009500081608C93E6E5F0E084E88083E6E5F0E0F2
:1009600080818823DCF710C0A3E2B0E0E3E2F0E08E
:1009700080818E7F8C93E6E5F0E084E88083E6E575
:10098000F0E080818823DCF70F900F90CF91DF910A
:100990000895DF93CF930F92CDB7DEB78983898116
:1009A000823028F0E6E5F0E084EC808304C0E6E5E0
:1009B000F0E084E88083E6E5F0E080818823DCF7DE
:1009C000E3E2F0E080810F90CF91DF910895DF9313
:1009D000CF93CDB7DEB7E6E5F0E084EC8083E6E5C3
:1009E000F0E080818823DCF7E3E2F0E08081CF91C2
:1009F000DF910895DF93CF93CDB7DEB7E6E5F0E062
:100A000084E88083E6E5F0E080818823DCF7E3E298
:100A1000F0E08081CF91DF910895DF93CF930F9223
:100A2000CDB7DEB78983E3E2F0E089818083E6E534
:100A3000F0E084E88083E6E5F0E080818823DCF75D
:100A40000F90CF91DF910895DF93CF9300D0CDB772
:100A5000DEB7E1E2F0E08081887F89838981883098
:100A600011F01A8202C089818A838A810F900F90C7
:100A7000CF91DF910895DF93CF93CDB7DEB7E6E551
:100A8000F0E084E98083E6E5F0E08081882F90E063
:100A9000807190700097B9F7CF91DF910895DF933F
:100AA000CF93CDB7DEB70E9429040E94740488E674
:100AB00060E00E9494048CEF0E940D050E943B05AB
:060AC000FFCFF894FFCF08
:00000001FF
