:100000000C942A000C9447000C9447000C94470071
:100010000C9447000C9447000C9447000C94470044
:100020000C9447000C9447000C9447000C94470034
:100030000C9447000C9447000C9447000C94470024
:100040000C9447000C9447000C9447000C94470014
:100050000C94470011241FBECFE5D8E0DEBFCDBF12
:1000600010E0A0E6B0E0E0EFF9E202C005900D92EA
:10007000AA38B107D9F710E0AAE8B0E001C01D9294
:10008000A23AB107E1F70E94AB120C94F6140C945B
:100090000000EF92FF920F931F937B018C0120E0F1
:1000A00030E040E05FE40E94F50388238CF0C80153
:1000B000B70120E030E040E05FE40E94C1010E940F
:1000C00055049B01AC01205030404040504806C0D0
:1000D000C801B7010E9455049B01AC01B901CA01D6
:1000E0001F910F91FF90EF900895A0E0B0E0EBE733
:1000F000F0E00C948E14DC012B01FA019C919230FB
:1001000008F439C1EB018881823008F433C194309E
:1001100069F4843009F02FC111969C91119789815F
:10012000981709F428C1A2E8B0E025C1843009F489
:1001300021C18230A9F4923009F01DC19A01AD01AC
:1001400088E0EA010990AE01E90109929E0181501F
:10015000C1F7E201898111969C918923818308C1AD
:10016000923009F407C112962D903C901397EB0141
:100170008A819B811496AD90BD90CD90DC901797AD
:10018000EC80FD800E811F819101281B390BB90184
:1001900037FF04C066277727621B730B6032710537
:1001A0000CF061C0121613066CF537014801062EDB
:1001B00004C096948794779467940A94D2F721E0C8
:1001C00030E040E050E004C0220F331F441F551FB1
:1001D0006A95D2F721503040404050402E213F21B7
:1001E00040235123211531054105510521F021E01E
:1001F00030E040E050E079018A01E628F72808293C
:1002000019293CC0232BD1F1260E371E350146019A
:10021000062E04C096948794779467940A94D2F734
:1002200021E030E040E050E004C0220F331F441FC3
:10023000551F6A95D2F721503040404050402A2146
:100240003B214C215D21211531054105510521F04E
:1002500021E030E040E050E059016A01A628B728CB
:10026000C828D9280BC0821593052CF01C01AA249C
:10027000BB24650103C0EE24FF24870111969C91E5
:10028000D20111968C91981709F445C0992339F041
:10029000A80197012A193B094C095D0906C0A6016E
:1002A00095012E193F09400B510B57FD08C01182D3
:1002B0003382228224833583468357831DC081E0A5
:1002C00081833382228288279927DC01821B930B4A
:1002D000A40BB50B84839583A683B7830DC0220F2F
:1002E000331F441F551F24833583468357838281E0
:1002F000938101979383828324813581468157813D
:10030000DA01C9010197A109B1098F5F9F4FAF4F72
:10031000BF4328F30BC0918333822282EA0CFB1C7B
:100320000C1D1D1DE482F5820683178383E0808304
:10033000248135814681578157FF1AC0C901AA27F8
:1003400097FDA095BA2F81709070A070B0705695EF
:10035000479537952795822B932BA42BB52B848318
:100360009583A683B7838281938101969383828349
:10037000DF0101C0D201CD01CDB7DEB7E2E10C94BF
:10038000AA14A0E2B0E0E7ECF1E00C949A146983BF
:100390007A838B839C832D833E834F835887E9E048
:1003A000EE2EF12CEC0EFD1ECE010196B7010E943F
:1003B0007E058E010F5E1F4FCE010596B8010E948B
:1003C0007E058A8991E089278A8BC701B801AE0131
:1003D000475E5F4F0E9475000E94A904A096E6E068
:1003E0000C94B614A0E2B0E0E8EFF1E00C949A149B
:1003F00069837A838B839C832D833E834F835887C5
:10040000F9E0EF2EF12CEC0EFD1ECE010196B701A6
:100410000E947E058E010F5E1F4FCE010596B8012A
:100420000E947E05C701B801AE01475E5F4F0E9482
:1004300075000E94A904A096E6E00C94B614A0E210
:10044000B0E0E5E2F2E00C948E1469837A838B834A
:100450009C832D833E834F835887CE010196BE0136
:10046000675F7F4F0E947E05CE010596BE016F5EDD
:100470007F4F0E947E059985923088F0898982306D
:10048000C8F0943019F4823051F404C0843029F457
:10049000923081F482E890E0C6C0923049F420E0C6
:1004A0009A858A89981321E02A87CE010996BBC0D4
:1004B000823049F420E09A858A89981321E02A8BBA
:1004C000CE014196B0C02D843E844F8458886D88FB
:1004D0007E888F88988CEE24FF248701AA24BB2471
:1004E000650140E050E060E070E0E0E0F0E0C10174
:1004F00081709070892BE9F0E60CF71C081D191D1E
:100500009A01AB012A0D3B1D4C1D5D1D80E090E062
:10051000A0E0B0E0E614F7040805190520F481E036
:1005200090E0A0E0B0E0BA01A901480F591F6A1F8E
:100530007B1FAA0CBB1CCC1CDD1C97FE08C081E0F5
:1005400090E0A0E0B0E0A82AB92ACA2ADB2A3196B6
:10055000E032F10549F0660C771C881C991C569412
:10056000479437942794C3CFFA85EA892B893C892D
:100570008B859C85280F391F2E5F3F4F17C0CA01FE
:1005800081709070892B61F016950795F794E79428
:1005900080E090E0A0E0B0E8E82AF92A0A2B1B2BC3
:1005A00076956795579547952F5F3F4F77FDE7CF36
:1005B0000CC0440F551F661F771F17FD4160EE0CDE
:1005C000FF1C001F111F21503040403090E05907A0
:1005D00090E0690790E4790760F32B8F3C8FDB0193
:1005E000CA018F779070A070B07080349105A1051A
:1005F000B10561F447FD0AC0E114F10401051105DC
:1006000029F0405C5F4F6F4F7F4F40781A8EFE1786
:1006100011F081E08A8F4D8F5E8F6F8F78A383E01A
:10062000898FCE0149960E94A904A096E2E10C941C
:10063000AA14A8E1B0E0EFE1F3E00C94961469830A
:100640007A838B839C832D833E834F835887B9E0C5
:10065000EB2EF12CEC0EFD1ECE010196B7010E948F
:100660007E058E010F5E1F4FCE010596B8010E94D8
:100670007E052985223008F47EC03989323010F495
:10068000B8017CC08A859A8989278A87243011F02D
:10069000223031F4231709F06EC062E870E06EC0BA
:1006A000343039F41D861E861F86188A1C861B86E8
:1006B00004C0323021F484E08987B7015FC02B8504
:1006C0003C858B899C89281B390B3C872B87ED84C3
:1006D000FE840F851889AD88BE88CF88D88CEA142F
:1006E000FB040C051D0540F4EE0CFF1C001F111F40
:1006F000215030403C872B8720E030E040E050E044
:1007000080E090E0A0E0B0E460E070E0EA14FB0478
:100710000C051D0540F0282B392B4A2B5B2BEA18C2
:10072000FB080C091D09B695A79597958795EE0CC2
:10073000FF1C001F111F6F5F7F4F6F31710531F775
:10074000DA01C9018F779070A070B0708034910584
:10075000A105B10561F427FD0AC0E114F10401050A
:10076000110529F0205C3F4F4F4F5F4F20782D87B8
:100770003E874F87588BBE01675F7F4FCB010E943A
:10078000A9046896EAE00C94B214A8E1B0E0EBEC9E
:10079000F3E00C949A1469837A838B839C832D8372
:1007A0003E834F83588789E0E82EF12CEC0EFD1E26
:1007B000CE010196B7010E947E058E010F5E1F4F8C
:1007C000CE010596B8010E947E058985823040F0F1
:1007D0008989823028F0C701B8010E94F60501C05E
:1007E0008FEF6896E6E00C94B614A8E1B0E0EBEF6A
:1007F000F3E00C949A1469837A838B839C832D8312
:100800003E834F83588789E0E82EF12CEC0EFD1EC5
:10081000CE010196B7010E947E058E010F5E1F4F2B
:10082000CE010596B8010E947E058985823040F090
:100830008989823028F0C701B8010E94F60501C0FD
:100840008FEF6896E6E00C94B614A8E1B0E0EBE216
:10085000F4E00C949A1469837A838B839C832D83B0
:100860003E834F83588789E0E82EF12CEC0EFD1E65
:10087000CE010196B7010E947E058E010F5E1F4FCB
:10088000CE010596B8010E947E058985823040F030
:100890008989823028F0C701B8010E94F60501C09D
:1008A00081E06896E6E00C94B614ACE0B0E0EBE5CD
:1008B000F4E00C949E1469837A838B839C83CE012D
:1008C0000196BE016B5F7F4F0E947E058D81823055
:1008D00061F1823050F1843021F48E81882351F10E
:1008E0002EC02F81388537FD20C06E812F31310514
:1008F0001CF06623F9F023C08EE190E0821B930B7D
:1009000029853A854B855C8504C056954795379572
:1009100027958A95D2F76623B1F05095409530958A
:1009200021953F4F4F4F5F4F0EC020E030E040E039
:1009300050E009C02FEF3FEF4FEF5FE704C020E02A
:1009400030E040E050E8B901CA012C96E2E00C9496
:10095000BA14DF92EF92FF920F931F93FC01E48091
:10096000F58006811781D1808081823048F480E053
:1009700090E0A0E1B0E0E82AF92A0A2B1B2BA5C0E1
:10098000843009F49FC0823021F4EE24FF248701D3
:1009900005C0E114F1040105110519F4E0E0F0E0EF
:1009A00096C0628173819FEF623879070CF05BC05B
:1009B00022E83FEF261B370B2A3131052CF020E0CF
:1009C00030E040E050E02AC0B801A701022E04C088
:1009D00076956795579547950A94D2F781E090E010
:1009E000A0E0B0E004C0880F991FAA1FBB1F2A9582
:1009F000D2F70197A109B1098E219F21A023B1232C
:100A00000097A105B10521F081E090E0A0E0B0E001
:100A10009A01AB01282B392B4A2B5B2BDA01C90138
:100A20008F779070A070B07080349105A105B105EA
:100A300039F427FF09C0205C3F4F4F4F5F4F04C080
:100A4000215C3F4F4F4F5F4FE0E0F0E02030A0E0EF
:100A50003A07A0E04A07A0E45A0710F0E1E0F0E00E
:100A600079018A0127C06038710564F5FB01E158FE
:100A7000FF4FD801C7018F779070A070B07080349D
:100A80009105A105B10539F4E7FE0DC080E490E0C1
:100A9000A0E0B0E004C08FE390E0A0E0B0E0E80E9A
:100AA000F91E0A1F1B1F17FF05C016950795F7941F
:100AB000E794319687E016950795F794E7948A9521
:100AC000D1F705C0EE24FF248701EFEFF0E06E2F91
:100AD000679566276795902F9F77D794DD24D794E5
:100AE0008E2F8695492F462B582F5D29B701CA01B5
:100AF0001F910F91FF90EF90DF900895FC01DB01B3
:100B0000408151812281622F6F7770E0221F22275E
:100B1000221F9381892F880F822B282F30E0991F65
:100B20009927991F11969C93119721153105A9F5C5
:100B3000411551056105710511F482E037C082E865
:100B40009FEF13969C938E9312979A01AB0167E0E7
:100B5000220F331F441F551F6A95D1F783E08C93F2
:100B60000DC0220F331F441F551F12968D919C916B
:100B70001397019713969C938E931297203080E0E1
:100B8000380780E0480780E4580758F314962D93FF
:100B90003D934D935C93179708952F3F310579F45A
:100BA000411551056105710519F484E08C93089590
:100BB00064FF03C081E08C9312C01C9210C02F57B9
:100BC000304013963C932E93129783E08C9387E0EA
:100BD000440F551F661F771F8A95D1F770641496CE
:100BE0004D935D936D937C93179708951F93DC014C
:100BF000FB019C91923008F447C08081823008F458
:100C000043C0943051F411961C91843099F5818140
:100C1000682F70E0611B71093FC0843021F0923071
:100C200031F48230B9F18181882389F12DC0119688
:100C30001C9111978230F1F081811817D9F4129626
:100C40002D913C911397828193818217930794F0A1
:100C500028173907BCF014968D919D910D90BC9189
:100C6000A02D2481358146815781281739074A07ED
:100C70005B0718F4112341F00AC082179307A407F9
:100C8000B50740F4112319F061E070E005C06FEF83
:100C90007FEF02C060E070E0CB011F910895DF9309
:100CA000CF93CDB7DEB72E970FB6F894DEBF0FBE49
:100CB000CDBF83E066E041E00E94F90783E066E093
:100CC00040E00E94F90880E090E0A0EAB1E48B8760
:100CD0009C87AD87BE876B857C858D859E8520E052
:100CE00030E04AEF54E40E941F02DC01CB018F8305
:100CF0009887A987BA876F81788589859A8520E04A
:100D000030E040E85FE30E94250488232CF481E072
:100D100090E09E838D833FC06F81788589859A8519
:100D200020E03FEF4FE757E40E94C50318164CF54B
:100D30006B857C858D859E8520E030E040E251E426
:100D40000E941F02DC01CB01BC01CD010E944900C1
:100D5000DC01CB019E838D830FC088EC90E09C83E7
:100D60008B838B819C810197F1F79C838B838D8191
:100D70009E8101979E838D838D819E81009769F767
:100D800014C06F81788589859A850E944900DC01AD
:100D9000CB019E838D838D819E819A8389838981F6
:100DA0009A810197F1F79A83898383E066E041E0B5
:100DB0000E94F9082E960FB6F894DEBF0FBECDBF85
:100DC000CF91DF910895DF93CF93CDB7DEB783E066
:100DD00066E040E00E94F90783E066E00E94F909BE
:100DE0008130D1F383E066E00E94F9098823D1F3D2
:100DF00083E066E00E94F9098130D1F3CF91DF9161
:100E00000895DF93CF93CDB7DEB76A970FB6F89406
:100E1000DEBF0FBECDBF198EDEC083E066E00E944C
:100E2000F9098823D1F380E090E0A0EFB1E48D8B45
:100E30009E8BAF8BB88F6D897E898F89988D2BEAB9
:100E40003AEA4AE250E40E941F02DC01CB01898B9E
:100E50009A8BAB8BBC8B69897A898B899C8920E0C2
:100E600030E040E85FE30E94250488231CF481E021
:100E7000888B91C069897A898B899C8920E030E0D0
:100E80004FE753E40E94C50318160CF07BC06D8930
:100E90007E898F89988D20E030E04AE754E40E94F3
:100EA0001903DC01CB018C879D87AE87BF876C85DA
:100EB0007D858E859F8520E030E04AEF54E40E94D6
:100EC0001F02DC01CB0188879987AA87BB876885C9
:100ED00079858A859B8520E030E040E85FE30E94C9
:100EE000250488232CF481E090E09F838E833FC00B
:100EF000688579858A859B8520E03FEF4FE757E439
:100F00000E94C50318164CF56C857D858E859F85DE
:100F100020E030E040E251E40E941F02DC01CB01FE
:100F2000BC01CD010E944900DC01CB019F838E836F
:100F30000FC088EC90E09D838C838C819D8101970C
:100F4000F1F79D838C838E819F8101979F838E8390
:100F50008E819F81009769F724C0688579858A858D
:100F60009B850E944900DC01CB019F838E838E818B
:100F70009F819B838A838A819B810197F1F79B8361
:100F80008A830FC069897A898B899C890E9449006C
:100F9000DC01CB01888B8889898389818A95F1F767
:100FA000898383E066E00E94F909813041F48A8DEB
:100FB000882F90E0880F991F81608A8F03C08A8DE7
:100FC000880F8A8F83E066E00E94F9098130D1F3AF
:100FD000898D8F5F898F898D883008F41ECF8A8D27
:100FE0006A960FB6F894DEBF0FBECDBFCF91DF91EA
:100FF0000895DF93CF93CDB7DEB727970FB6F89458
:10100000DEBF0FBECDBF89836A834B838B81813066
:1010100009F06FC08981282F30E03F832E838E81B5
:101020009F818130910549F12E813F812230310528
:101030002CF48E819F81009761F0D2C02E813F8178
:101040002230310571F18E819F8183309105E9F164
:10105000C7C0AAE3B0E0EAE3F0E08081482F8A81CC
:10106000282F30E081E090E0022E02C0880F991F07
:101070000A94E2F7842B8C93B3C0A7E3B0E0E7E3D4
:10108000F0E08081482F8A81282F30E081E090E0D5
:10109000022E02C0880F991F0A94E2F7842B8C93CA
:1010A0009FC0A4E3B0E0E4E3F0E08081482F8A81B0
:1010B000282F30E081E090E0022E02C0880F991FB7
:1010C0000A94E2F7842B8C938BC0A1E3B0E0E1E3B8
:1010D000F0E08081482F8A81282F30E081E090E085
:1010E000022E02C0880F991F0A94E2F7842B8C937A
:1010F00077C08B81882309F073C08981282F30E065
:101100003D832C838C819D818130910559F12C8107
:101110003D81223031052CF48C819D81009769F04E
:101120005FC02C813D812230310589F18C819D8108
:101130008330910509F440C053C0AAE3B0E0EAE36C
:10114000F0E08081482F8A81282F30E081E090E014
:10115000022E02C0880F991F0A94E2F7809584231B
:101160008C933EC0A7E3B0E0E7E3F0E08081482F36
:101170008A81282F30E081E090E0022E02C0880FA3
:10118000991F0A94E2F7809584238C9329C0A4E3E5
:10119000B0E0E4E3F0E08081482F8A81282F30E03E
:1011A00081E090E0022E02C0880F991F0A94E2F7B6
:1011B000809584238C9314C0A1E3B0E0E1E3F0E0D8
:1011C0008081482F8A81282F30E081E090E0022E34
:1011D00002C0880F991F0A94E2F7809584238C93AC
:1011E00027960FB6F894DEBF0FBECDBFCF91DF912B
:1011F0000895DF93CF93CDB7DEB727970FB6F89456
:10120000DEBF0FBECDBF89836A834B838B81813064
:1012100009F06FC08981282F30E03F832E838E81B3
:101220009F818130910549F12E813F812230310526
:101230002CF48E819F81009761F0D2C02E813F8176
:101240002230310571F18E819F8183309105E9F162
:10125000C7C0ABE3B0E0EBE3F0E08081482F8A81C8
:10126000282F30E081E090E0022E02C0880F991F05
:101270000A94E2F7842B8C93B3C0A8E3B0E0E8E3D0
:10128000F0E08081482F8A81282F30E081E090E0D3
:10129000022E02C0880F991F0A94E2F7842B8C93C8
:1012A0009FC0A5E3B0E0E5E3F0E08081482F8A81AC
:1012B000282F30E081E090E0022E02C0880F991FB5
:1012C0000A94E2F7842B8C938BC0A2E3B0E0E2E3B4
:1012D000F0E08081482F8A81282F30E081E090E083
:1012E000022E02C0880F991F0A94E2F7842B8C9378
:1012F00077C08B81882309F073C08981282F30E063
:101300003D832C838C819D818130910559F12C8105
:101310003D81223031052CF48C819D81009769F04C
:101320005FC02C813D812230310589F18C819D8106
:101330008330910509F440C053C0ABE3B0E0EBE368
:10134000F0E08081482F8A81282F30E081E090E012
:10135000022E02C0880F991F0A94E2F78095842319
:101360008C933EC0A8E3B0E0E8E3F0E08081482F32
:101370008A81282F30E081E090E0022E02C0880FA1
:10138000991F0A94E2F7809584238C9329C0A5E3E2
:10139000B0E0E5E3F0E08081482F8A81282F30E03B
:1013A00081E090E0022E02C0880F991F0A94E2F7B4
:1013B000809584238C9314C0A2E3B0E0E2E3F0E0D4
:1013C0008081482F8A81282F30E081E090E0022E32
:1013D00002C0880F991F0A94E2F7809584238C93AA
:1013E00027960FB6F894DEBF0FBECDBFCF91DF9129
:1013F0000895DF93CF9300D000D00F92CDB7DEB722
:101400008A836B8319828A81282F30E03D832C8365
:101410004C815D814130510541F18C819D8182304B
:10142000910534F42C813D812115310561F052C0C4
:101430004C815D814230510551F18C819D81833019
:101440009105B9F147C0E9E3F0E08081282F30E051
:101450008B81882F90E0A90102C0559547958A9508
:10146000E2F7CA018170898335C0E6E3F0E080814C
:10147000282F30E08B81882F90E0A90102C055957C
:1014800047958A95E2F7CA018170898323C0E3E317
:10149000F0E08081282F30E08B81882F90E0A90137
:1014A00002C0559547958A95E2F7CA0181708983F4
:1014B00011C0E0E3F0E08081282F30E08B81882F9D
:1014C00090E0A90102C0559547958A95E2F7CA01B7
:1014D0008170898389810F900F900F900F900F90EA
:1014E000CF91DF910895DF93CF9300D000D000D04B
:1014F000CDB7DEB789836A838A81813099F5898186
:10150000282F30E03E832D838D819E81813091058F
:10151000D1F02D813E81223031052CF48D819E81C8
:10152000009761F050C02D813E812230310581F05D
:101530008D819E818330910581F045C0EAE3F0E022
:101540008FEF808340C0E7E3F0E08FEF80833BC004
:10155000E4E3F0E08FEF808336C0E1E3F0E08FEF6B
:10156000808331C08A81882371F58981282F30E0FA
:101570003C832B838B819C8181309105C9F02B8129
:101580003C81223031052CF48B819C81009761F0E5
:101590001AC02B813C812230310571F08B819C81F6
:1015A0008330910569F00FC0EAE3F0E010820BC0D0
:1015B000E7E3F0E0108207C0E4E3F0E0108203C04C
:1015C000E1E3F0E0108226960FB6F894DEBF0FBE7E
:1015D000CDBFCF91DF910895DF93CF9300D000D09E
:1015E000CDB7DEB789836A838981282F30E03C83B9
:1015F0002B838B819C8181309105D1F02B813C81A3
:10160000223031052CF48B819C81009761F01EC043
:101610002B813C812230310581F08B819C8183308C
:10162000910581F013C0EBE3F0E08A8180830EC066
:10163000E8E3F0E08A81808309C0E5E3F0E08A8195
:10164000808304C0E2E3F0E08A8180830F900F90F2
:101650000F900F90CF91DF910895DF93CF9300D03B
:1016600000D0CDB7DEB789836A838981282F30E027
:101670003C832B838B819C818130910549F12B81A7
:101680003C81223031052CF48B819C81009761F0E4
:101690005AC02B813C812230310571F18B819C81B4
:1016A00083309105E9F14FC0ABE3B0E0EBE3F0E04C
:1016B0008081482F8A81282F30E081E090E0022E3F
:1016C00002C0880F991F0A94E2F784278C933BC0CD
:1016D000A8E3B0E0E8E3F0E08081482F8A81282F7A
:1016E00030E081E090E0022E02C0880F991F0A943A
:1016F000E2F784278C9327C0A5E3B0E0E5E3F0E0B0
:101700008081482F8A81282F30E081E090E0022EEE
:1017100002C0880F991F0A94E2F784278C9313C0A4
:10172000A2E3B0E0E2E3F0E08081482F8A81282F35
:1017300030E081E090E0022E02C0880F991F0A94E9
:10174000E2F784278C930F900F900F900F90CF911A
:10175000DF910895DF93CF9300D000D0CDB7DEB7EF
:101760008A8319828A81282F30E03C832B838B81E6
:101770009C8181309105D1F02B813C812230310553
:101780002CF48B819C81009761F01EC02B813C81E1
:101790002230310581F08B819C818330910581F06D
:1017A00013C0E9E3F0E0808189830EC0E6E3F0E056
:1017B0008081898309C0E3E3F0E08081898304C0EC
:1017C000E0E3F0E08081898389810F900F900F9092
:1017D0000F90CF91DF9108950F931F93DF93CF93D5
:1017E000CDB7DEB7C654D0400FB6F894DEBF0FBEFB
:1017F000CDBF83E060E041E00E94F90783E061E053
:1018000041E00E94F90783E062E041E00E94F907AD
:10181000FE01ED5BFF4F80E090E0A0E2B2E4808348
:101820009183A283B3838E01015C1F4FFE01ED5BA8
:10183000FF4F608171818281938120E030E04AEF27
:1018400054E40E941F02DC01CB01F80180839183E4
:10185000A283B383FE01FF966081718182819381AF
:1018600020E030E040E85FE30E94250488232CF468
:1018700081E090E09EAF8DAF46C0FE01FF96608193
:1018800071818281938120E03FEF4FE757E40E940E
:10189000C503181664F5FE01ED5BFF4F6081718191
:1018A0008281938120E030E040E251E40E941F02F7
:1018B000DC01CB01BC01CD010E944900DC01CB0160
:1018C0009EAF8DAF0FC088EC90E09CAF8BAF8BAD1F
:1018D0009CAD0197F1F79CAF8BAF8DAD9EAD01979D
:1018E0009EAF8DAF8DAD9EAD009769F716C0FE011E
:1018F000FF9660817181828193810E944900DC01A1
:10190000CB019EAF8DAF8DAD9EAD9AAF89AF89AD46
:101910009AAD0197F1F79AAF89AF82E061E00E943A
:10192000730A88E30E94651080E090E0A0E8BFE3BE
:101930008DAB9EABAFABB8AF6DA97EA98FA998ADAB
:1019400020E030E04AEF54E40E941F02DC01CB01AA
:1019500089AB9AABABABBCAB69A97AA98BA99CA9A3
:1019600020E030E040E85FE30E94250488232CF467
:1019700081E090E098AB8FA73FC069A97AA98BA9B5
:101980009CA920E03FEF4FE757E40E94C5031816DB
:101990004CF56DA97EA98FA998AD20E030E040E21A
:1019A00051E40E941F02DC01CB01BC01CD010E9469
:1019B0004900DC01CB0198AB8FA70FC088EC90E009
:1019C0009EA78DA78DA59EA50197F1F79EA78DA730
:1019D0008FA598A9019798AB8FA78FA598A9009775
:1019E00069F714C069A97AA98BA99CA90E9449002A
:1019F000DC01CB0198AB8FA78FA598A99CA78BA7DB
:101A00008BA59CA50197F1F79CA78BA78FE00E945F
:101A1000651080E090E0A0E8BFE38FA398A7A9A796
:101A2000BAA76FA178A589A59AA520E030E04AEF72
:101A300054E40E941F02DC01CB018BA39CA3ADA345
:101A4000BEA36BA17CA18DA19EA120E030E040E867
:101A50005FE30E94250488232CF481E090E09AA3A0
:101A600089A33FC06BA17CA18DA19EA120E03FEF87
:101A70004FE757E40E94C50318164CF56FA178A5EF
:101A800089A59AA520E030E040E251E40E941F02BF
:101A9000DC01CB01BC01CD010E944900DC01CB017E
:101AA0009AA389A30FC088EC90E098A38F8F8F8DA5
:101AB00098A10197F1F798A38F8F89A19AA1019717
:101AC0009AA389A389A19AA1009769F714C06BA171
:101AD0007CA18DA19EA10E944900DC01CB019AA3AB
:101AE00089A389A19AA19E8F8D8F8D8D9E8D01973F
:101AF000F1F79E8F8D8F81E00E94651080E090E06D
:101B0000A0E0B0E4898F9A8FAB8FBC8F698D7A8DFE
:101B10008B8D9C8D20E030E04AEF54E40E941F0240
:101B2000DC01CB018D8B9E8BAF8BB88F6D897E894D
:101B30008F89988D20E030E040E85FE30E94250423
:101B400088232CF481E090E09C8B8B8B3FC06D89C7
:101B50007E898F89988D20E03FEF4FE757E40E9400
:101B6000C50318164CF5698D7A8D8B8D9C8D20E000
:101B700030E040E251E40E941F02DC01CB01BC01D5
:101B8000CD010E944900DC01CB019C8B8B8B0FC0E7
:101B900088EC90E09A8B898B89899A890197F1F773
:101BA0009A8B898B8B899C8901979C8B8B8B8B89DA
:101BB0009C89009769F714C06D897E898F89988DFB
:101BC0000E944900DC01CB019C8B8B8B8B899C890B
:101BD000988B8F878F8598890197F1F7988B8F87DE
:101BE00086E00E94651080E090E0A0E8BFE38B876C
:101BF0009C87AD87BE876B857C858D859E8520E023
:101C000030E04AEF54E40E941F02DC01CB018F83D5
:101C10009887A987BA876F81788589859A8520E01A
:101C200030E040E85FE30E94250488232CF481E043
:101C300090E09E838D833FC06F81788589859A85EA
:101C400020E03FEF4FE757E40E94C50318164CF51C
:101C50006B857C858D859E8520E030E040E251E4F7
:101C60000E941F02DC01CB01BC01CD010E94490092
:101C7000DC01CB019E838D830FC088EC90E09C83B8
:101C80008B838B819C810197F1F79C838B838D8162
:101C90009E8101979E838D838D819E81009769F738
:101CA00014C06F81788589859A850E944900DC017E
:101CB000CB019E838D838D819E819A8389838981C7
:101CC0009A810197F1F79A838983CA5BDF4F0FB638
:101CD000F894DEBF0FBECDBFCF91DF911F910F9162
:101CE0000895DF93CF93CDB7DEB7E9970FB6F89499
:101CF000DEBF0FBECDBF89AF83E060E041E00E9450
:101D0000F90883E061E040E00E94F90880E090E09B
:101D1000A0E8BFE38DAB9EABAFABB8AF6DA97EA91A
:101D20008FA998AD20E030E04AEF54E40E941F02F2
:101D3000DC01CB0189AB9AABABABBCAB69A97AA98F
:101D40008BA99CA920E030E040E85FE30E942504D5
:101D500088232CF481E090E098AB8FA73FC069A95D
:101D60007AA98BA99CA920E03FEF4FE757E40E9496
:101D7000C50318164CF56DA97EA98FA998AD20E072
:101D800030E040E251E40E941F02DC01CB01BC01C3
:101D9000CD010E944900DC01CB0198AB8FA70FC099
:101DA00088EC90E09EA78DA78DA59EA50197F1F7E1
:101DB0009EA78DA78FA598A9019798AB8FA78FA5F0
:101DC00098A9009769F714C069A97AA98BA99CA959
:101DD0000E944900DC01CB0198AB8FA78FA598A981
:101DE0009CA78BA78BA59CA50197F1F79CA78BA718
:101DF00082E069AD0E94EC0A80E090E0A0E8BFE3D9
:101E00008FA398A7A9A7BAA76FA178A589A59AA516
:101E100020E030E04AEF54E40E941F02DC01CB01D5
:101E20008BA39CA3ADA3BEA36BA17CA18DA19EA1FE
:101E300020E030E040E85FE30E94250488232CF492
:101E400081E090E09AA389A33FC06BA17CA18DA102
:101E50009EA120E03FEF4FE757E40E94C50318160C
:101E60004CF56FA178A589A59AA520E030E040E265
:101E700051E40E941F02DC01CB01BC01CD010E9494
:101E80004900DC01CB019AA389A30FC088EC90E044
:101E900098A38F8F8F8D98A10197F1F798A38F8FBB
:101EA00089A19AA101979AA389A389A19AA10097D0
:101EB00069F714C06BA17CA18DA19EA10E9449006D
:101EC000DC01CB019AA389A389A19AA19E8F8D8F52
:101ED0008D8D9E8D0197F1F79E8F8D8F83E062E04F
:101EE00041E00E94F90880E090E0A0E8BFE3898F1C
:101EF0009A8FAB8FBC8F698D7A8D8B8D9C8D20E0F6
:101F000030E04AEF54E40E941F02DC01CB018D8BCC
:101F10009E8BAF8BB88F6D897E898F89988D20E0DD
:101F200030E040E85FE30E94250488232CF481E040
:101F300090E09C8B8B8B3FC06D897E898F89988DBB
:101F400020E03FEF4FE757E40E94C50318164CF519
:101F5000698D7A8D8B8D9C8D20E030E040E251E4DC
:101F60000E941F02DC01CB01BC01CD010E9449008F
:101F7000DC01CB019C8B8B8B0FC088EC90E09A8BA3
:101F8000898B89899A890197F1F79A8B898B8B893B
:101F90009C8901979C8B8B8B8B899C89009769F717
:101FA00014C06D897E898F89988D0E944900DC015B
:101FB000CB019C8B8B8B8B899C89988B8F878F8592
:101FC00098890197F1F7988B8F8783E062E040E072
:101FD0000E94F90880E090E0A0E8BFE38B879C872F
:101FE000AD87BE876B857C858D859E8520E030E042
:101FF0004AEF54E40E941F02DC01CB018F839887D3
:10200000A987BA876F81788589859A8520E030E035
:1020100040E85FE30E94250488232CF481E090E0EF
:102020009E838D833FC06F81788589859A8520E066
:102030003FEF4FE757E40E94C50318164CF56B8538
:102040007C858D859E8520E030E040E251E40E9451
:102050001F02DC01CB01BC01CD010E944900DC0163
:10206000CB019E838D830FC088EC90E09C838B8393
:102070008B819C810197F1F79C838B838D819E815D
:1020800001979E838D838D819E81009769F714C08F
:102090006F81788589859A850E944900DC01CB0192
:1020A0009E838D838D819E819A83898389819A8184
:1020B0000197F1F79A838983E9960FB6F894DEBF0A
:1020C0000FBECDBFCF91DF910895DF93CF93CDB7F2
:1020D000DEB76D970FB6F894DEBF0FBECDBF8D8F04
:1020E00083E060E040E00E94F90883E061E040E0C6
:1020F0000E94F90882E06D8D0E94EC0A83E062E0A4
:1021000041E00E94F90880E090E0A0E8BFE3898FF9
:102110009A8FAB8FBC8F698D7A8D8B8D9C8D20E0D3
:1021200030E04AEF54E40E941F02DC01CB018D8BAA
:102130009E8BAF8BB88F6D897E898F89988D20E0BB
:1021400030E040E85FE30E94250488232CF481E01E
:1021500090E09C8B8B8B3FC06D897E898F89988D99
:1021600020E03FEF4FE757E40E94C50318164CF5F7
:10217000698D7A8D8B8D9C8D20E030E040E251E4BA
:102180000E941F02DC01CB01BC01CD010E9449006D
:10219000DC01CB019C8B8B8B0FC088EC90E09A8B81
:1021A000898B89899A890197F1F79A8B898B8B8919
:1021B0009C8901979C8B8B8B8B899C89009769F7F5
:1021C00014C06D897E898F89988D0E944900DC0139
:1021D000CB019C8B8B8B8B899C89988B8F878F8570
:1021E00098890197F1F7988B8F8783E062E040E050
:1021F0000E94F9088D8D813009F072C080E090E076
:10220000A0E0B0E48B879C87AD87BE876B857C851B
:102210008D859E8520E030E04AEF54E40E941F0245
:10222000DC01CB018F839887A987BA876F81788576
:1022300089859A8520E030E040E85FE30E9425042C
:1022400088232CF481E090E09E838D833FC06F81D2
:10225000788589859A8520E03FEF4FE757E40E9413
:10226000C50318164CF56B857C858D859E8520E011
:1022700030E040E251E40E941F02DC01CB01BC01CE
:10228000CD010E944900DC01CB019E838D830FC0EC
:1022900088EC90E09C838B838B819C810197F1F784
:1022A0009C838B838D819E8101979E838D838D81FD
:1022B0009E81009769F714C06F81788589859A851A
:1022C0000E944900DC01CB019E838D838D819E811C
:1022D0009A83898389819A810197F1F79A83898307
:1022E0006D960FB6F894DEBF0FBECDBFCF91DF91D4
:1022F0000895DF93CF9300D00F92CDB7DEB79B83C5
:102300008A8319820EC08981282F30E08A819B81BF
:10231000FC01E20FF31F80810E94710E89818F5FA3
:1023200089838981282F30E08A819B81FC01E20F1B
:10233000F31F8081882339F70F900F900F90CF9172
:10234000DF910895DF93CF93CDB7DEB72A970FB60D
:10235000F894DEBF0FBECDBF98878F838F8198859D
:10236000009719F480E30E94710E19821FC08981C1
:10237000E82FFF27E7FDF0958F8198852AE030E070
:10238000B9010E947A14282FCE010296E80FF91F96
:1023900020838F8198852AE030E0B9010E947A1469
:1023A000CB0198878F8389818F5F89838F819885FF
:1023B0000097E9F68981815089837EC08981282F21
:1023C000332727FD3095CE010296FC01E20FF31F63
:1023D0008081282F30E03A87298789859A85843043
:1023E000910509F44FC029853A8525303105D4F48B
:1023F00089859A8581309105C9F129853A852230F0
:1024000031052CF489859A85009761F152C02985A0
:102410003A852230310571F189859A85833091059D
:1024200069F147C029853A8527303105B9F1898599
:102430009A85883091055CF429853A8525303105E7
:1024400029F189859A858630910521F132C0298547
:102450003A852830310531F189859A858930910591
:1024600029F127C080E30E94710E23C081E30E94FE
:10247000710E1FC082E30E94710E1BC083E30E9495
:10248000710E17C084E30E94710E13C085E30E9491
:10249000710E0FC086E30E94710E0BC087E30E948D
:1024A000710E07C088E30E94710E03C089E30E9489
:1024B000710E898181508983898188230CF07ECFB8
:1024C0002A960FB6F894DEBF0FBECDBFCF91DF9135
:1024D0000895DF93CF9300D0CDB7DEB789836A83A9
:1024E0008981882321F48A8180580E94651089811E
:1024F000813021F48A8180540E9465100F900F90E2
:10250000CF91DF910895DF93CF93CDB7DEB781E010
:102510000E946510CF91DF910895DF93CF93CDB7DF
:10252000DEB78CE10E946510CF91DF910895DF93B3
:10253000CF93CDB7DEB788E10E946510CF91DF91D0
:102540000895DF93CF93CDB7DEB782E00E94651088
:10255000CF91DF910895DF93CF93CDB7DEB7639727
:102560000FB6F894DEBF0FBECDBF0E94EC0B0E94E9
:10257000831280E060E00E94691280E690E00E9491
:10258000791181E060E00E9469128BE690E00E9480
:1025900079110E944F060E94E3060E940107882FCE
:1025A00090E0A0E0B0E080939A0090939B00A0930D
:1025B0009C00B0939D008BE40E94710E0E94010765
:1025C000882F90E0A0E0B0E080938E0090938F0081
:1025D000A0939000B09391000E940107882F90E093
:1025E000A0E0B0E08093960090939700A0939800AD
:1025F000B09399008091960090919700A0919800D7
:10260000B09199000E94A2110E940107882F90E0CA
:10261000A0E0B0E080939E0090939F00A093A00064
:10262000B093A10080919E0090919F00A091A00086
:10263000B091A1000E94A2110E940107882F90E092
:10264000A0E0B0E08093920090939300A093940058
:10265000B09395008091920090919300A091940086
:10266000B09195000E94A21120919A0030919B0098
:1026700040919C0050919D0080918E0090918F0020
:10268000A0919000B0919100280F391F4A1F5B1F45
:102690008091960090919700A0919800B091990038
:1026A000280F391F4A1F5B1F80919E0090919F0049
:1026B000A091A000B091A100280F391F4A1F5B1FF5
:1026C0008091920090919300A0919400B091950018
:1026D000281739074A075B0789F080E060E00E940D
:1026E000691283E790E00E94791163960FB6F8941F
:1026F000DEBF0FBECDBFCF91DF91089580919A00CC
:1027000090919B00A0919C00B0919D009E01215F43
:102710003F4FB9014AE050E00E94C51480E065E0F7
:102720000E94691280919A0090919B00A0919C0058
:10273000B0919D000E94A211CE010F960E947911C6
:1027400080918E0090918F00A0919000B0919100A7
:102750009E01215F3F4FB9014AE050E00E94C5143D
:10276000CE010F960E94791189E790E00E947911BD
:102770008091960090919700A0919800B091990057
:102780009E01215F3F4FB9014AE050E00E94C5140D
:1027900081E066E00E946912CE010F960E947911D5
:1027A0008BE790E00E94791180919E0090919F00AC
:1027B000A091A000B091A1009E01215F3F4FB901FF
:1027C0004AE050E00E94C514CE010F960E94791194
:1027D0008FED0E94710E8DE790E00E94791180913B
:1027E000920090919300A0919400B09195009E0169
:1027F000215F3F4FB9014AE050E00E94C514CE016D
:102800000F960E94791180E890E00E94791180E093
:1028100090E0A0E2B1E48B879C87AD87BE876B8593
:102820007C858D859E8520E030E04AEF54E40E944F
:102830001F02DC01CB018F839887A987BA876F813C
:10284000788589859A8520E030E040E85FE30E9442
:10285000250488232CF481E090E09E838D833FC083
:102860006F81788589859A8520E03FEF4FE757E4AF
:102870000E94C50318164CF56B857C858D859E8559
:1028800020E030E040E251E40E941F02DC01CB0175
:10289000BC01CD010E944900DC01CB019E838D83E8
:1028A0000FC088EC90E09C838B838B819C81019787
:1028B000F1F79C838B838D819E8101979E838D830D
:1028C0008D819E81009769F764CE6F8178858985B7
:1028D0009A850E944900DC01CB019E838D838D8106
:1028E0009E819A83898389819A810197F1F79A83DE
:1028F00089834FCEAA1BBB1B51E107C0AA1FBB1F78
:10290000A617B70710F0A61BB70B881F991F5A957B
:10291000A9F780959095BC01CD0108952F923F9223
:102920004F925F926F927F928F929F92AF92BF92DF
:10293000CF92DF92EF92FF920F931F93CF93DF938B
:10294000CDB7DEB7CA1BDB0B0FB6F894DEBF0FBEE8
:10295000CDBF09942A88398848885F846E847D8435
:102960008C849B84AA84B984C884DF80EE80FD8037
:102970000C811B81AA81B981CE0FD11D0FB6F894AD
:10298000DEBF0FBECDBFED010895FB019F01E894AE
:102990004230C4F04532B4F44A3029F497FB1EF4B7
:1029A000909581959F4F642F77270E947A14805DC0
:1029B0008A330CF0895D8193CB010097A1F716F45F
:1029C0005DE251931082C9010C94E614DC01FC0114
:1029D000672F71917723E1F7329704C07C916D9353
:1029E00070836291AE17BF07C8F30895F894FFCFC4
:1029F00048756D6964697479203D0054656D702077
:102A00003D20004572726F720025002E00432000A9
:0A2A1000200000000000000000009C
:00000001FF
